:100000000C94A9020C94C6020C94C6020C944D29BF
:100010000C94C6020C94C6020C94C6020C94C60240
:100020000C94C6020C94C6020C94F42E0C94C62FA9
:100030000C94CB270C94C6020C94C6020C94C602F6
:100040000C94C6020C94C6020C94C6020C94C60210
:100050000C94C6020C9470280C94C6020C94C60230
:100060000C94C6020C94C6020C94C6020C94C602F0
:100070000C94C6020C94C6020C94C6020C94C602E0
:100080000C94C6020C94C6020C94C6020C94C602D0
:100090000C94C6020C94C6020C94C6020C94C602C0
:1000A0000C94C6020C94C6020C94C60217061706DE
:1000B00043064306EB07EB07EB07EB07D1063B07CD
:1000C0004D074D0707192A1932195F1A5F1A6E1961
:1000D0008A199D19E719EC19F719021A0F1A121A41
:1000E0002E3055304D3155304D31A130C4304D3169
:1000F0001B312A3114001A000800150017000400F3
:100100001600070009000A001D221B000600190046
:100110000500E000E300E2002C2200001C001800B3
:100120000C00120013000B000D000E000F00280041
:10013000110010003600370000002C412C002A422C
:100140000000000014001A00080015001700040049
:100150001600070009000A001D221B0006001900F6
:100160000500E000E300E2002C2200001C00180063
:100170000C00120013000B000D000E000F002800F1
:10018000110010003600370000002C412C00000048
:100190000000000014001A000800150017000400F9
:1001A0001600070009000A001D221B0006001900A6
:1001B0000500E000E300E2002C2200001C00180013
:1001C0000C00120013000B000D000E000F002800A1
:1001D0001100100036003700000000002C002A42F9
:1001E00000000000FD377A585A000004E6D6B446F5
:1001F0000200210116000000742FE5A3E0020B00AD
:10020000F45D003D8889C65436C3174FE4EFB087CC
:1002100049F4674EA453A63F2713515BAD920212D7
:100220002716EC60D8DAE299E86C4D600CA55E897F
:10023000F51D51A199B0DBC582D9D696945EB11057
:1002400016BD5F188F809F133DA4319E4429B3ECE7
:10025000AAEF175DABBC14D8070FD2C4BB8E6DFFDD
:100260000C6A3F65C3EAF3CD66740D70FA3D1A63FC
:10027000EE649610977E999AEC9C16EF807B510362
:100280009EC4968A1DCD2C4B272DF9071E6379A39A
:100290001A3A9C366F00A08B381302F8CBE054ED6D
:1002A000E4AF8960F592CA33DFE1BD504F843892E4
:1002B0009F002B496945D0BA9198FE0E0F8E81D5CB
:1002C000F4CC7E016F3BE83B8AF935B97927A5EF7D
:1002D000957A5D70B16E3CC1149310BE6E00248897
:1002E000BD4D7A6BC7C892B4E37D6BA07FF56CB14E
:1002F00010DB1BD0C0767300720488460C8CF1BBF7
:10030000000190028C040000A1307504B1C467FBA9
:10031000020000000004595A010001007103D41BBF
:10032000061C0000020002006D03D41B061C000026
:10033000030001007203D41B061C0000040002002D
:100340005703D41B061CCD1B050001007303D41BEF
:10035000061C0000060002005903D41B061C000006
:10036000070002006F03D41B061C000008000100F8
:100370007403D41B061C0000120002007503D41B7A
:10038000061C0000130002007703D41B061C0000AB
:10039000140001007903D41B061C000015000000A6
:1003A0000000D21A4F1B00000000000000000000F7
:1003B0002A2B2800000000000000000000000000C0
:1003C00000000029000000002C1E342021222434CB
:1003D0002627252E362D3738271E1F20212223249D
:1003E00025263333362E37381F0405060708090A39
:1003F0000B0C0D0E0F101112131415161718191AD5
:100400001B1C1D2F3130232D350405060708090A52
:100410000B0C0D0E0F101112131415161718191AB4
:100420001B1C1D2F3130354C000000000000000067
:1004300000000000000000000000000000000000BC
:100440000000000000000000000000007E0F00D44B
:10045000FFFFFFC7000000781C0376006900610001
:100460006C003A006600360034006300320062001F
:10047000330063000000100363006F006F006C0026
:1004800039003300360000000A036D002E006B00B7
:10049000690000000403090409024200020100A0EF
:1004A000FA09040000010301010009211101000102
:1004B000224400070581030800010904010002032A
:1004C000000000092111010001222200070582031A
:1004D00020000107050303200001120100020000B3
:1004E0000008434D36090001010203010660FF09BF
:1004F00061A1010962150026FF009520750881029F
:100500000963150026FF00952075089102C00501BA
:100510000906A101050719E029E71500250195083D
:10052000750181029501750881010507190029FFF0
:10053000150026FF00950675088100050819012998
:100540000515002501950575019102950175039129
:1005500001C011241FBECFEFDAE0DEBFCDBF11E036
:10056000A0E0B1E0E6ECF4E602C005900D92AE33F7
:10057000B107D9F723E0AEE3B1E001C01D92AC387A
:10058000B207E1F70E94D5160C9461320C9400007A
:100590008330B0F46830A0F4453090F498E2899F3D
:1005A000F001112485E0689FE00DF11D1124E40F96
:1005B000F11DEE0FFF1FEC50FF4F859194910895B0
:1005C00081E090E008959C013A9521153F4130F576
:1005D000BC0166277270AC01442754709C0122272D
:1005E000387094FF0FC090FF02C080E101C080E02E
:1005F000672B09F08062452B09F08064232B79F08A
:1006000080680895892F8170672B09F08260452BDF
:1006100009F08460232B19F08860089580E0089524
:10062000CF93DF93EB010E94E302FE010995DF9176
:10063000CF910895CF93DF93EC01805E91090897E5
:1006400010F0209719F46BE775E002C069E875E0D7
:10065000CE010E9410038C2F0E940605DF91CF91DE
:100660000895CF93DF93EC010E943805CE01805EA0
:100670009109089710F0209719F462E875E002C01C
:1006800060E975E0CE010E941003DF91CF910895DB
:1006900081E0089581E008950E944A0308950E9430
:1006A0004C0308950E944A03089508950E9455033B
:1006B0000895A6E0B0E0EFE5F3E00C94A93149839A
:1006C0005A839E833091450189819A81311115C0E9
:1006D0003E81332359F0222349F00E947309182FD9
:1006E000682F89819A810E944F0903C00E94610985
:1006F000182F69817A81812F04C00E947309698152
:100700007A810E947D112696E3E00C94C531FC01AC
:1007100087819085009749F4262F4081518162811D
:100720007381848195810E94590308950F931F93CB
:10073000CF93DF93EC0161E00E9487038C01BE013F
:100740000E944F03882329F0BE01C8010E94632242
:1007500002C080E090E08170DF91CF911F910F91F6
:100760000895CF93DF93EC0160E00E948703BE0100
:100770000E945603DF91CF91089508950E94A50528
:100780000E94BD032FEF84E39CE021508040904005
:10079000E1F700C0000008950E94BE030E94962861
:1007A00008950E94BE030E94A72808950F931F93E7
:1007B000CF93DF93EC018B010E945217882309F439
:1007C00049C0B801CE010E94D01A882309F442C062
:1007D000B801CE010E9452038823E1F1B801CE0195
:1007E0000E947F1F8823B1F1B801CE010E94C2266A
:1007F000882381F1F8018581882341F1C3308CE79A
:10080000D807D1F040F4C115FCE7DF0791F0C13003
:10081000DC47A1F01BC0CB35ECE7DE07A9F0CC35F7
:10082000FCE7DF0771F0CA35DC4781F40E94E70E70
:100830000DC00E94CC030EC00E94EF0E0E94D10397
:1008400009C00E94DD0E02C00E94EB0EC8010E948A
:10085000480301C080E0DF91CF911F910F9108956F
:10086000CF93DF93EC0161E00E948703BE010E94F9
:10087000D603DF91CF9108950E94A4270E947704A8
:1008800008950E947B040E94AD270895982F9295A9
:100890009F7019F0892F24E001C020E0982F9695D1
:1008A000969511F02E5F892F982F969509F02F5F5E
:1008B000822F0895089581E008950895CF93DF93DE
:1008C000D82F0E945B04C82F882319F08D2F0E9417
:1008D0005D048C2FDF91CF9108950895CF93C82F99
:1008E0000E945A048C2F0E945E04CF91089580E0EC
:1008F0000E946E0408950E9412270E946E040895BB
:10090000CF930E941227C82F80914001C81779F019
:10091000C09340010E9439286093410170934201C5
:1009200080934301909344018C2F0E946E04CF91D9
:100930000895009741F0EFE9FFE03197F1F700C02B
:1009400000000197F6CF0895AFE0B0E0EAEAF4E0E6
:100950000C94A8314A875B876C877D878E879F8739
:10096000882349F080914601909147010196909328
:100970004701809346018F8581110E94B80D8E0139
:100980000F5F1F4F89E0F80111928A95E9F786E021
:10099000FE013A96D80101900D928A95E1F7809177
:1009A000F20282FF12C08091590390915A03892B61
:1009B00061F00E94770D882319F082E00E94B10E49
:1009C0000E94530D81110E940C0E8D8181110CC06B
:1009D00009811A812B813C814D815E816F817885EF
:1009E00089850E94C60C05C0C8010E94960381112A
:1009F000EFCF2F96E4E00C94C431FC012481213028
:100A000021F4808191810E94A0090895CF938823C9
:100A100069F1C82F8CEF8C0F813AD0F46C2F809144
:100A20000001909101010E943D27882349F06C2F1D
:100A300080910001909101010E9476270E941A0E78
:100A40006C2F80910001909101010E9473270CC0CE
:100A500080E28C0F883050F4C77081E001C0880FAD
:100A6000CA95EAF70E949B0D0E941A0ECF91089535
:100A70008823D1F0682F8CEF860F813A38F480916B
:100A80000001909101010E9476270CC080E2860F40
:100A9000883050F4677081E001C0880F6A95EAF7EA
:100AA0000E94A10D0E941A0E08951F93CF93DF9309
:100AB000182FEB010E940605209741F08FE99FE077
:100AC0000197F1F700C000002197F6CF812F0E9417
:100AD0003805DF91CF911F910895893329F46091F2
:100AE00077037091780304C0609175037091760369
:100AF0000E9455050895882321F00E949B0D0E94B5
:100B00001A0E0895882321F00E94A10D0E941A0E4A
:100B10000895882321F00E94AB0D0E941A0E0895BB
:100B2000882321F00E94B10D0E941A0E08950E94A0
:100B3000B80D0E941A0E0895809100019091010154
:100B40000E9479270E94970508950E94A80D0E948F
:100B50009C05089592959F70963079F010F492500C
:100B600001C09A50923068F4803F69F018F4883ED2
:100B700040F409C0843F29F406C0883E20F0813F3C
:100B800011F080E0089581E00895FC012481222382
:100B900071F087819085009719F00E94851004C03C
:100BA000808191810E94A0090E94AA05089580E099
:100BB0000895A0E0B0E0EFEDF5E00C94A3317C01E6
:100BC000EB01FC01D580068102950F700E94910D0A
:100BD0008823E9F0DD20D9F08D2F807F803451F01B
:100BE00080E28C0F883098F0011104C08D2F807E38
:100BF000803269F08091F20282FF09C082E00E9497
:100C0000B10E0E94910D91E0C82EC92601C0C12CE1
:100C1000BD2EB2948FE0B8228B2D90E08C309105E0
:100C200008F0D9C1FC01EA5AFF4F0C948D311D2FF9
:100C30001F708D2F807F11F01295107FDD2099F0AD
:100C4000112309F4A6C180E28C0F883010F0C11185
:100C500004C0812F0E949B0D03C0812F0E94AB0D09
:100C60000E941A0E96C18C2F0E943805112309F498
:100C7000B2C180E28C0F883048F1CC2339F1812F4A
:100C80000E94B10D26C01D2F1F708D2F807F8032D6
:100C900011F01295107FCC2321F0C13009F451C01E
:100CA0005CC08091F20282FD17C0DD2049F0112363
:100CB00029F0812F0E949B0D0E941A0E80E06AC1CC
:100CC00080E00E943805112309F485C1812F0E941C
:100CD000A10D0E941A0E7FC1DD20D1F0002309F47E
:100CE00056C0013021F4812F0E94C50D74C180913E
:100CF0007303823008F46FC108136DC1812F0E9405
:100D00007B05812F0E94DC0D812F0E946E0E63C136
:100D1000002369F080917303823008F45CC10130D4
:100D200009F059C10E94980D812309F454C1812F03
:100D30000E948205812F0E94DC0D812F0E947A0E75
:100D40004AC180917903DD2021F0801708F443C166
:100D50001EC0081708F03FC120C0DD20E1F00023CD
:100D6000B1F020E0F701408151816281738184817B
:100D700095810E945903B7010E94F51C882309F44C
:100D800008C1F701868180FF04C18F708683812F9F
:100D90000E947B0520C1011107C1812F0E9482059D
:100DA0001AC18D2F837081F5D11019C14C2F429536
:100DB00046954770440F440F2C2F2F70042E01C00E
:100DC000220F0A94EAF7C4FF08C08FE090E001C048
:100DD000880F4A95EAF7809501C080E09D2F96958F
:100DE00096959370822B923049F058F4913019F017
:100DF0000E94A108F4C00E949B08F1C00E94A708AD
:100E0000EEC00E949808EBC0DD2019F08D2F817094
:100E100001C08695882309F4E2C04C2F429546957F
:100E20004770440F440F2C2F2F70042E01C0220F47
:100E30000A94EAF7C4FF08C08FE090E001C0880F71
:100E40004A95EAF7809501C080E09D2F969596958A
:100E50009370822B923049F058F4913019F00E942F
:100E6000ED08BDC00E94E708BAC00E94F308B7C0F1
:100E70000E94B008B4C01D2F1F70DD2039F0812FF3
:100E80000E94C2088C2F0E947B05A9C08C2F0E9453
:100E90008205812F0E94CE08A2C0C23FD9F028F45B
:100EA000C03F41F0C13F51F170C0C33FC9F0C43FE2
:100EB00009F16BC080917903DD2021F0081708F05B
:100EC0008AC003C0801708F486C08D2F8F710E94DE
:100ED000DB0881C08D2F8F71DD2009F460C077C0E1
:100EE000DD2029F08D2F8F710E94B90874C00E94F7
:100EF000B50871C08091F20282FD06C08D2F8F71FE
:100F0000DD2009F464C04BC080917303823040F14E
:100F1000DD20C1F00E94730D843039F40E94A70EC9
:100F20008D2F8F710E94CE0855C0809173030817D2
:100F300008F050C01D2F1F71812F0E94C20863E06E
:100F4000812F07C0081740F00E94A70E64E08D2F84
:100F50008F710E94890E3EC081E00E94B10E3AC09E
:100F6000DD2051F01D2F1F71812F0E94C20863E008
:100F7000812F0E94890E2FC081E00E94B10E0230A5
:100F800050F182E00E94B10E26C0DD2059F000230E
:100F900021F08C2F0E9406051EC08D2F8F710E949C
:100FA000C20819C0002389F0C93329F4809177035E
:100FB0009091780304C080917503909176030E940C
:100FC00099048C2F0E94380506C08D2F8F710E94C6
:100FD000CE0801C0C12C88EF8B0D843020F40E9414
:100FE00012270E946E04CE010E94AA05811105C03D
:100FF000109247011092460120C0DD2019F0011126
:10100000F7CF1BC00111F4CF20E0F70140815181DF
:1010100062817381848195810E945903B7010E9486
:10102000FC1C882329F38091460190914701029787
:10103000F9F68C2F0E946D05DBCFCC2089F00E9441
:10104000730D80FD0DC0F70115820E946D0D0E9489
:10105000C208C7010E9454080E946D0D0E94CE086C
:10106000CDB7DEB7E9E00C94BF310F931F93CF9358
:10107000DF93EC018F819885009719F00E9485100D
:1010800005C0688179818D810E94AB098C010E9425
:10109000F9080E948B08B801CE010E94D905DF91A2
:1010A000CF911F910F910895CF93DF93FC0124817D
:1010B0002223D1F0EC010E94300481110FC00E9464
:1010C000910D882389F08D81882371F08091F2023F
:1010D00082FF0AC082E00E94B10E06C0CE010E94CB
:1010E0003508CE010E94B103DF91CF910895A6E0AB
:1010F000B0E0EDE7F8E00C94AA312696E2E00C941B
:10110000C631A9E0B0E0E7E8F8E00C94A8312996F0
:10111000E4E00C94C431089508950E948C08089569
:101120000E948D0808950E949008809358010895A8
:101130000E949308089590915801892B0E9493086A
:1011400008959091580189230E94930808959091E1
:10115000580189270E94930808950E948C080895D9
:101160000E94AD0880935701089580E00E94B00866
:10117000089591E001C0990F8A95EAF7892F0E949E
:10118000B008089521E030E001C0220F8A95EAF707
:1011900080915701822B0E94B008089521E030E031
:1011A00001C0220F8A95EAF720958091570182238A
:1011B0000E94B008089521E030E001C0220F8A9516
:1011C000EAF78091570182270E94B0080895909114
:1011D0005701892B0E94B0080895909157018923E7
:1011E0000E94B00808959091570189270E94B00885
:1011F00008950895962F9770A1E001C0AA0F9A95BF
:10120000EAF793E0769567959A95E1F7FB01EE0F83
:10121000FF1F6E0F7F1FFA01E60FF71F40E050E03F
:10122000682F70E090819B01042E02C036952795AF
:101230000A94E2F72170219529272A23292721934F
:101240004F5F5F4F4330510569F708959B01782F39
:10125000777043E0969587954A95E1F7FC01EE0F8C
:10126000FF1F8E0F9F1FF901E80FF91F40E050E0AC
:1012700080E0219130E0072E02C0369527950A9430
:10128000E2F721703327042E01C0220F0A94EAF7F7
:10129000822B4F5F5F4F4330510559F70895282F38
:1012A000983070F4853060F4862F622F70E025E06E
:1012B000929F600D711D112448E451E00E94FA08CC
:1012C0000895983070F4853060F4292F90E068E438
:1012D00071E035E0239F800D911D11240E942609A5
:1012E000089580E00895CF92DF92FF920F931F93AD
:1012F000CF93DF936C010091570180915801082B27
:10130000C3E0D0E010E0C8010C2E02C0959587958F
:101310000A94E2F780FD04C02197A8F7F12C07C0DA
:10132000FC2EB6018C2F0E9498110197A9F38F2DE6
:10133000DF91CF911F910F91FF90DF90CF90089593
:10134000CF93DF93EC010E947309BE010E949811B4
:10135000DF91CF9108951F93CF93DF93EB0190918D
:101360004501992321F0CB010E94A00913C08823D5
:1013700049F0CB010E947309182F682FCE010E94FB
:101380004F0904C0CB010E946109182FBE01812FB3
:101390000E949811DF91CF911F910895E1E0F0E054
:1013A000DF0102C0AA0FBB1F6A95E2F7BD01DF0192
:1013B00002C0AA0FBB1F4A95E2F7AD01462B01C040
:1013C000EE0F2A95EAF7942F9823491302C08E2B2B
:1013D0000895E0958E230895242F462F682F80913D
:1013E00057010E94CE090E94B0080895FF920F9302
:1013F0001F93CF93DF93C091590189E0F82E80911C
:101400005A01C817B1F0D0E0FC9EF001FD9EF00D2E
:101410001124E55AFE4F00811181228133814481DC
:1014200055816681778180850E9481082196C770E9
:10143000E6CFCDB7DEB7E5E00C94C3310F931F9331
:101440000091A3011091A4012091A5013091A60162
:101450004091A7015091A8016091A9017091AA0142
:101460008091AB010E9481081F910F910895CF9345
:10147000DF938091A90182958F7009F04EC0809111
:10148000A801882309F449C08091590140915A016B
:101490005091A4016091A301C091A501D091A60132
:1014A00079E08417D1F190E0789FF001799FF00DF9
:1014B0001124DF01A55ABE4F14962C9114972223B4
:1014C00049F111962C911197251324C02C912613C4
:1014D00021C015962C91159721111CC012962D91A3
:1014E0003C9113972C1B3D0B283C310598F48091BF
:1014F000A9018F7080618093A901EF59FE4F80810F
:101500008F708061808383EA91E00E9454080E947A
:10151000F60903C001968770C4CFDF91CF9108957B
:101520002091590190915A0159E02917A9F030E012
:10153000529FF001539FF00D1124E55AFE4F718127
:10154000761306C07081781303C07581741306C0CA
:101550002F5F3F4F2770E9CF80E0089581E0089525
:10156000A8E1B0E0E6EBFAE00C949D318C0186E056
:10157000F801DE01539601900D928A95E1F7D801AA
:1015800014967C9014971596EC9083EA882E81E04F
:10159000982E8091A70181111CC0772009F44DC0BD
:1015A000EE2009F447C0C8010E94C505F82E882323
:1015B00009F440C089E0F801A3EAB1E001900D927E
:1015C0008A95E1F783EA91E00E94FD040E94370AC0
:1015D00084C1F80150806180C280D38060E083EADA
:1015E00091E00E9487035C01F090A8018091A50121
:1015F0009091A601FF2009F4FCC09601281B390B2D
:10160000283C310508F094C07720B9F08091A901F9
:10161000382F307F2091A401D80111969C91119709
:10162000332371F0291709F440C0C8010E94C50591
:1016300081114FC0C8010E945408FF24F394A1C136
:10164000291321C02091A3019C9129131CC0409112
:10165000AA015091AB0117962D913C911897421712
:10166000530789F4E1100FC08F7080618093A90146
:101670000E941E0A83EA91E00E9454088091A90109
:10168000F80186834FC1E1102BC140E0662D852D06
:101690000E94900A882309F43DC163EA71E0C50104
:1016A0000E94F11C811128C135C12091A301F801CC
:1016B00090812913BACF4091AA015091AB012781A3
:1016C00030854217530709F0B0CFE110AECF8683C3
:1016D000D2C0EE2009F4AECF2091A901822F8295CD
:1016E0008F7090E00297BCF08091A3019091A401CB
:1016F0009B878A87DD86CC868091A7018E871F868F
:10170000288B8091AA019091AB019A8B898BCE0195
:101710000A960E94540889E0F801A3EAB1E001901A
:101720000D928A95E1F70E94370A0E941E0A85CF22
:101730008091A901982F907F89F46C2DDE8ACD8A43
:10174000452D562D7E89872D9E2D0E94770883EA90
:1017500091E00E94540889E0D401D6C0772009F4B2
:101760006CCF2091A401F801918129131AC0209116
:10177000A3019081291315C04091AA015091AB019A
:10178000278130854217530761F4E1100AC0868330
:10179000C8010E94540889E0D4011D928A95E9F796
:1017A000F0C0C8010E94C505882309F443CFEE208C
:1017B00009F440CF2091A901822F82958F7090E08B
:1017C00002970CF4A8CF8091A3019091A4019A8371
:1017D0008983DC82CB828091A7018D831E822F8337
:1017E0008091AA019091AB0199878887CE010196DB
:1017F00090CFF601E81BF90BE83CF10508F05EC05C
:10180000772009F41ACFFE2CEE2009F413CF909123
:10181000A401D80111968C911197981341C0909111
:10182000A3018C9198133CC02091AA013091AB0187
:1018300017968D919C9118972817390789F58091F3
:10184000A90180FD24C082958F70482F50E041157A
:101850005105E9F02091A90116962C9316974F3067
:10186000510549F08F5F982F9295907F822F8F704E
:10187000892B16968C93C8010E94540889E0F801C0
:10188000A3EAB1E001900D928A95E1F726C089E0C4
:10189000F801A3EAB1E001900D928A95E1F771C0D9
:1018A000C8010E94C505811136CF8091A9018160D0
:1018B0008093A901C8010E94540863C06C2DDE8A80
:1018C000CD8A452D562D7E89872D9E2D0E94770825
:1018D00089E0F40111928A95E9F70E941E0A51C02D
:1018E0008091A90181608093A90163EA71E0C5013B
:1018F0000E94F51C8823B1F083EA91E00E9454080D
:10190000E3EAF1E089E0DF011D928A95E9F70E94A0
:101910001E0A08C040E0662D852D0E94900AE82E20
:10192000882311F0F12C2DC05B8A6C8A8B899C89ED
:101930000E94A009292F22952F70243020F49F7037
:10194000223028F009C02A50223088F015C099238F
:1019500051F0811108C014C0992329F0D8011696BE
:101960009C91907F69F0805E883030F409C0803FA0
:1019700038F0815F833020F0C8010E945408EF2CBA
:10198000FE2C8F2D6896EFE00C94B931A2E1B0E007
:10199000ECECFCE00C94A7310A871B872C873D8771
:1019A0004E875F87688B798B8A8BCE010A960E945F
:1019B000B00A882371F04E854423C1F10A851B8546
:1019C0002C853D855F85688979898A890E9481088F
:1019D0002DC089E0FE013A96DE01119601900D922C
:1019E0008A95E1F76E85662309F120915A0130E06E
:1019F000C9010196877099274091590150E08417D9
:101A0000950709F43FC06D8399E0929FD001939FA1
:101A1000B00D1124A55ABE4FFE01319601900D92D2
:101A20009A95E1F780935A010E94F60989E0F82E11
:101A30008091590190915A01891789F1F89EC0014E
:101A40001124855A9E4F0E94B00A882341F1E091EB
:101A50005901FE9EF0011124E55AFE4F00811181CB
:101A600022813381448155816681778180850E94FE
:101A700081088091590190E00196877099278093A1
:101A80005901D6CF0E94A50510925A011092590112
:101A9000E3EAF1E089E0DF011D928A95E9F76296B9
:101AA000E5E00C94C3318091590390915A03892B3E
:101AB00089F00E942D282091B7013091B801AC0126
:101AC000421B530B81E02091590330915A03421776
:101AD000530708F480E0817008958091B6018695DF
:101AE0008695869508958091B601877008950E9425
:101AF0002D282091B4013091B501821B930B2091C8
:101B0000590330915A038217930740F08091B60130
:101B100082FB882780F991E0892701C080E08170ED
:101B200008959091B601977081E009F480E00895DE
:101B30008091C40108959091C401892B8093C401C0
:101B4000089580959091C40189238093C4010895DC
:101B50001092C40108959091C301892B8093C30111
:101B6000089580959091C30189238093C3010895BE
:101B70001092C30108958091BA01089508950E94BA
:101B8000BE0D08950E94BF0D0895CF939091BA01A4
:101B90009823891779F0C82F0E942D289093B801B7
:101BA0008093B7018091BA018C2B8093BA018C2F5E
:101BB0000E94C20DCF9108959091BA01292F282338
:101BC00099F0809589238093BA01882319F00E94A7
:101BD0002D2802C080E090E09093B8018093B70177
:101BE0008091BA010E94C20D0895CF939091F202A4
:101BF00092FF10C09091BA01981761F0C82F0E940F
:101C00002D289093B8018093B701C093BA018C2F0F
:101C10000E94C20DCF9108958091BA01882349F0A6
:101C20001092BA011092B8011092B70180E00E94A0
:101C3000C20D0895CF93DF93E0910001F09101016F
:101C40008091C4018083E0910001F09101019081B5
:101C50008091C301892B80838091BA018823E9F0A8
:101C60008091590390915A03892B29F00E94530DBA
:101C700081110E940C0EE0910001F0910101908110
:101C80008091BA01892B808380910001909101019C
:101C90000E94312781110E940C0EC0910001D09149
:101CA000010148E050E06CEA71E0CE010E94DA31B7
:101CB000892B59F088E0FE01ACEAB1E001900D9269
:101CC0008A95E1F7CE010E942627DF91CF910895F2
:101CD0000E94BE0D08950E94680E08959091B9016A
:101CE000292F2823821729F0892B8093B9010E947C
:101CF0006B0E08959091B901292F282331F080951A
:101D000089238093B9010E946B0E08950E94BE0D35
:101D100008959091F20292FF17C098E0899F900178
:101D20001124262B2093B6010E94C2080E942D2860
:101D30009093B5018093B4018091B6018695869504
:101D400086950E94860E08950E94C20808951092FA
:101D5000B6011092B5011092B40180E00E94860E87
:101D600008959091B601809589238093B601282F1C
:101D7000277069F4981759F09091F20292FF07C00A
:101D80008695869586950E94CE080E94A70E089596
:101D90009091F20292FB222720F9281769F080FB2C
:101DA00092F99093F2028091F1029091F2020E94D6
:101DB000110F82E00E94B10E08958091F20282FB21
:101DC000882780F991E089270E94C80E089581E054
:101DD0000E94C80E089580E00E94C80E08956FEF1B
:101DE0007FEF80E090E00E944332089580E090E031
:101DF0000E940F32863E9E4F19F40E94E716089506
:101E000080E0089582E090E00E940732089583E028
:101E100090E00E940732089584E090E00E940F3223
:101E20000895BC0184E090E00E9443320895AB0124
:101E3000BC018FE090E00E9437320895AB01BC01F5
:101E400083E190E00E943732089560E070E0CB01BA
:101E50000E941E0F089560E070E0CB010E94170FF2
:101E60000E94250F0895A8E0B0E0E9E3FFE00C949C
:101E7000AA3166EE7EEF80E090E00E94433260E09F
:101E800082E090E00E94253260E083E090E00E94D2
:101E900025321092580160E074E184E090E00E94E5
:101EA000433260E086E090E00E9425326FEF87E0E9
:101EB00090E00E94253240E050E0BA0188E090E0D6
:101EC0000E94373260E084E290E00E94253260E0B8
:101ED00087E190E00E94253260E08CE090E00E9473
:101EE000253260E08DE090E00E94253219821A824E
:101EF0001B821C821D821E821F82188648E050E0D1
:101F000068E170E0CE0101960E94153240E050E099
:101F1000BA0180E290E00E94373280E00E94001710
:101F20000E9435170E942B0F2896E2E00C94C631D0
:101F30000E94330F0895A6E0B0E0E1EAFFE00C94C0
:101F4000A8310E942D288C018091C5019091C60175
:101F50000817190781F019821A820E942D28682F0C
:101F600049815A81792F80E090E00E94A404109367
:101F7000C6010093C5012696E4E00C94C4310E948A
:101F8000AE126093D3017093D4018093D5019093E6
:101F9000D6016093CF017093D0018093D1019093CB
:101FA000D201089581E008950E94C414089508950F
:101FB0000E94D70F08950E94D70F08950E94DB0F4B
:101FC00008950E94D70F08950E94E10F08950E947E
:101FD000D70F089588EC92E10E94E2160E94E21861
:101FE0000E94211C0E94E70F0E94E40F08950E94A6
:101FF000D80F0E94D70F08950E94E7120E946D0427
:1020000008950E9424280E9488120E9445170E9469
:10201000DF140E9427140E94FC0F0E943D1D0E94A5
:10202000E9140E94DE0F08950E94C414882321F051
:102030000E941C220E94441F0895A6E0B0E0E3E243
:10204000F0E10C94A1310E94D20F811103C00E94D3
:102050009B0F53C00E944C1487ECE82E81E0F82EB1
:10206000670100E0F60111916F01802F0E941713A4
:1020700081270F5F083019F08823A1F302C088235D
:1020800031F38091D70181FD0E941D130E94D40F6E
:10209000A82E10E099249394812F0E941713B82E34
:1020A000F701C080C82609F100E0DD24D3948C2D0F
:1020B0008D21A9F0AA2099F009831A830E942D2866
:1020C0009C838B839D8291E08B2D8D2109F490E080
:1020D00049815A816B817C818D810E94A4040F5FAC
:1020E000DD0C053021F7F701B0821F5FFFEFEF1A1B
:1020F000FF0A183089F60E94BF0F0E9414100E9438
:1021000080042696EBE00C94BD311F93CF93DF93B0
:102110000E949D11EC01C11582E5D807C8F5C115D3
:1021200090E5D90708F0BBC0C83ED105C0F4C03E59
:10213000D10508F0DDC0C53AD10550F4C430D10551
:1021400008F0D6C0219709F0D0C081E090E0D1C05E
:10215000CD3CD10508F4C9C0CE019065CAC0C115F7
:1021600080E4D80708F05AC0C11590E2D90708F0FA
:10217000AFC0C11581E0D80708F4B7C08D2F0E9409
:102180003912182FCE0199270E949D111F71ABC0E3
:10219000C03892E5D90720F5C03682E5D80708F0A7
:1021A00061C0C03492E5D90708F04AC0C03282E568
:1021B000D807F0F54C2F4695469590E2499FA0012F
:1021C0001124C37021E030E0C90102C0880F991FBB
:1021D000CA95E2F7EA01C82BD92BCE019D6889C0C8
:1021E000C03C92E5D90768F48C2F8F71C03AD24574
:1021F00008F04CC090E0D82FCC27CE01846F906AB5
:1022000078C0C03E82E5D80708F06FC0CF71DD27E7
:10221000DC2FCC27CE01806F906A6BC0CE0199274E
:102220000E949D11CC27DF70D06A8C2B9D2B61C042
:10223000CF71D0E0DC2FCC27CE01816F906A59C0DE
:102240008C2F8F718695869590E2899F900111243D
:10225000C37081E090E002C0880F991FCA95E2F731
:102260009C6811C08C2F8F718695869590E2899F0E
:1022700090011124C37081E090E002C0880F991F83
:10228000CA95E2F79A68822B932B33C00E943912C9
:102290008F7190E0D82FCC27CE0190622AC08C2F6E
:1022A0008F710E94391295E0D695C7959A95E1F7FE
:1022B000CF70D0E0DC2FCC27282F30E084FF05C082
:1022C00084E0220F331F8A95E1F7D069CE01DBCF7E
:1022D0008D2F8F710E943912182FCE0199270E94DD
:1022E0009D111F719062912B04C080E090E001C0AD
:1022F000CE01DF91CF911F91089520913502309149
:102300003602232B91F4703F39F4603F71F48091D1
:102310005503909156030895783038F4653028F4C9
:10232000462F672F0E949A25089580E090E0089537
:102330000E947D110E94851008958238910569F1EF
:10234000B0F48133910509F475C048F489329105E0
:1023500009F467C08A32910509F471C00895853384
:10236000910509F459C089339105B9F00895833E68
:10237000910589F138F4803E9105D1F0823E9105B6
:1023800029F10895863E9105C9F1873E9105D9F15D
:10239000843E910509F06CC027C02091F10220FD18
:1023A00057C021FD55C02091F20223FD5BC0089566
:1023B0008091F10280FD48C08091F20280FF48C008
:1023C0008091F10284FD46C083EE51C08091F102FC
:1023D00082FF3CC0F5CF8091F10282FD37C0809131
:1023E000F20280FD35C0ECCF8091F20281FF36C051
:1023F0008091F10284FD2EC087EE39C08091F102F8
:1024000083FF2AC0F5CF8091F10283FD25C0809122
:10241000F20281FD23C0ECCF8091F10285FD22C044
:102420001FC08091F10285FD1BC08091F20283FFE5
:1024300019C00AC08091F10286FD16C017C08091B4
:10244000F10286FD13C010C089E311C082EE0FC0F7
:1024500080EE0DC080E00BC086EE09C084EE07C0A0
:1024600085E305C089E203C08AE201C081E390E010
:1024700008959091F10292FF10C041E0282F24713D
:10248000243009F040E031E0282F2871283009F08D
:1024900030E0431711F02CE0822793FF10C041E099
:1024A000282F2471243109F040E031E0282F2871D1
:1024B000283109F030E0431711F02CE082273091E9
:1024C000F20230FF10C051E0282F2171213009F0B5
:1024D00050E041E0282F2871283009F040E05417DF
:1024E00011F029E0822731FF10C041E0282F21712F
:1024F000213109F040E031E0282F2871283109F01E
:1025000030E0431711F029E0822794FD877E08957B
:102510001092ED021092EE021092EF021092F00271
:102520000895CF92DF92EF92FF926B017C010E949F
:10253000C41481110EC00E943928C61AD70AE80AAD
:10254000F90AC092ED02D092EE02E092EF02F09210
:10255000F002FF90EF90DF90CF9008950F931F93BC
:102560000E94C414882319F00E9439280EC00E94CA
:1025700039280091ED021091EE022091EF02309186
:10258000F002600F711F821F931F1F910F9108951A
:1025900080E008950E94EF0E08950E944C142FEFE2
:1025A00086E791E0215080409040E1F700C00000B4
:1025B0000E944C1480E00E94171380FF04C00E9408
:1025C000CA120E94962808950E94CD1208950E9472
:1025D000F60E811102C00E94980F0E94020F809394
:1025E000D7010E940C0F9093F2028093F1020E9497
:1025F000E4120E94070F0E949808809157010E94E0
:10260000AD080895E82FF0E0E450FD4F2081822FBF
:1026100090E021E030E002C0220F331F6A95E2F71C
:102620002823392381E0232B09F480E00895E82F43
:10263000F0E0E450FD4F80810895089580EA8A9586
:10264000F1F7089500C008950E941E13089508959B
:102650000E94271308950E94281308950E942713AB
:1026600008950E942E1308950E9427130895A4E050
:10267000B0E0EDE3F3E10C94A8310E94C414609142
:1026800004038823E9F119821A821B821C82862F97
:1026900090E08E010F5F1F4FB80184509D4F0E9444
:1026A000F714882389F08091F30290E044E050E031
:1026B000B80184509D4F0E94DA3121E02093D80167
:1026C000892B69F410E019C08091D8018823D1F3D7
:1026D00084E0F80111928A95E9F71092D801E0910F
:1026E000F302F0E0E450FD4F89819A81AB81BC8117
:1026F00080839183A283B38311E00E942B130DC0CA
:1027000070E064507D4F8091F30290E084509D4FC3
:102710000E9480150E94341310E0812F2496E4E07B
:102720000C94C431F894E82FE295EF70F0E031A1F9
:10273000282F2F7081E090E001C0880F2A95EAF7DA
:10274000982F9095932391A392A1892B82A378949B
:1027500008950F931F93CF93DF93C8E3D1E089913E
:102760008F3F11F00E94921381E0CC33D807B9F764
:10277000C3E3D1E008E311E089918F3F11F00E949B
:1027800092130C171D07C1F7DF91CF911F910F9185
:102790000895A0E0B0E0EFECF3E10C94A4318C01DB
:1027A000C62FD0E0CE01885C9E4F7C01FC01908159
:1027B0009F3F09F447C0D62EF894E92FE295EF70B9
:1027C000F0E081A19F7021E030E001C0220F9A95D6
:1027D000EAF7822B81A382A12095282322A3789453
:1027E0000E942213E3E3F1E048E351E031E0C12C21
:1027F00021912F3F89F0A22FA295AF70B0E0909663
:102800008C9190E02F7002C0959587952A95E2F7FC
:1028100080FD02C0832F01C080E0C82A330F4E170D
:102820005F0731F7F70180818F3F11F00E9492130B
:1028300061E0C11001C060E08D2D0E942413C00F23
:10284000D11FC882CDB7DEB7E8E00C94C0318091CB
:10285000020180910201811102C094E001C090E068
:102860009093040384E0891B8093F3020E94A913D0
:1028700088E0ECEFF2E0DF01982F1D929A95E9F7DE
:10288000E4EFF2E0DF011D928A95E9F784E00E940F
:102890008A140E9431130895A8E0B0E0E2E5F4E163
:1028A0000C94A7318E010F5F1F4F88E0F801119241
:1028B0008A95E9F7F12C6F2DC8010E94C913F39492
:1028C000F4E0FF12F8CF48E050E0B80184EF92E066
:1028D0000E94DA3121E0009709F420E0892B41F0D1
:1028E00088E0F801A4EFB2E001900D928A95E1F73B
:1028F0006091040370E064507D4F44E084EF92E007
:102900000E948B14182F0E943713812B2896E5E024
:102910000C94C3310895EF92FF920F931F93CF93BE
:10292000DF937C018B01C42F222349F081E0809347
:10293000DB010E942D289093DA018093D9018091C8
:10294000DB01811102C080E01AC08091D901909111
:10295000DA010E9445280597B0F3D0E0AE01B70137
:10296000C8010E94DA31892B39F0AE01B701C801E4
:102970000E94E73181E001C080E01092DB01CDB719
:10298000DEB7E6E00C94C2318091DE0181110DC00A
:102990000E948031811102C082E001C081E08093F9
:1029A000DE01823011F40E947B3181E09091DE01E2
:1029B000913009F080E008950E94C41408950E94A7
:1029C000DC14809302010E94C41481110E942F150F
:1029D00008950E94C414811102C00E943215089506
:1029E00081E09091DF019A3008F080E008950F9324
:1029F0001F93CF93DF93EC018B018091DF018A302D
:102A000038F4B801CE010E947D1581111DC00AC0A5
:102A10008091DC019091DD010E944528843F914026
:102A200080F715C08091DF018F3F19F08F5F809391
:102A3000DF018091DF018A3060F00E942D289093A1
:102A4000DD018093DC0103C01092DF0102C080E051
:102A500001C081E0DF91CF911F910F9108950E94F5
:102A6000082908950E940B290895A0E0B0E0EBE347
:102A7000F5E10C94A5317901C82F880FDD0B4115C4
:102A80005105A9F0FE0193E0EE0FFF1F9A95E1F7C3
:102A9000ED5FFE4F8181928180529E4F208130E018
:102AA0004217530708F49A01A9010E94E731CE01A9
:102AB0000E94F329D82E8823D1F001151105B9F011
:102AC00083E0CC0FDD1F8A95E1F7FE01ED5FFE4F3D
:102AD000438150E00417150708F4A801CD5FDE4FCD
:102AE0006C817D8160527E4FC7010E94E7318D2D40
:102AF000CDB7DEB7E7E00C94C1310E947A16089595
:102B00000E9491160895A4E0B0E0E9E8F5E10C9484
:102B1000A8316091F5017091F6018091F7019091D3
:102B2000F8010E945428643671058105910528F149
:102B30000E94AE12DC01CB010296A11DB11D89835A
:102B40009A83AB83BC8300E010E020E030E044E0F7
:102B500050E0BE016F5F7F4F82E00E943515182F55
:102B6000882361F00E9439286093F5017093F60183
:102B70008093F7019093F80101C011E0812F249612
:102B8000E4E00C94C431A0E0B0E0E9ECF5E10C9491
:102B9000A2317C015B016A010E94F014811103C023
:102BA00001E010E002C00AE010E0C1E0D0E0B501B1
:102BB000C701F6010995811115C021960C171D0753
:102BC00094F0CC9F9001CD9F300D300D112480E00A
:102BD00090E045E34A95F1F70000019682179307CC
:102BE000C1F7E5CF81E0CDB7DEB7EAE00C94BE31A6
:102BF000A5E0B0E0EEEFF5E10C94A2315B01E090CE
:102C00003C01F0903D0101E010E09E012B5F3F4F41
:102C100040E050E060E070E080E00E943515182F41
:102C2000882309F43EC067018FEFC81AD80A609163
:102C3000F1017091F2018091F3019091F4010E94F1
:102C40005428643671058105910518F104E010E0FF
:102C50009E012F5F3F4F40E050E060E070E081E078
:102C60000E943515182F64E070E0C6010E943E1DD9
:102C700091E02D81281390E0192351F10E94392809
:102C80006093F1017093F2018093F3019093F4014A
:102C900011C064E070E0C6010E943E1D9D81891351
:102CA000D5CFF70181819281A381B48189839A83F1
:102CB000AB83BC83112361F089819A81AB81BC8194
:102CC0008093ED019093EE01A093EF01B093F0019A
:102CD0008091ED019091EE01A091EF01B091F00192
:102CE000F50180839183A283B383812F2596EAE047
:102CF0000C94BE310F931F93CF93DF93EC018B01A4
:102D000048EF55E10E94C315882331F043E855E1AF
:102D1000B801CE010E94C315DF91CF911F910F9191
:102D200008950F931F93CF93DF93C0913C01D091EF
:102D30003D01CE01019624E0FB01DC0101900D92E2
:102D40002A95E1F764E070E00E943E1D88836D8162
:102D50007E818F8198850091E9011091EA0120918F
:102D6000EB013091EC01601771078207930751F076
:102D70006093E9017093EA018093EB019093EC0179
:102D80000E949112DF91CF911F910F9108950E949F
:102D9000CF2B0E9401100E94DC2B08950E94E12B92
:102DA0000E941D100E94FB2B08950E94C4270E94C0
:102DB000B52B0E94EA0F0E94C7160E94CE160E94F1
:102DC000F70FFBCF90933F0180933E01089585E27A
:102DD00090E00E940732873B81F486E290E00E94F7
:102DE00007328D3B51F487E290E00E94073291E078
:102DF000813209F090E0892F01C080E08170089550
:102E0000CF93C82F811102C06FEF01C067EB85E23D
:102E100090E00E942532C11102C06FEF01C06DEB3E
:102E200086E290E00E942532C11102C06FEF01C01E
:102E300061E287E290E00E942532CF9108950895E3
:102E400088E290E00E940732682F70E080E090E016
:102E500008950895CF93C62F0E9429176C2F88E2FA
:102E600090E00E942532CF91089580E00E940017E3
:102E700060E070E0CB010E942A170E94B2240E94F9
:102E8000EF2581E00E94001708950E941F170E94FD
:102E900020170E9429170E94E716811102C00E9484
:102EA000351708959C01FB018581882351F0A90104
:102EB00057574038510530F4C9010E94FF2580E082
:102EC000089581E008952FEFFC0120830895EF928B
:102ED000FF920F931F93CF93DF93EC01162F209156
:102EE0003502309136028881232B61F08E3F09F044
:102EF0000CC18981833008F4FFC08550833008F00D
:102F000004C1FAC08B3009F4E2C038F5853009F409
:102F100075C0B8F48230E9F130F4813009F0F1C0C5
:102F2000198289E082C0833009F45BC0843009F0E3
:102F3000E8C04B816A8189810E943A249C838D83F9
:102F4000E4C0873009F468C008F463C0883009F42D
:102F500063C0893009F460C0D4C0803109F490C0E6
:102F600060F48D3009F45EC008F459C08E3009F465
:102F70005EC08F3009F46CC0C4C0823109F487C0D0
:102F800008F481C0833109F492C08E3F09F4B4C0C3
:102F9000B8C08981823041F0833069F0813009F016
:102FA000B0C00E94392802C00E9420179A838B83E8
:102FB0007C836D83AAC08091370290913802892B5F
:102FC00009F4A3C07E0122E0E20EF11C00E0802F94
:102FD0000E941713F70181937F010F5F0830B9F743
:102FE00094C08981823009F08CC06A817B818C8198
:102FF0009D810E9493310E942A1787C02C813D81B8
:103000003227232732274B816A8189810E945B24E2
:103010007CC00E94B22479C08FEF888376C00E9462
:10302000A62533C00E94A82599838A836EC0898112
:103030009A819827892798276B8170E06D317105F7
:1030400008F063C0AE014C5F5F4F0E94AB255DC0CE
:103050008091370290913802892B09F456C08981FA
:103060009A819827892798276B8170E06D317105C7
:1030700008F04BC0AE014C5F5F4F0E94CE2545C0AB
:103080000E94EF2542C00E94272489833EC0898187
:103090009A819827892798276B8170E06D31710597
:1030A000A0F5AE014C5F5F4F0E94F3242EC08981D2
:1030B0009A819827892798276B8170E06D31710577
:1030C00020F5AE014C5F5F4F0E9415251EC0809118
:1030D000370290913802892BC1F0CE010E94AB2AB1
:1030E000FFEF21EE84E0F15020408040E1F700C086
:1030F00000000E94962809C0612FCE010E94E518A9
:1031000004C0612FCE010E946317612FCE010E947F
:10311000AB2ACDB7DEB7E6E00C94C231CF92DF9296
:10312000EF92FF921F93CF93DF93CDB7DEB72A972D
:103130000FB6F894DEBF0FBECDBF80E5E5E0F3E04B
:10314000DF011D928A95E9F788E3E9EFF1E0DF01FD
:103150001D928A95E9F785E0C82E83E0D82E7F017D
:1031600010E0F701D182C082BE016F5F7F4F812FD7
:103170000E948824892B79F488E0FE013196D601DB
:1031800001900D928A95E1F789859A85D70113966A
:103190009C938E931297BAE0CB0ED11CE7E0EE0E13
:1031A000F11C1F5F1830E9F62A960FB6F894DEBFBF
:1031B0000FBECDBFDF91CF911F91FF90EF90DF90B9
:1031C000CF9008950E948E180895CF92DF92FF92BB
:1031D0000F931F93CF93DF93CDB7DEB72A970FB628
:1031E000F894DEBF0FBECDBF603209F068C1DC01CC
:1031F0001196EC9111974E2F50E04E30510508F08A
:103200005EC18C01FA01EE59FF4F0C948D3188E0BC
:10321000EBE2F1E0DE01119601900D928A95E1F763
:1032200080E2F80111928A95E9F786E0D8018C9343
:1032300011961C92119712961C92129713961C923B
:10324000139788E0FE013196149601900D928A95AD
:10325000E1F735C184E3FD01808381E0818312823F
:1032600013822DC1DC0113968C91139790E0982F57
:10327000882712962C91820F911D092E000CAA0B03
:10328000BB0B35E0880F991FAA1FBB1F3A95D1F7DA
:10329000AC01BD01405E5F4F6F4F7F4F481759072C
:1032A0006A077B0708F40BC18433E1E09E07A105A0
:1032B000B10508F004C14533F1E05F076105710510
:1032C00020F044E351E060E070E0481B590BBC0182
:1032D0006C517E4FC8010E94D131F1C040E250E0F4
:1032E0006FEF70E00E94F03180913702D8018C932B
:1032F0008091350211968C93119712961C92129719
:1033000013961C92139781E014968C93149715963C
:103310008C93D5C081E090E0909336028093350283
:1033200082E390E090933402809333020E942D2830
:103330009093320280933102C2C080913502909105
:103340003602892BC9F160E080E00E940213D82E7A
:1033500061E081E00E940213F82E80913102909189
:1033600032020E9445288536910500F1DD20F1F0FA
:10337000FF20E1F00E942D289093320280933102C9
:10338000809133029091340201979093340280939C
:103390003302892B89F4109236021092350281E0B3
:1033A00090E0909338028093370206C082E390E069
:1033B000909334028093330280913702F801808326
:1033C00080913502818380913302828378C010928C
:1033D00038021092370273C040E250E0BC01DC01B9
:1033E00012968D919C9113970E947B1C68C0BC0122
:1033F0006F5F7F4F4FE150E0FC01828193810E941B
:10340000AA1C0AC0BC016C5F7F4F4CE150E0FC017C
:10341000828193810E94C51CD8018C9350C00E9468
:10342000471C4DC0FC018281833069F0843011F16A
:10343000811145C080E21D928A95E9F7108288E0EB
:10344000818312823CC013968C919AE0F92EFE0182
:1034500031966F01DF01EF2D1D92EA95E9F7B60174
:103460000E948824D8018D93F60101900D92FA9460
:10347000E1F725C013968C9113979AE0FD013496DD
:10348000DE01119601900D929A95E1F729853A8512
:103490002115BCE73B0741F44091370250913802B7
:1034A000452B11F420E030E03A872987BE016F5F99
:1034B0007F4F0E949D24F80180830E948E182A96D7
:1034C0000FB6F894DEBF0FBECDBFDF91CF911F9135
:1034D0000F91FF90DF90CF900895A6E0B0E0E3E772
:1034E000FAE10C94AA319093560380935503811509
:1034F00020E2920718F40E941A0310C080EF89831B
:103500008A830E942D288160682F9C838B83498148
:103510005A817C8181E091E00E94A4042696E2E039
:103520000C94C631A6E0B0E0E8E9FAE10C94AA31C7
:103530009093560380935503811520E2920718F467
:103540000E94310310C080EF89838A830E942D2856
:103550008160682F9C838B8349815A817C8181E0C3
:1035600090E00E94A4042696E2E00C94C631CF932A
:10357000DF93EC010E946D1A8091750390917603A0
:10358000009741F0EFE9FFE03197F1F700C000004C
:103590000197F6CFCE010E94921ADF91CF91089544
:1035A00081E00895A0E0B0E0E8EDFAE10C94A231EA
:1035B0004430510508F46CC04091F10241FBCC2429
:1035C000C0F8D12CCC0CDD1C42FB882780F9C82F19
:1035D000E0E0DE2FCC0FDD1FCC0FDD1FCC2ADD2A73
:1035E00040FBEE24E0F8F12CEC28FD2843FBAA2751
:1035F000A0F9B0E023E0AA0FBB1F2A95E1F7EA2A61
:10360000FB2A44FBEE27E0F9F0E034E0EE0FFF1F69
:103610003A95E1F7EE29FF2945FB222720F930E012
:1036200055E0220F331F5A95E1F72E2B3F2B46FB17
:10363000882780F990E0E6E0880F991FEA95E1F786
:10364000822B932B47FB442740F950E05695542F8B
:10365000442757954795842B952B2091F202322FC2
:103660003170132F00E0082B192B26952170B22EF4
:10367000BB0CA12C0A291B29012E000C220B330B99
:10368000FB01008311832283338380E090E002C03A
:103690008FEF9FEFCDB7DEB7EAE00C94BE31CF924B
:1036A000DF92EF92FF924430510508F46FC0FB01A6
:1036B000C080D180E280F3800E94A5058091F10254
:1036C000C0FA80F9B701A601769567955795479599
:1036D00040FB81F9B701A60122E0769567955795E1
:1036E00047952A95D1F740FB82F9B701A60133E04F
:1036F00076956795579547953A95D1F740FB83F9AD
:10370000B701A601E4E07695679557954795EA9548
:10371000D1F740FB84F9B701A601F5E076956795EE
:1037200057954795FA95D1F740FB85F9B701A60162
:10373000A6E07695679557954795AA95D1F740FBF2
:1037400086F9B701A601B7E0769567955795479535
:10375000BA95D1F740FB87F98093F1028091F2028C
:10376000D0FA80F999E0F694E794D794C7949A95A3
:10377000D1F7C0FA81F98093F2028091F102909121
:10378000F2020E94110F80E090E002C08FEF9FEFE5
:10379000FF90EF90DF90CF90089580915703909124
:1037A00058030E947A1F08959C01CA01F9013296BC
:1037B000459154918417950750F0CB01F901349647
:1037C000659174910E94E73180E090E008958FEF59
:1037D0009FEF08950F931F93CF93DF9307E513E0B7
:1037E000C0E0D0E0CE010E947624F80161918F0103
:1037F000861719F0CE010E9480242196C432D1058B
:1038000089F7DF91CF911F910F910895DA019C0103
:103810002E5F3F4FF90145915491F9012591349163
:10382000A217B30758F0FC013496859194910E9439
:10383000E7310E94EA1B80E090E008958FEF9FEF50
:1038400008950F931F93CF93DF9307E513E0C0E034
:10385000D0E0CE010E947624F80181938F01219659
:10386000C432D105B1F7C0E0D0E0FE01EE5DFC4FFF
:1038700085919491009711F0FC0109952C96C0391F
:10388000D10599F7DF91CF911F910F910895E7E549
:10389000F3E0128E138E8FEA90E09183808385E0AF
:1038A000848F28E833E13383228322E330E0378BAF
:1038B000268B28EC30E0318F208F158E178E168ED8
:1038C00020E530E031A320A382A30E94EA1B0E94DE
:1038D000A5051092F2021092F102E2EFF2E080816F
:1038E000846080838091F1029091F2020E94110F16
:1038F0000E94211C0895EF92FF920F931F93CF9384
:10390000DF937C01EB018A016FEF70E0CE010E9432
:10391000F03128E133E080E090E0AC014E5F5F4F92
:103920000417150790F0F90165917491E616F706F2
:1039300030F4FE01E80FF91F71836083CA01245F30
:103940003F4F43E0283A340741F7CDB7DEB7E6E012
:103950000C94C2319C0188E193E0FC01A591B491E3
:103960002A173B0741F00C96E3E0883A9E07A9F737
:103970008FEF9FEF0895FC01369625913491211524
:103980003105B1F3F90109950895CF93DF93C8E1AB
:10399000D3E0FE01259134918217930731F02C96E4
:1039A00023E0C83AD207A9F707C0FE01389625914F
:1039B00034912115310519F48FEF9FEF0FC0CE011F
:1039C000F9010995009751F4FE013A968591949179
:1039D000009711F0FC01099580E090E0DF91CF9114
:1039E0000895809174038170089580917403869581
:1039F000817091E0892708958091740383FB882763
:103A000080F9089580916D0390916E030895883236
:103A1000910550F48E319105A0F4049700F1809146
:103A200072038295817012C08933910530F48D3212
:103A3000910578F48B9769F012C08436910549F0AE
:103A40000EC08091720383FB882780F991E089275B
:103A500008958091720382FB882780F9F7CF80E078
:103A600008958091720385FB882780F908958091DD
:103A7000720386FB882780F908950895FC01680F7A
:103A8000791F8FEF91E3E617F70771F021918227F5
:103A900028E030E087FF03C0880F892701C0880F26
:103AA00021503109B9F7EFCF0895A0E0B0E0EBE580
:103AB000FDE10C94A531E82FF0E0E855FC4FD490DF
:103AC000282F26952695269530E0F901E85BFB4FD7
:103AD0000491877010E0082E02C0159507950A948E
:103AE000E2F701701127F901E85CFB4FE490F12C3B
:103AF000082E02C0F594E7940A94E2F791E0E922D7
:103B0000FF24F901E85DFB4FC491D0E002C0D595D8
:103B1000C7958A95E2F7C170DD270115110519F0E7
:103B200081EE0E940605E114F10419F086EE0E9470
:103B300006058D2D0E946D05E114F10419F086EE45
:103B40000E9438050115110519F081EE0E94380513
:103B5000CD2B19F08CE20E946D05CDB7DEB7E7E002
:103B60000C94C131EF92FF920F931F93CF93DF9389
:103B7000EC01162F0AE08881882309F455C08130B2
:103B800009F043C08981813041F47E0182E0E80E72
:103B9000F11C8A810E946D0509C0823049F47E01C2
:103BA000E2E0EE0EF11C8A810E940605E7012FC0BB
:103BB000833041F47E01F2E0EF0EF11C8A810E9415
:103BC0003805F4CF843011F0219621C02A81229645
:103BD00080E090E030E0205331092A30310558F47C
:103BE000089FA001099F500D1124C901840F951F42
:103BF00021962881EFCF009751F0EFE9FFE0319750
:103C0000F1F700C000000197F6CF0E94551D2196E4
:103C1000812F882309F4AFCFEFE9FFE03197F1F767
:103C200000C000008150F5CFCDB7DEB7E6E00C94C0
:103C3000C23160E00E94B21D089580911B01877F10
:103C400080931B0182E00E94B10D80911B0184FFD3
:103C500006C08F7E80931B0182E00E949B0D8091A5
:103C60001B0185FF06C08F7D80931B0180E20E94AF
:103C70009B0D0E941A0E0895CF93DF93EC016623EB
:103C800019F082E00E94AB0DCE0190528115904355
:103C900018F4CE01992701C0CE010E941A03DF91CA
:103CA000CF9108959C0130522115304308F4992793
:103CB0000E9431030895FC01FF2724E0F695E79563
:103CC0002A95E1F79C012F703327EE0FFF1FE75C69
:103CD000FD4F81E090E002C0880F991F2A95E2F71E
:103CE000662329F020813181822B932B06C0809599
:103CF000909520813181822393239183808308953D
:103D0000FC0123E0F695E7952A95E1F7EE71FF2790
:103D1000E75CFD4F8F70992721E030E002C0220F51
:103D2000331F8A95E2F7808191812823392381E02E
:103D3000232B09F480E00895A0E0B0E0E2EAFEE180
:103D40000C94A531EC017B01D42E890180911B01DB
:103D500082FF80C020916202309163022C173D07E0
:103D600019F0209709F076C090911B019B7F9093EA
:103D70001B0191FD11C08091640290916502A70121
:103D8000481B590B61E080911C0190911D0148175F
:103D9000590718F460E001C061E0617080911B0177
:103DA00060FB81F980931B01C9010E945B1E0E9488
:103DB000980D81FF08C080911B01806180931B01D9
:103DC00082E00E94A10D0E94980D85FF08C080919D
:103DD0001B01806280931B0180E20E94A10D609113
:103DE0001B0166956170A801809162029091630247
:103DF0000E943C1ED11005C08091750390917603FE
:103E000013C0B80180916202909163020E94311D3B
:103E1000882391F3B80180916202909163020E941D
:103E2000371D8111E9CF2BC0009741F0EFE9FFE08A
:103E30003197F1F700C000000197F6CF60911B01A8
:103E400066956170A80180916202909163020E9460
:103E5000521E0FC0CE010E94801EA801682FCE0105
:103E60000E94521E8091620290916302C817D90786
:103E700011F40E941D1EF0926502E0926402CDB71B
:103E8000DEB7E7E00C94C1318091720380FF1EC061
:103E900080911B0182FF1AC00E942D28209164028C
:103EA00030916502AC01421B530B20911C013091F3
:103EB0001D014217530750F029E532E041E0BC01F3
:103EC00080916202909163020E949C1E08958091ED
:103ED0001B01982F909590FB80F980931B010E9405
:103EE0001D1E089580911B018E7F80931B010E94EF
:103EF0001D1E089590931D0180931C010895CF927B
:103F0000DF92EF92FF921F93CF93DF932091720382
:103F100020FF35C07B01EC010E942D286C01F701C8
:103F20008581882371F180911B0182FF08C029E5FA
:103F300032E040E0B60180E090E00E949C1EC43177
:103F4000FCE7DF0789F0C5312CE7D20751F0C33118
:103F50003CE7D30759F480911B01816080931B01DA
:103F600005C00E94671F02C00E94721FCE019052BE
:103F70008115904368F5109263021092620211E07D
:103F8000DEC0C13ED10521F480911B018F7E06C0A9
:103F9000C53ED10531F480911B018F7D80931B01BB
:103FA00017C0CE0190528115904390F480911B016F
:103FB00082FFE5CFB701CE010E94F51C182F8823A0
:103FC000F1F229E532E040E0B60180E090E0B1C0D6
:103FD00080911B0180FFD3CFB701CE010E94071D46
:103FE000F7011581882309F4A7C0112309F49DC0A6
:103FF0000E94980D182F0E94BB0D812B8D7FB9F068
:1040000010926302109262028091720381FD0FC0D0
:1040100060E0CE010E945B1EA70160E0CE010E941D
:104020003C1E0E94BB0D8D7F0E94F50D79C089E07A
:10403000F701A9E5B2E001900D928A95E1F710929F
:104040005E0210925C0210925B028091620290917B
:104050006302C817D90709F043C0B701CE010E9417
:10406000311D8823E9F180911B0181FD0BC08091F6
:104070006402909165029601281B390B283C31059A
:1040800078F50AC0B70180916202909163020E94A4
:10409000371D8111ECCF24C00E94980D81FF08C00C
:1040A00080911B01806180931B0182E00E94A10D21
:1040B0000E94980D85FF08C080911B01806280934B
:1040C0001B0180E20E94A10D60911B016695617049
:1040D000A70180916202909163020E943C1E23C05E
:1040E0000E94980D182F0E94BB0D812B8695817020
:1040F00090911B0180FB91F990931B010E94BB0DD5
:104100008D7F0E94F50DD0936302C0936202D0921E
:104110006502C092640280911B01846080931B0140
:1041200082E00E94B10E10E00AC0970140E0B601A3
:10413000CE010E949C1E03C011111DCF20CF812FE4
:10414000DF91CF911F91FF90EF90DF90CF90089576
:104150000895EF92FF920F931F93CF93DF93809177
:10416000D902882309F441C0C09166028DE0F82E7F
:104170008091D902C817A8F5EE24E394EC0EE092E2
:104180006602D0E0FC9EF001FD9EF00D1124EF5878
:10419000FD4F8481882319F187819085892B51F403
:1041A000818592858F3F2FEF920721F061E00E9479
:1041B000A8200BC000811181228133814481558167
:1041C0006681778180850E94C60CFC9EF001FD9E71
:1041D000F00D1124EF58FD4F14820E94B80DCE2D22
:1041E000C7CF1092D90210926602CDB7DEB7E6E0D3
:1041F0000C94C23108951092DB021092DA02E9EFBA
:10420000F1E08581811102C014821682379682E026
:10421000E133F807B1F70895BC0140916F02809136
:104220007002942F981729F1292F30E0F901EE0F31
:10423000FF1FE959FD4F0190F081E02DE617F707C8
:1042400099F487E0869FF001879FF00D1124E750D5
:10425000FE4F81E0848394130CC02F5F3F4F237087
:10426000332720936F0208952F5F3F4F922F937053
:10427000D9CF08956F927F929F92AF92BF92CF92C3
:10428000DF92EF92FF920F931F93CF93DF93DB01A7
:1042900014962C911497211160C0A090D902E1E7E7
:1042A000F2E020E030E0B12C66246394712C2A15F2
:1042B00008F051C0E384F484CD90DC9011976FEF47
:1042C0007FEF912C492D50E08A01000F111F0C0D3A
:1042D0001D1DE801088119810115110531F0E01655
:1042E000F10609F4BA019394EDCF6F3FDFEF7D073C
:1042F00071F1E30102C0CC0FDD1F6A95E2F7BC2A21
:10430000B30102C0660F771F9A94E2F7AB014150E8
:1043100051096B2D70E046175707C1F412964D9165
:104320005C9113976DE0629FF001639FF00D112483
:10433000EF58FD4F5087478324E024831082118279
:104340009287818721E015962C9305C014822F5FF8
:104350003F4F3D96ACCF0E940C21DF91CF911F9132
:104360000F91FF90EF90DF90CF90BF90AF909F9014
:104370007F906F9008951F93CF93DF93C0916F024A
:1043800017E080917002C817A1F0D0E0FE01EE0F97
:10439000FF1FE959FD4F80819181189FB001199F3E
:1043A000700D112467507E4F0E943A212196C370F0
:1043B000E8CF0E94A9200E94FB20DF91CF911F919E
:1043C00008951F93CF93DF93DC01DC9111961C912C
:1043D000119780E090E020E0ED2FF12FE20FF11D2A
:1043E000E20FF11D4081518141155105B9F0FB01EA
:1043F000C081318190E0EC2FF32FE90FF11DE90F1F
:10440000F11D0190F081E02D309731F04E175F07DC
:1044100009F481E09F5FEFCF2F5FDECF882321F08B
:10442000921728F0CD0104C080E090E001C0CB01DC
:10443000DF91CF911F91089580911E01882341F152
:104440008091DC029091DD02009711F10E944528D5
:104450002091DA023091DB0228173907C8F49091D5
:104460006F0280917002981759F00E94BB21109240
:10447000DB021092DA021092DD021092DC02089543
:104480000E94A9201092DD021092DC020E94FB2003
:1044900008951092DD021092DC0210921E018091AC
:1044A000700280936F020E94FB200E94A920089551
:1044B00080911E01882319F00E944922089581E00D
:1044C00080931E010895ADE0B0E0E9E6F2E20C94BD
:1044D0009A314C016B0180352CE7920741F4FB01C6
:1044E00015811123C9F081E080931E01ABC1813594
:1044F000FCE79F0739F4FB011581112369F00E9445
:104500004922A0C182359C4739F4FB011581112352
:1045100019F00E94582296C1809157010E944604CA
:10452000182F0E94FA20181731F0F601608171816E
:104530000E947D114C0169EFE62E61E0F62EA12C60
:10454000B12C1C8666246394712CCE0101969B8746
:104550008A87F7012081318144244A94542C212CEC
:10456000822D90E0FC01EE0FFF1FE20FF31F408150
:1045700051814115510531F08416950609F42C013D
:104580002394EECFFFEF4F165F0609F405C1F70144
:104590006481611103C080911E0102C080E090E03F
:1045A0008170F6013580332009F492C0882309F424
:1045B0008FC0B701C5010E94021D8C01F7018581E2
:1045C000811114C0C301042C01C0880F0A94EAF7BA
:1045D0009681892B86838091DA029091DB02801785
:1045E000910720F41093DB020093DA029301022C6E
:1045F00002C0220F331F0A94E2F721503109F7015C
:10460000868190E02817390709F0C7C08091DC0245
:104610009091DD02009749F00E944528081719077C
:1046200020F421E0F7012483B8C020906F0240916C
:1046300070024D8780E090E0ED852E1699F1422CB6
:10464000512CF201EE0FFF1FE959FD4F808191813E
:10465000E7E0E89F8001E99F100D112407501E4FED
:10466000B701C8010E94E1210097A9F021E0FC01F7
:1046700024838E159F0509F490C020916F022212A9
:104680000AC08017910739F492012F5F3F4F2370C2
:10469000332720936F0292012F5F3F4F422F4370C9
:1046A000242ECACFE816F90609F477C0422C512C03
:1046B000F201EE0FFF1FE959FD4FB182A082FFEF1B
:1046C0004F1A5F0A23E0422255244092700265C0CF
:1046D000F70195812681911115C0A301022C02C01A
:1046E000440F551F0A94E2F74150510930E0421738
:1046F000530709F043C0662309F441C0C5010E9475
:104700000C213CC0822F90E09C01215031092823CC
:104710003923042C02C0959587950A94E2F7232B40
:1047200059F580FF29C0F70182819381892BE1F03F
:10473000EA85FB8529E011922A95E9F70E942D2848
:10474000282F8B839C8344E04D83F70182819381E2
:10475000782F8887998709811A813C815E816F81D2
:10476000892F0E94C60C04C060E0C5010E94A820E9
:10477000F701158281E003C0817001C080E09301E0
:10478000042C01C0220F0A94EAF72095F7019681C4
:1047900029232683382E01C0312CFC85F329FC8780
:1047A0002FEFA21AB20A47E0E40EF11C88E0A81627
:1047B000B10409F0CECEF6018581882379F1FC851C
:1047C000FF2361F10E942D289093DD028093DC028B
:1047D0008091D902883098F591E0980F9093D90292
:1047E00099E0F601DE01119601900D929A95E1F79C
:1047F0002DE0829FC00111248F589D4F29E0FE01BA
:104800003196DC0101900D922A95E1F72FEF3FEFF1
:10481000FC01328721879486838611C090916F02B4
:1048200080917002981719F00E94BB2108C00E9465
:10483000A9201092DD021092DC020E94FB2011E000
:10484000FC851F27812F2D96E2E10C94B63184E080
:10485000089550E0440F551F2AE0629F400D511DFE
:1048600011249A0160E5869F200D311D1124C90194
:10487000899608950F931F93CF93DF938430A0F40C
:10488000683090F4453080F40E9429248C010E9405
:10489000073290E0D82FCC27C80101960E9407323A
:1048A0009E01282BC90102C080E090E0DF91CF91EA
:1048B0001F910F9108950F931F93CF93DF9384302F
:1048C00080F4683070F4453060F4E9010E942924D6
:1048D0008C016D2F0E9425326C2FC80101960E9419
:1048E0002532DF91CF911F910F9108958432910568
:1048F00028F487599E4F0E940732089580E008955A
:104900008432910520F487599E4F0E9425320895E4
:10491000883080F49B01982F8AE0989FB001112481
:1049200063577E4F4AE050E0C9010E94F73180E0B2
:1049300090E008958FEF9FEF0895883080F49B01F9
:10494000982F8AE0989FB001112463577E4F4AE068
:1049500050E0C9010E94493280E090E008958FEF55
:104960009FEF0895AAE0B0E0E8EBF4E20C94A431E4
:10497000C0903702D090380281E090E090933802E6
:104980008093370200E010E0F12C4F2D612F802F33
:104990000E94C8029C014F2D612F802F0E945B2432
:1049A000F39485E0F812F1CF1F5F183069F70F5FBD
:1049B000043049F70E94471CFE0131967F018AE0CE
:1049C00011928A95E9F710E0B701812F0E949D248A
:1049D0001F5F1830C9F7D0923802C09237022A966A
:1049E000E8E00C94C031EF92FF920F931F93CF93A6
:1049F000DF93EA017A01E60EF71E8C01C801899661
:104A0000CE15DF0569F0003421E0120720F40E9482
:104A10000732888301C0188221960F5F1F4FEECFA7
:104A2000CDB7DEB7E6E00C94C231A0E0B0E0EBE138
:104A3000F5E20C949E31EC016B017A0180349140D7
:104A400008F073C080E491E08C1B9D0B86179707DC
:104A500008F46BC03E0139E2630E711C809137028D
:104A600090913802892B19F0CE0CDF1C59C0C0FF81
:104A700011C0CE0188960E94073290E0982F8827B7
:104A8000F7012081822B81159C4739F48FEFF701C4
:104A9000808303C000E010E002C001E010E0CE011E
:104AA0008C0D9D1D560180FF17C0F1E0AF1AB108B3
:104AB00047018A0C9B1CC3018C0D9D1D0E9407326F
:104AC000F401208130E0322F2227282B21153C478A
:104AD00019F48FEFF4018083F701E00FF11F2FEF3E
:104AE000CF018E199F098A159B0508F0BDCF8081E3
:104AF00090E0982F88273181832B81159C4711F4F2
:104B0000208321833296ECCFC034E1E0DE0720F42D
:104B1000F70160810E942532FFEFEF1AFF0A21960C
:104B2000CE018996EC14FD0479F7CDB7DEB7EEE03F
:104B30000C94BA31843038F4683028F4453018F4D5
:104B40000E943A24089580E090E0089580E108955D
:104B500083E292E00895EF92FF920F931F93CF9319
:104B6000DF93EA017A01E60EF71E8C01C801835239
:104B70009E4FCE15DF0569F0033222E0120720F4C4
:104B80000E940732888301C0188221960F5F1F4F51
:104B9000EDCFCDB7DEB7E6E00C94C231EF92FF92D5
:104BA0000F931F93CF93DF93EA017A01E60EF71E6E
:104BB0008C01C80183529E4FCE15DF0559F0033298
:104BC00022E0120718F468810E94253221960F5FB7
:104BD0001F4FEFCFCDB7DEB7E6E00C94C231CF93D5
:104BE000DF93CDEDD1E060E0CE010E942532219629
:104BF000C11584E0D807B9F7DF91CF910895A4E0FB
:104C0000B0E0E5E0F6E20C94A031F82E2FE0281792
:104C100008F4B4C08FEF93E00E9407328111AEC058
:104C20000DED11E0FF2071F0011584E0180709F483
:104C3000A5C0C8010E940732811101C0FA940F5F1C
:104C40001F4FF0CF19821A821B821C82CC24CA9477
:104C50007801EFEFEE1AFE0AC8010E94073289833D
:104C60001A82882309F48AC0813009F081C0580172
:104C7000F2E0AF0EB11CC7010E940732D82E8A8322
:104C8000882309F47BC08FEF8D0D833088F4780181
:104C900023E0E20EF11CC5010E9407328B838111D3
:104CA00002C08701D5CFCE0101960E94191EF9CF0F
:104CB0008BEF8D0D833078F5480183E0880E911CD1
:104CC000C5010E9407328B83811102C07401E9CFB4
:104CD0007801E4E0EE0EF11CC4010E9407328C83DF
:104CE0008823F9F22B813C812130FFEF3F0718F038
:104CF000922F80E001C0C90126E0D21631F0E7E032
:104D0000DE1631F00E94B71ACCCF0E946D1AC9CFBF
:104D10000E94921AC6CFF4E0DF1611F07501C1CFE0
:104D2000C5010E940732D82E780124E0E20EF11C62
:104D3000C80103960E940732DD2001F18823F1F0BB
:104D4000282F30E021503109C29EA001C39E500D92
:104D500011248D2D90E00197840F951F019708F481
:104D6000A0CFEFE9FFE03197F1F700C00000F6CFE8
:104D700060E0CE0101960E94B21D93CF2496ECE034
:104D80000C94BC311F93CF93DF9387372CE79207A6
:104D900021F088379C4759F031C0FB01C581CC23F5
:104DA00019F00E94042709C00E94042718C0FB01C3
:104DB000C581CC2391F00E9407270E94C2080E945F
:104DC0000A27D82F0E940727C82F0E9404274D2F9B
:104DD0006C2F0E94EC09C0E012C00E9407270E94BD
:104DE000CE080E940A27182F0E940727D82F0E945A
:104DF0000427412F6D2F0E94EC0901C0C1E08C2FC8
:104E0000DF91CF911F9108958091210108958091A4
:104E10002001089580911F0108959093E0028093EE
:104E2000DF0208950E94C414811103C08091DE0244
:104E30000895E091DF02F091E002309729F00190AF
:104E4000F081E02D0995089580E00895E091DF025A
:104E5000F091E002309721F00280F381E02D099576
:104E60000895FC01329697E080E0915029F021915D
:104E70002223D9F38F5FF9CF0895662349F0FC010F
:104E8000329608962191621729F0E817F907D1F7B1
:104E900080E0089581E008959C01FC0132969FEF27
:104EA00080E04191461789F09F3F19F4411101C0FC
:104EB000982F8F5F8630A9F79F3F39F0F901E90FEE
:104EC000F11D97FDFA956283089508959C012A5F6C
:104ED0003F4FFC014281461301C0128201968217A6
:104EE0009307B9F708950E944C2708950E946627FA
:104EF0000895029626E0FC0111922A95E9F708959B
:104F000008950E948027089583E08093E1020E9423
:104F100081270895811102C081E001C082E0809361
:104F2000E1020E94812708950E948A27089581E066
:104F30008093E1020E94812708950E949727089597
:104F400008950E94A02708950E94A12708950E9415
:104F5000A02708950E94A02708950E94A0270895E1
:104F6000CF930E94AA270E944C140E94A727C0E05A
:104F70008C2F0E941713811104C0CF5FC830C1F776
:104F800001C081E0CF91089585B7806885BF85B75E
:104F9000806885BF08951F920F920FB60F9211245B
:104FA0008F939F93AF93BF938091E202811113C0BF
:104FB00080917B0390917C03A0917D03B0917E034F
:104FC0004196A11DB11D80937B0390937C03A09318
:104FD0007D03B0937E03BF91AF919F918F910F900E
:104FE0000FBE0F901F90189580918303843031F18C
:104FF0000E943C041092E20220E488E190E00FB6A7
:10500000F894A895809360000FBE2093600083B74A
:10501000817F846083BF83B7816083BF78948895E4
:1050200083B78E7F83BF0FB6F894A89580916000F8
:10503000886180936000109260000FBE08950E9406
:10504000A5050E944104089582E084BD93E095BDCA
:105050009AEF97BD80936E0008952FB7F8948091D2
:105060007B0390917C03A0917D03B0917E032FBFC1
:1050700008952FB7F89460917B0370917C03809121
:105080007D0390917E032FBF08959C014FB7F89444
:1050900080917B0390917C03A0917D03B0917E036E
:1050A0004FBF821B930B0895CF92DF92EF92FF9236
:1050B0002FB7F894C0907B03D0907C03E0907D03E1
:1050C000F0907E032FBFA7019601261B370B480BDC
:1050D000590BCA01B901FF90EF90DF90CF9008956E
:1050E00078941F920F920FB60F9211248F939F9373
:1050F000AF93BF9380917B0390917C03A0917D033C
:10510000B0917E030196A11DB11D80937B03909306
:105110007C03A0937D03B0937E03BF91AF919F91D9
:105120008F910F900FBE0F901F90189587E797E70C
:1051300090930108809300089AE088E10FB6F894F4
:10514000A895809360000FBE90936000FFCF9AE017
:1051500088E10FB6F894A895809360000FBE9093F5
:105160006000FFCF8EE14A9B02C08150E1F74A9B6D
:10517000FECF08955A9880E28A95F1F75A9A0895D9
:10518000FC012AE02A95F1F728E090E080E031E088
:1051900040E14A95F1F7880F4A9B02C0816093274E
:1051A00000C0000040E14A95F1F7215089F720E165
:1051B0002A95F1F729B100C0000030E13A95F1F7E6
:1051C00022FB222720F992272081920F90830895B5
:1051D000A1E0B0E0EEEEF8E20C94A63119828C0169
:1051E0007C01E60EF11C0E151F0551F00E94B2283D
:1051F000CE0101960E94C028F80181938F01F3CF60
:1052000081E09981911180E02196E6E00C94C23111
:10521000529A5A9A089552985A9AEA9AE9E6F0E010
:1052200080818F7C80830895615091E001C0990F47
:105230006A95EAF720E031E0992361F0492F48238D
:1052400019F05A9A232701C05A9840E24A95F1F77B
:105250009695F2CF222311F05A9A01C05A9880E213
:105260008A95F1F75A980895FF920F931F93CF9361
:10527000DF93EC018C01060F111DC017D10741F01F
:10528000F9900E94BA2868E08F2D0E941429F5CF6A
:10529000CDB7DEB7E5E00C94C3311F920F920FB685
:1052A0000F9211240F931F932F933F934F935F936C
:1052B0006F937F938F939F93AF93BF93EF93FF93DE
:1052C000CF93DF931F92CDB7DEB719820E94B22829
:1052D000CE0101960E94C028082F069506950695D6
:1052E000902F96959570202F2570920F292F23705F
:1052F00096959695920F877089135FC08981811169
:105300005CC0043008F059C080E18A95F1F75A9AE0
:10531000529A82E08A95F1F700C05A9888E0089F77
:1053200080011124D801AD5FBE4F1696ED91FC911E
:1053300017973097A9F060913C0170913D01149648
:105340002D913C911597260F371F11968D919C91A9
:105350001297680F791F13964C9113978C910995AA
:10536000F801ED5FFE4F6381662351F080913C01AF
:1053700090913D0124813581820F931F0E94342931
:105380000E94BA2880E18A95F1F75A9852985A9A61
:1053900080E18A95F1F7F801ED5FFE4F60816623A9
:1053A00051F080913C0190913D0121813281820F29
:1053B000931F0E94E8280E94B2280F90DF91CF919E
:1053C000FF91EF91BF91AF919F918F917F916F91DD
:1053D0005F914F913F912F911F910F910F900FBEB1
:1053E0000F901F9018950F931F93CF93DF938430E6
:1053F00091050CF06DC0EC01F894529A5A9885E032
:105400008A95F1F700009C2F969595702C2F2570AA
:10541000920F892F83709695969523E0CC0FDD1F10
:105420002A95E1F7980F8E01092B0E94BA2884E093
:105430008A95F1F700C068E0802F0E94142980E16E
:105440008A95F1F752985A9A4A9902C000C0FCCF47
:1054500087E090E04A9B08C0019721F4529A5A9A3B
:10546000789436C000C0F6CFFE01ED5FFE4F638139
:10547000662381F080913C0190913D01248135812A
:10548000820F931F0E94E828811104C0529A5A9AF1
:1054900078941FC00E94B22880E28A95F1F75A984A
:1054A000529A80E18A95F1F7CD5FDE4F68816623DD
:1054B00051F080913C0190913D0129813A81820F08
:1054C000931F0E9434290E94BA28789481E001C079
:1054D00080E0DF91CF911F910F9108958091EB02B1
:1054E0000895089508959B01909183039430F1F4F9
:1054F0008F708093E9008FEF9091E800815095FDC7
:1055000006C095ED9A95F1F700008111F5CF8091D5
:10551000E80085FF0BC0BA01C90140E050E00E94DD
:10552000A82C8091E8008E778093E8000895CF93AF
:10553000DF93EC0148E050E0BC0181E00E94732A57
:1055400088E0FE01A3EEB2E001900D928A95E1F7AA
:10555000DF91CF910895603231F4BC0140E250E018
:1055600082E00E94732A089580918203811109C00C
:105570000E94782E0E94D52E8091E2008460809354
:10558000E20008951092820308950E949D270895D5
:1055900060917F0381E0611101C080E00E94842757
:1055A00008959091830381E0943009F080E0609148
:1055B0007F030E948A27089542E061EC81E00E9407
:1055C000F12D42E261EC82E00E94F12D42E260ECBA
:1055D00083E00E94F12D9091830381E0943009F0E3
:1055E00080E060917F030E94942708958091850355
:1055F000833009F461C030F4813071F0823009F4F5
:105600009BC008958A3009F487C08B3009F46CC0C0
:10561000893009F0A9C020C080918403813A09F043
:10562000A3C08091E800877F8093E8008091880381
:1056300090918903892B21F468E083EE92E003C006
:1056400060E080E090E070E00E94322D8091E80000
:105650008B778093E800089580918403813209F06C
:1056600083C08091880390918903892B09F07CC0C5
:105670008091E800877F8093E8008091E80082FDB8
:1056800005C0809183038111F8CF6EC02091F30093
:105690008091F20090E0922B029731F48091F1001A
:1056A000813011F0863021F48091F1008093EB027B
:1056B0008091E8008B7754C080918403813A09F08F
:1056C00053C08091880390918903892B09F04CC0C5
:1056D0008091E800877F8093E8008091E80080FF58
:1056E000FCCF80912A0137C0809184038132E1F59B
:1056F0008091880390918903892BB1F58091E8000E
:10570000877F8093E8000E94262E809186038093F5
:105710002A010E94A505089580918403813221F514
:105720008091E800877F8093E8000E94262E809178
:1057300087038093EC02089580918403813AA1F459
:105740008091E800877F8093E8008091E80080FFE7
:10575000FCCF8091EC028093F1008091E8008E777D
:105760008093E8000E94262E089584B7877F84BF27
:105770000FB6F894A89580916000886180936000CE
:10578000109260000FBE90E080E80FB6F89480930E
:105790006100909361000FBE0E94972708950E94B8
:1057A000782E0E94D52EE2EEF0E080818460808326
:1057B00078940E946031089582E291E00E940D2762
:1057C0000895809183038530A9F480918303853007
:1057D00079F40E94F427809181038823B1F30E9419
:1057E000B027882391F30E94922C0E94A505EDCF4B
:1057F0000E941F280895A0E2B0E0E1E0FCE20C94D2
:10580000AA3180918303843011F583E08093E9000D
:105810008091E80082FF1BC08091E80085FF0AC0EC
:1058200040E050E060E270E0CE0101960E94ED2C75
:1058300091E001C090E08091E8008B778093E800D0
:10584000992329F060E2CE0101960E946717A09685
:10585000E2E00C94C6319A0140918A0350918B0387
:105860000E94332C0895492F552743305105C9F024
:1058700060F44130510581F04230510509F04AC0D1
:1058800082E490E048E954E049C04132510511F109
:105890004232510579F13EC082E190E04AED54E098
:1058A0003DC099278130910561F040F0823091052B
:1058B00059F0039779F5E8E5F4E008C0E4E9F4E08D
:1058C00005C0E8E8F4E002C0E6E7F4E0849190E087
:1058D000AF0124C06115710541F061307105D1F44B
:1058E00089E090E043EC54E019C089E090E04AEA96
:1058F00054E014C06115710541F06130710551F437
:1059000082E290E04CEE54E009C084E490E04EE086
:1059100055E004C080E090E040E050E0F9015183A0
:105920004083089580E189BD82E189BD09B400FE0C
:10593000FDCF8091D8008F7D8093D8008091E000CA
:1059400082608093E0008091E00081FDFCCF0895AB
:10595000A0E0B0E0EEEAFCE20C94A431EC018B0193
:105960007A010E94452E811133C0E114F10439F00F
:10597000F70180819181081B190BC80FD91FC12C19
:10598000D12C0115110519F18091E80085FD16C093
:105990008091E8008E778093E800E114F10449F0EB
:1059A000F70180819181C80ED91ED182C08285E025
:1059B0000FC00E94452E882321F30AC0899180934D
:1059C000F10001501109FFEFCF1ADF0ADACF80E0B2
:1059D000CDB7DEB7E8E00C94C031A0E0B0E0E3EF73
:1059E000FCE20C94A431EC018B017A010E94452E5B
:1059F000811133C0E114F10439F0F7018081918104
:105A0000081B190BC80FD91FC12CD12C011511056A
:105A100019F18091E80085FD16C08091E8008B7730
:105A20008093E800E114F10449F0F701808191814D
:105A3000C80ED91ED182C08285E00FC00E94452EBB
:105A4000882321F30AC08091F10089930150110944
:105A5000FFEFCF1ADF0ADACF80E0CDB7DEB7E8E09C
:105A60000C94C03120918A0330918B03261737079D
:105A700048F06115710539F42091E8002E772093E4
:105A8000E80001C0B901FC0120E06115710579F160
:105A9000809183038823F1F18530F1F18091E80052
:105AA00083FD3CC08091E80082FD2EC08091E8001B
:105AB00080FFEBCF2091F3008091F20090E0922BD9
:105AC0006115710551F08830910538F421912093CA
:105AD000F100615071090196F3CF21E0089709F0B8
