:100000000C943B020C9482020C9482020C943F22CA
:100010000C9482020C9482020C9482020C94820250
:100020000C9482020C9482020C94DC290C94AE2A6B
:100030000C940C250C9482020C9482020C94820283
:100040000C9482020C9482020C9482020C94820220
:100050000C9482020C9481250C9482020C948202EE
:100060000C9482020C9482020C9482020C94820200
:100070000C9482020C9482020C9482020C948202F0
:100080000C9482020C9482020C9482020C948202E0
:100090000C9482020C9482020C9482020C948202D0
:1000A0000C9482020C9482020C9482021F051F059C
:1000B000510551059E05BC05D006D006C705600652
:1000C0007106710670077007820782077907820739
:1000D00082078207700770077E07820782077E0704
:1000E0001B2B422B3A2C422B3A2C8E2BB12B3A2C29
:1000F000082C172C07634236B79BD8A71A396856C5
:1001000018AEBAAB558C1D3CB7CC5763BD6DEDFD39
:10011000753EF6177231BF000000803F05A84CCD38
:10012000B2D44EB93836A9020C50B9918688083C31
:10013000A6AAAA2ABE000000803F14001A000800E8
:100140001500170004001600070009000A001D62D0
:100150001B00060019000500E000E300E2002C622D
:1001600000001C0018000C001200134A0B000D00C8
:100170000E000F00280011001000364D370000005F
:100180002C422C002A41000000001E001F0020000D
:10019000210022001E021F0220022102220257001B
:1001A0005600550054006700E000E300E2002C62B6
:1001B000000023002400250026002700230224023B
:1001C000250226022702350089002F123012000076
:1001D0002C422C000000000000003A003B003C00D4
:1001E0003D003E001F023100330033123400C35C77
:1001F000C45CC65CC75CC85CE000E300E2002C6243
:1002000000003F0040004100420043005000510008
:1002100052004F002D02C95CCA5C2F003000000064
:1002200000002C002A410000000000047F3F1F64F2
:100230003214643214783C1E1E140A05FFAA7F553E
:10024000400001010101010101010102020202025B
:10025000020202020303030303030303040404046E
:100260000404040505050505060606060607070736
:10027000070708080808090909090A0A0A0B0B0BED
:100280000C0C0C0D0D0D0E0E0E0F0F0F101011118A
:10029000111212131314141515161617171818190E
:1002A000191A1A1B1B1C1D1D1E1E1F202021222275
:1002B000232424252626272829292A2B2C2D2D2EB8
:1002C0002F30313232333435363738393A3B3C3DD2
:1002D0003E3F404142434445464748494A4C4D4EC3
:1002E0004F50515354555658595A5B5D5E5F616289
:1002F00064656668696B6C6D6F7072737577787A18
:100300007B7D7E8082838587888A8C8E8F91939572
:1003100096989A9C9EA0A2A3A5A7A9ABADAFB1B396
:10032000B5B7BABCBEC0C2C4C6C9CBCDCFD1D4D676
:10033000D8DBDDDFE2E4E7E9EBEEF0F3F5F8FAFD18
:10034000FF100363006F006F006C0039003300364C
:100350000000001403740065006C007A006F003226
:100360000030003000300000000403090409023BA3
:1003700000020100A0FA09040000010301010009C4
:1003800021110100012240000705810308000A092C
:100390000401000103000000092111010001227B7A
:1003A000000705820320000A120100020000000875
:1003B000434D360901000102000105010902A101B6
:1003C00085020901A1000509190129081500250167
:1003D0009508750181020501093009311581257FD4
:1003E00095027508810609381581257F95017508E4
:1003F0008106050C0A38021581257F950175088153
:1004000006C0C005010980A101850319012AB700B2
:10041000150126B700950175108100C0050C090172
:10042000A101850419012AA002150126A002950147
:1004300075108100C005010906A101050719E02911
:10044000E715002501950875018102950175088160
:10045000010507190029FF150026FF0095067508FC
:10046000810005081901290595057501910295017D
:1004700075039101C00011241FBECFEFDAE0DEBF8B
:10048000CDBF04B603FE27C080910C0390910D03ED
:10049000A0910E03B0910F038730904BA740B04B53
:1004A000D1F410920C0310920D0310920E031092CF
:1004B0000F0314BE84B7877F84BF0FB6F894A89546
:1004C00080916000886180936000109260000FBE90
:1004D000E0E0F8E3099511E0A0E0B1E0EEE6F1E636
:1004E00002C005900D92AE3DB107D9F723E0AEED05
:1004F000B1E001C01D92AC30B207E1F70E94451592
:100500000C94B5300C94000081E0089581E00895CA
:100510000C94860208950C948A021F93CF93DF9364
:1005200000D000D01F92CDB7DEB749835A836B83CA
:100530003091E00189819A81311114C0662359F00C
:10054000222349F00E941609182F682F89819A8169
:100550000E94BD0803C00E94E908182F69817A81B2
:10056000812F04C00E94160969817A810F900F9033
:100570000F900F900F90DF91CF911F910C9423104B
:10058000FC01262F408151816281738184810C940A
:100590008D0281E00895CF93DF93EC0160E00E942B
:1005A000C002BE01DF91CF910C948B020E942C11EE
:1005B0000E944E030C9466110C94621108950E94DF
:1005C0005E070E94DE022FEF84E39CE02150804012
:1005D0009040E1F700C000000C94A7250F931F93F3
:1005E000CF93DF938C0161E00E94C002EC01B8015F
:1005F0000E948802882309F444C0B801CE010E94F9
:10060000E71F8823F1F1B801CE010E943920882329
:10061000C1F1B801CE010E946B21882391F1B8018C
:10062000CE010E94621E882361F1F8018281882335
:1006300009F1CB358DE5D807C1F050F4C115FCE5C3
:10064000DF0781F0CF3DDC45A9F40E94270E19C0D9
:10065000CC35EDE5DE0761F0CD35DD4559F40E947E
:10066000B80C08C00E94DF020CC00E94C10C02C07E
:100670000E94C40CC801DF91CF911F910F910C947F
:10068000840280E0DF91CF911F910F91089508952A
:100690000C94470381E008950C944A030895CF9386
:1006A000C82F0E9448038C2F0E944C03CF910895BD
:1006B000CF93DF93CDB7DEB72B970FB6F894DEBF9D
:1006C0000FBECDBF4F83588769877A878B876111AB
:1006D0000E94E70C9E012F5F3F4F86E0F9011192C7
:1006E0008A95E9F785E0FE013796D90101900D92D0
:1006F0008A95E1F789819A814C815D81452B31F0A2
:100700009F3F31F491E08F3F19F403C091E001C0A5
:1007100090E090FF09C049815A816B817C818D8175
:100720009E810E94E70B05C0C9010E94C902811188
:10073000F2CF2B960FB6F894DEBF0FBECDBFDF9180
:10074000CF910895FC01808191810E9458090895FC
:10075000CF93882309F4A4C0C82F8238C1F40E9423
:10076000C32381FD9DC069E3809100019091010147
:100770000E945D240E940C0D2FEF81EE94E0215029
:1007800080409040E1F700C0000069E319C0833861
:1007900001F50E94C32380FD83C063E580910001C1
:1007A000909101010E945D240E940C0D2FEF81EEBB
:1007B00094E0215080409040E1F700C0000063E5E4
:1007C00080910001909101010E945F24CF910C94CF
:1007D0000C0D8438C1F40E94C32382FD61C067E41C
:1007E00080910001909101010E945D240E940C0DF6
:1007F0002FEF81EE94E0215080409040E1F700C05F
:10080000000067E4DDCF8CEF8C0F813AD0F46C2FC1
:1008100080910001909101010E942724882349F0D2
:100820006C2F80910001909101010E945F240E9431
:100830000C0D6C2F80910001909101010E945D24AC
:10084000C5CF80E28C0F883048F4C77081E001C0CA
:10085000880FCA95EAF70E94CA0CB8CFEBE5EC0FF7
:10086000E33040F4F0E0EB58FE4F808190E0CF9110
:100870000C94EF23E8E5EC0FE73150F4F0E0EE0FD5
:10088000FF1FE95BFE4F80819181CF910C9405247D
:10089000CD3E30F08C2F0E94D215CF910C94A4162F
:1008A000CF910895882309F464C0823879F40E94B6
:1008B000C32381FF5EC069E3809100019091010133
:1008C0000E945D240E940C0D69E310C08338B1F4CE
:1008D0000E94C32380FF4DC063E580910001909189
:1008E00001010E945D240E940C0D63E580910001CE
:1008F000909101010E945F240C940C0D843879F4CE
:100900000E94C32382FF35C067E48091000190916B
:1009100001010E945D240E940C0D67E4E7CF9CEF6B
:10092000980F913A10F4682FE1CF90E2980F983029
:1009300050F4877091E001C0990F8A95EAF7892FEA
:100940000E94D00CD9CF9BE5980F933020F480E023
:1009500090E00C94EF2398E5980F973120F480E015
:1009600090E00C9405248D3E20F00E942D160C94EE
:10097000A41608951F93CF93DF93182FEB010E94C5
:10098000A803209741F08FE99FE00197F1F700C09D
:1009900000002197F6CF812FDF91CF911F910C940A
:1009A0005204893319F060E070E002C060E570E045
:1009B0000C94BA04882321F00E94CA0C0C940C0DEC
:1009C0000895882321F00E94D00C0C940C0D0895FA
:1009D000CF92DF92EF92FF920F931F93CF93DF930B
:1009E0007C01D62FC72FFC011281058102950F7063
:1009F0000E949F0C882399F0112389F08C2F807F0F
:100A0000803421F080E28D0F883048F082E00E942F
:100A10005C0D0E949F0C91E0D82ED92601C0D12CEC
:100A2000CC2EC2948FE0C8228C2D90E08C309105A2
:100A300008F0B6C1FC01EA5AFF4F0C9413308C2F1A
:100A4000807FCF70882311F0C295C07F112399F069
:100A5000CC2309F491C180E28D0F883010F0D111C0
:100A600004C08C2F0E94CA0C03C08C2F0E94DA0C89
:100A70000E940C0D81C18D2F0E945204CC2309F4D9
:100A80008FC180E28D0F883010F0D11104C08C2FFF
:100A90000E94D00C03C08C2F0E94E00C0E940C0D11
:100AA0007FC18C2F807FCF70803211F0C295C07FC4
:100AB000DD2319F0D130C9F022C0112371F00023D9
:100AC00041F0013031F40E94ED0C8C2B0E94F50CAA
:100AD00067C10E94ED0C8C2B1DC0002319F0013062
:100AE00009F45EC10E94020D25C0112321F00630D9
:100AF00008F056C10EC0053008F052C11BC01123CA
:100B000061F0002331F0F701858180FF35C18F70DE
:100B100085838C2F0E94DA0443C1002359F0D93316
:100B200009F03BC1FFEF07EE13E0F1500040104029
:100B3000E1F731C18C2F0E94E10432C18C2F8695E0
:100B40008695837019F0813061F02AC1112321F05C
:100B50008D2F9C2F937002C080E090E00E94EF23C5
:100B600027C1112321F08D2F9C2F937002C080E0AC
:100B700090E00E9405241CC18D2F112319F00E94C2
:100B8000D21502C00E942D160E94A41611C18C2FEE
:100B9000837009F047C0111107C12D2F22952695AA
:100BA0002770220F220F6D2F6F70862F90E0A0E02C
:100BB000B0E0022E04C0880F991FAA1FBB1F0A9421
:100BC000D2F7D4FF10C04FE050E060E070E004C006
:100BD000440F551F661F771F2A95D2F740955095F1
:100BE0006095709503C040E050E0BA01C695C69587
:100BF000C3708A019B01082B192B2A2B3B2BC9019F
:100C0000B801C23049F058F4C13019F00E94D3073E
:100C1000CBC00E94C107C8C00E94E507C5C00E94A2
:100C2000BF07C2C0112319F08C2F817001C08695B7
:100C3000882309F4B9C02D2F229526952770220FFD
:100C4000220F6D2F6F70862F90E0A0E0B0E0022E93
:100C500004C0880F991FAA1FBB1F0A94D2F7D4FFA4
:100C600010C04FE050E060E070E004C0440F551F3A
:100C7000661F771F2A95D2F740955095609570951D
:100C800003C040E050E0BA01C695C695C3708A0122
:100C90009B01082B192B2A2B3B2BC901B801C23011
:100CA00049F058F4C13019F00E9498087DC00E94A4
:100CB00086087AC00E94AA0877C00E94F90774C00B
:100CC000CF70112339F08C2F0E941F088D2F0E94A6
:100CD000DA046AC08D2F0E94E1048C2F0E94400824
:100CE00063C0D23F01F128F4D03F41F0D13FA1F0E1
:100CF0003FC0D33FF9F0D43F39F13AC0112341F05E
:100D0000053008F04DC08C2F8F710E94650848C0D7
:100D1000063008F045C0F7CF112339F08C2F8F71C2
:100D20000E941F083DC01123C9F38C2F8F710E94B0
:100D3000400836C0112329F08C2F8F710E940A08B9
:100D40002FC00E9405082CC0112349F0CF718C2FB1
:100D50000E941F0863E08C2F0E94410D21C081E09A
:100D60000E945C0D0230E0F082E00E945C0D18C031
:100D7000112331F0002391F28D2F0E94A80310C09F
:100D8000002399F2D93349F41FEF27EE33E01150D5
:100D900020403040E1F700C000008D2F0E94520437
:100DA00088EF8C0D843020F40E94C3230E944F03EF
:100DB000DD20C9F00E949B0C80FD15C0F701128256
:100DC0000E94950C0E941F08C7010E9414070E94F0
:100DD000950CDF91CF911F910F91FF90EF90DF90D5
:100DE000CF900C944008DF91CF911F910F91FF900D
:100DF000EF90DF90CF9008950F931F93CF93DF93E1
:100E0000EC01688179818A810E9463098C010E94CA
:100E1000BC080E94AD07B801CE010E94E804DF9132
:100E2000CF911F910F910895CF93DF93EC0198819B
:100E300089812B813C81232B31F08F3F31F481E07C
:100E40009F3F19F403C081E001C080E080FD19C01C
:100E5000CE010E94EE0281110CC00E949F0C8823DB
:100E600081F08A81882369F082E0DF91CF910C9430
:100E70005C0DCE010E94FC06CE01DF91CF910C9457
:100E8000CB02DF91CF91089580E090E00E94EF23A4
:100E900080E090E00E9405240E94E70C0E94EA0C8A
:100EA0000E940C0D0E94D5170C94A416809100018D
:100EB000909101010E9461240C9444070E94D70C78
:100EC0000C945607E92FE295EF704E2F50E0FA018F
:100ED0003297EE30F105B0F4EE59FF4F0C94133019
:100EE000803F91F018F4883E68F40EC0843F51F4BE
:100EF0000BC0883E48F0813F29F406C093FB882749
:100F000080F9089580E0089581E00895FC018081D2
:100F100091810E9458090E9462070895CF93DF9340
:100F200000D000D01F92CDB7DEB70F900F900F907A
:100F30000F900F90DF91CF910895CF93DF9300D062
:100F400000D000D0CDB7DEB726960FB6F894DEBF3E
:100F50000FBECDBFDF91CF910895089508950C94F1
:100F6000AE070C94AF070E94B1076093FE01709327
:100F7000FF0180930002909301020C9444070C94AB
:100F8000B3070F931F930091FE011091FF01209171
:100F9000000230910102602B712B822B932B1F9149
:100FA0000F910C94B3070F931F930091FE011091C2
:100FB000FF012091000230910102602371238223FE
:100FC00093231F910F910C94B3070F931F930091DC
:100FD000FE011091FF012091000230910102602773
:100FE0007127822793271F910F910C94B3070C94BC
:100FF000AE070E94F7076093FA017093FB0180939C
:10100000FC019093FD010C94440760E070E0CB017B
:101010000C94F9070F931F9341E050E060E070E0FB
:101020008A019B0104C0000F111F221F331F8A95E4
:10103000D2F7C901B8011F910F910C94F9070F93D2
:101040001F9341E050E060E070E004C0440F551F82
:10105000661F771F8A95D2F78091FA019091FB0164
:10106000A091FC01B091FD018A019B01082B192B75
:101070002A2B3B2BC901B8011F910F910C94F90742
:101080000F931F9341E050E060E070E004C0440F14
:10109000551F661F771F8A95D2F74095509560952A
:1010A00070958091FA019091FB01A091FC01B091A3
:1010B000FD018A019B01082319232A233B23C9012F
:1010C000B8011F910F910C94F9070F931F9341E002
:1010D00050E060E070E004C0440F551F661F771FAA
:1010E0008A95D2F78091FA019091FB01A091FC01C1
:1010F000B091FD018A019B01082719272A273B2768
:10110000C901B8011F910F910C94F9070F931F9318
:101110000091FA011091FB012091FC013091FD0139
:10112000602B712B822B932B1F910F910C94F9073D
:101130000F931F930091FA011091FB012091FC0184
:101140003091FD0160237123822393231F910F911E
:101150000C94F9070F931F930091FA011091FB0172
:101160002091FC013091FD01602771278227932790
:101170001F910F910C94F907089524E0929F900D10
:101180001124890FE82FE695E695E695877051E0E2
:1011900001C0550F8A95EAF785E0E89FF001112418
:1011A000EF51FE4F20E030E070E04081CB01022E95
:1011B00002C0969587950A94E2F7817081958427FD
:1011C0008523842781932F5F3F4F2530310569F7B1
:1011D000089524E0929F900D1124890F682F669541
:1011E00066956695982F977085E0689FB0011124E9
:1011F00040E050E080E0FB01E40FF51FEF51FE4FAF
:10120000208130E0092E02C0369527950A94E2F736
:1012100021703327042E01C0220F0A94EAF7822B93
:101220004F5F5F4F4530510531F70895BF92CF9220
:10123000DF92EF92FF920F931F93CF93DF938C0176
:10124000C090FA01D090FB01E090FC01F090FD010C
:101250008091FE019091FF01A0910002B0910102E6
:10126000C82AD92AEA2AFB2ACFE1D0E0D701C60151
:101270000C2E04C0B695A795979587950A94D2F73A
:1012800080FD04C0219790F7B12C07C0BC2EB80197
:101290008C2F0E9436100197A9F38B2DDF91CF91EF
:1012A0001F910F91FF90EF90DF90CF90BF90089526
:1012B000CF93DF93EC010E941609BE010E94361005
:1012C000DF91CF9108951F93CF93DF93EB0190911E
:1012D000E001992321F0CB010E94580913C0882313
:1012E00049F0CB010E941609182F682FCE010E94E9
:1012F000BD0804C0CB010E94E908182FBE01812F50
:101300000E943610DF91CF911F9108951F93CF93C4
:10131000DF93C091020216E080910302C81799F092
:10132000D0E01C9FF0011D9FF00D1124EC5FFD4FDC
:101330004081518162817381848195810E949D07E2
:101340002196C770E9CFDF91CF911F910895409109
:1013500034025091350260913602709137028091CB
:101360003802909139020C949D070F931F93CF93ED
:10137000DF938091390282958F7009F05DC0809172
:101380003602882309F458C08091020210910302AA
:101390006091340270913502C0913702D0913802C9
:1013A00091E06F3F09F090E0292F06E0811709F4E2
:1013B00043C0209721F07F3F21F030E003C031E0AF
:1013C00001C0322F90E030FD34C0089FF001099F2A
:1013D000F00D1124DF01AC5FBD4F11963C911197C8
:1013E000371327C03C91361324C012963C911297B4
:1013F00031111FC013964D915C9114974C1B5D0BDE
:10140000483C5105B0F4809139028F70806180931F
:101410003902E75FFD4F80818F708061808384E3B4
:1014200092E00E941407DF91CF911F910F910C94CD
:10143000860901968770BACFDF91CF911F910F91E6
:1014400008959F92AF92BF92CF92DF92EF92FF9258
:101450000F931F93CF93DF93CDB7DEB761970FB68E
:10146000F894DEBF0FBECDBF8C0185E0F801DE0130
:101470001D9601900D928A95E1F7F801E280909116
:1014800034026091350220913702309138022115E3
:10149000310531F06F3F31F481E09F3F19F403C013
:1014A00081E001C080E0F82FF1709F2E80FD3FC1E8
:1014B000F80140815181A380B48084E3C82E82E08A
:1014C000D82EF0903602F501E21BF30BFF2009F451
:1014D000D9C080913902E83CF10508F095C0282F69
:1014E000207F09F052C0561313C0491311C0FE2CBF
:1014F000E1100EC08F708061809339020E94A709AD
:10150000C6010E94140780913902F80185834CC1FD
:10151000AB2831F05F3F31F481E04F3F19F403C055
:1015200081E001C080E080FD03C081E08E2502C023
:1015300080E090E0F82FF170FF2E80FF1CC08091BA
:1015400002022091030236E0821709F40BC190E0F9
:10155000389FF001399FF00D1124EC5FFD4F618140
:10156000561306C06081461303C06281E61203C0B1
:1015700001968770E9CFFE2CEE2009F415C1809109
:10158000390281608093390254C0561306C0491352
:1015900004C0E11002C0F80199C0C8010E9486078A
:1015A000882361F1EE2051F120913902822F82953A
:1015B0008F7090E0029774F0809134029091350220
:1015C00098878F831986BB86AA862C87CE010796BB
:1015D0000E94140786E0F801A4E3B2E001900D92A6
:1015E0008A95E1F70E94B5090E94A7090AC056171B
:1015F00011F1C8010E94860781112CC0C8010E9408
:101600001407FF24F394D0C0282F207F81F77A2D70
:10161000B98AA88A6E2D89890E948E0784E392E098
:101620000E94140786E0F60111928A95E9F70E945C
:10163000A709F12CB9C04913DCCFE110DACFF801CA
:101640008583C8010E94140786E0F60111928A95ED
:10165000E9F7AAC0EE2091F220913902822F8295FB
:101660008F7090E002970CF4B5CF80913402909186
:1016700035029A8389831B82BD82AC822E83CE0180
:101680000196A6CFE83CF10508F044C0FE2CEE2000
:1016900009F4B4CF561330C049132EC0209139023B
:1016A00020FD21C0822F82958F70482F50E0411578
:1016B0005105C9F0F80125834F30510541F08F5F86
:1016C000982F9295907F822F8F70892B8583C801E8
:1016D0000E94140786E0F801A4E3B2E001900D92A5
:1016E0008A95E1F73CC086E0F801A4E3B2E00190FE
:1016F0000D928A95E1F758C0C8010E9486078111B2
:1017000069CF80913902816080933902C8010E94BB
:1017100014074AC07A2DB98AA88A6E2D89890E9439
:101720008E0786E0F60111928A95E9F718C0EE203F
:1017300009F464CFC8010E948607F82E882309F4B3
:101740005DCF86E0F801A4E3B2E001900D928A95A6
:10175000E1F784E392E00E94A2030E94B5090E948F
:10176000A70922C04D875E878D859E850E945809F6
:10177000292F22952F70223028F49F7039F0811183
:1017800005C00BC0243028F49F7049F4805E883077
:1017900020F0C8010E9414079F2CF92C05C0F80105
:1017A0009581907F99F7F9CF8F2D61960FB6F894B8
:1017B000DEBF0FBECDBFDF91CF911F910F91FF9084
:1017C000EF90DF90CF90BF90AF909F9008951F93C0
:1017D000CF93DF93CDB7DEB72C970FB6F894DEBF6B
:1017E0000FBECDBF4F83588769877A878B879C87C9
:1017F000CE0107960E94210A8823D1F09F81888517
:101800002A853B85232B31F08F3F31F481E09F3FC8
:1018100019F403C081E001C080E080FD47C04F8122
:10182000588569857A858B859C850E949D073EC079
:1018300086E0FE013796DE01119601900D928A95A1
:10184000E1F7FF81E8856A857B856115710531F0D7
:10185000EF3F31F481E0FF3F19F403C081E001C0A4
:1018600080E080FD23C02091030230E0C901019691
:10187000877099274091020250E084179507F1F193
:10188000F983EA837D836C8396E0929FD001939FD6
:10189000B00D1124AC5FBD4FFE01319601900D9249
:1018A0009A95E1F7809303020E94860916E08091E1
:1018B000020290910302891771F1189FC00111244F
:1018C0008C5F9D4F0E94210A882329F1E09102023A
:1018D0001E9FF0011124EC5FFD4F40815181628118
:1018E0007381848195810E949D078091020290E01E
:1018F00001968770992780930202D9CF0E945E07D4
:101900001092030210920202E4E3F2E086E0DF01AB
:101910001D928A95E9F72C960FB6F894DEBF0FBE9C
:10192000CDBFDF91CF911F91089580913A028595A7
:1019300085958595089580913A02877008959091D4
:101940003A02977081E009F480E008959091AE0228
:1019500092FB222720F9281751F080FB92F99093EF
:10196000AE028091AD029091AE020C94A30D089549
:101970008091AE0282FB882780F991E089270C9440
:10198000A60C81E00C94A60C80E00C94A60C80912F
:101990004602089590914602892B8093460208954D
:1019A0008095909146028923809346020895109273
:1019B0004602089590914502892B8093450208952F
:1019C0008095909145028923809345020895109255
:1019D0004502089510924402089580913B020895B3
:1019E00008950C94F00C0C94F10C9091AE0292FDC1
:1019F00008C090913B02981721F080933B020C9411
:101A0000F30C089580913B02882329F010923B0249
:101A100080E00C94F30C0895E0910001F091010135
:101A2000809146028083E0910001F0910101908154
:101A300080914502892B8083E0910001F0910101A2
:101A4000908180914402892B808380913B0288237E
:101A500081F0E0910001F09101019081892B808358
:101A600080910001909101010E941B2481110E942C
:101A7000020D80910001909101010C94D6230C94E9
:101A8000F00C9091AE0292FD10C098E0899F9001F9
:101A90001124262B20933A020E941F0880913A02BB
:101AA0008595859585950C943F0D0C941F08109293
:101AB0003A0280E00C943F0D20913A0280958223F7
:101AC00080933A02982F977041F430E0482F082E07
:101AD000000C550B2417350721F49091AE0292FFAC
:101AE00007C08595859585950E9440080C94570DF3
:101AF00008956FEF7FEF80E090E00C949F3080E0DE
:101B000090E00E947B3021E0893E9E4F09F020E06A
:101B1000822F089582E090E00C946D3083E090E095
:101B20000C946D30CF9384E090E00E946D30C82F0C
:101B300082E290E00E946D302C2F30E0A901582BFA
:101B4000CA01CF910895CF93C92F682F84E090E008
:101B50000E9481306C2F82E290E0CF910C94813012
:101B6000AB01BC018FE090E00C949330AB01BC0161
:101B700083E190E00C94933060E070E0CB010C9432
:101B8000B60D60E070E0CB010E94B00D0C94BC0D6E
:101B900069EE7EEF80E090E00E949F3060E082E09E
:101BA00090E00E94813060E083E090E00E9481300C
:101BB0001092FE011092FF01109200021092010299
:101BC00060E084E090E00E94813060E082E290E09A
:101BD0000E94813060E085E090E00E94813060E00A
:101BE00086E090E00E9481306FEF87E090E00E94F5
:101BF000813040E050E0BA0188E090E00E949330EC
:101C000060E08DE090E00E94813040E050E0BA0159
:101C100088E190E00E94933060E087E190E00E94CC
:101C2000813040E050E0BA018CE190E00E949330B6
:101C300060E070E080E290E00E949F3040E050E081
:101C4000BA0188E190E00E9493300C94C10D0C948D
:101C5000C80D682F8EE090E00C9481300E944A25D8
:101C600060935402709355028093560290935702EA
:101C700060935002709351028093520290935302EA
:101C8000089585B7806885BF85B7806885BF08954A
:101C90000C940C1308950C944A0E0C944A0E0C9458
:101CA0004D0E0C944A0E0C94510E0C944A0E0E9448
:101CB000410E82E191E10E94B8250E94550E0C94DC
:101CC000530E0E944B0E0C944A0E0E9435250E9422
:101CD00068240E940C120E945C1F0E94701D0C94CC
:101CE0004F0E9F92AF92BF92CF92DF92EF92FF92F0
:101CF0000F931F93CF93DF93CDB7DEB72A970FB61D
:101D0000F894DEBF0FBECDBF0E94811281110E94E8
:101D10002E0E88E4A82E82E0B82E00E010E0902E6F
:101D2000802F0E945011D82EF501C1905F01C82666
:101D3000B1F40F5F1F4F0830110589F78FEF8983CA
:101D40008A831B820E943E258160782F9D838C832D
:101D500049815A816B818D810E9458032FC08091E7
:101D6000580281FD0E945611E12CFF24F3948C2D22
:101D70008F21F1F00E94480E882399F0EE829F8215
:101D8000DF2081E009F480E088870E943E258160A1
:101D9000782F9A8789874E815F8168858A850E941E
:101DA0005803F801E85BFD4F8081F826F08206C0F9
:101DB000E394FF0CF5E0EF12DACFBBCF0E94B41D25
:101DC0000E94C2160E94C323909147028917B9F05E
:101DD0000E94C323809347022A960FB6F894DEBF71
:101DE0000FBECDBFDF91CF911F910F91FF90EF906C
:101DF000DF90CF90BF90AF909F900C944F032A96A6
:101E00000FB6F894DEBF0FBECDBFDF91CF911F910B
:101E10000F91FF90EF90DF90CF90BF90AF909F9089
:101E20000895CF93DF930E943B10EC01811521E5CB
:101E3000920708F045C0811530E5930708F094C07B
:101E4000883E910528F5803E910508F0F8C0883A53
:101E5000910570F4853A910508F07CC081309105B8
:101E600009F475C008F4E8C0049708F0E8C0E4C0BD
:101E70008F3B910508F0E0C0C85AD0E0CC0FDD1FC1
:101E8000C858DE4F0990D881C02DCE019464D8C0C7
:101E9000811540E2940758F4811551E0950708F048
:101EA000CEC08D3E910508F4C7C09065C9C0C1156C
:101EB00080E4D80708F4C0C0DF70CE01906AC0C0CB
:101EC000811525E59207A8F4811534E5930708F0FC
:101ED00095C0811543E5940708F07BC0811552E554
:101EE000950708F061C0D82FCC27CE01816F906A8A
:101EF000A7C0C11589E5D807A0F4C11528E5D20708
:101F000008F082C0C11536E5D30708F095C08C2FC4
:101F10000E94CF108F7190E0D82FCC27CE01906215
:101F20008FC0C1154AE5D40708F474C0CE0190569D
:101F30008115904208F080C08D2F8F710E94CF10C4
:101F4000DD27D0628F71AE01582BCA0179C081E0C4
:101F500090E076C0C55AD0E0CA55DE4F8881C82FC0
:101F6000D0E0CE0190646CC074E0969587957A9528
:101F7000E1F7282F23703C2F337081E090E002C0FE
:101F8000880F991F3A95E2F79C68AC01522B9A0191
:101F90009C2F9F709695969550E2959FE001112495
:101FA000C9018C2B9D2B4CC08370992721E030E018
:101FB00002C0220F331F8A95E2F79C2F96959695C3
:101FC00080E2989FE0011124C22BD32BCE019C68A4
:101FD00037C08370992721E030E002C0220F331F01
:101FE0008A95E2F79C2F9695969540E2949FE001A2
:101FF0001124C22BD32BCE019A6822C0D82FCC2714
:10200000CE01846F906A1CC0DC2FCC27CE01806F7C
:10201000906A16C08C2F8F700E94CF1094E0D695D6
:10202000C7959A95E1F7CF70D0E0DC2FCC27D06927
:102030009E01282BC90104C080E090E001C0CE01C0
:10204000DF91CF91089528E2829FC0011124FC0105
:1020500025E0729FE00DF11D1124E60FF11DEE0F3A
:10206000FF1FE65CFE4F8591949108950E94231016
:102070000E94110F08958238910569F1B0F48133FF
:10208000910509F46DC048F48932910509F463C0E3
:102090008A32910509F469C008958533910509F4E0
:1020A00055C089339105B9F00895833E910569F1D2
:1020B00038F4803E9105B1F0823E910509F1089512
:1020C000863E9105A9F1873E9105B9F1843E9105BF
:1020D00009F064C023C02091AD0220FD4FC021FD56
:1020E0004DC008958091AD0280FD44C08091AE0244
:1020F00080FF44C08091AD0284FD42C083EE4DC09C
:102100008091AD0282FF38C0F5CF8091AD0282FD93
:1021100033C08091AE0280FD31C0ECCF8091AE0221
:1021200081FF32C08091AD0284FD2AC087EE35C0A8
:102130008091AD0283FF26C0F5CF8091AD0283FD73
:1021400021C08091AE0281FD1FC0ECCF8091AD0215
:1021500085FD1CC01DC08091AD0285FD19C016C053
:102160008091AD0286FD16C017C08091AD0286FD3C
:1021700013C010C089E311C082EE0FC080EE0DC005
:1021800080E00BC086EE09C084EE07C089E205C07E
:1021900085E303C08AE201C081E390E00895909155
:1021A000AD0292FF0DC0282F2871283019F4877FC7
:1021B000846006C0282F2471243011F48B7F88603E
:1021C00093FF0DC0282F2871283119F4877E846170
:1021D00006C0282F2471243111F48B7E8861209150
:1021E000AE0220FF0DC0382F3871383019F4877FC8
:1021F000816006C0382F3171313011F48E7F8860D4
:1022000021FF0DC0282F2871283119F4877E8161A4
:1022100006C0282F2171213111F48E7E886194FD32
:10222000877E089580E008950C94790D0E948112B4
:102230008FE39CE90197F1F700C000000E94811232
:1022400080E00E94501180FF04C00E9414110C9481
:10225000A72508950C9416110E947F0D811102C0CC
:102260000E94270E0E948A0D809358020E94920DB0
:102270009093AE028093AD020E942A110E948E0DAF
:10228000682F70E080E090E00E94BF076091FA0143
:102290007091FB018091FC019091FD010C94F70776
:1022A000E82FF0E0E954FD4F80810895089580EA19
:1022B0008A95F1F7089500C008950C945711089578
:1022C0000C945F110C9460110C945F110C946411C8
:1022D000F894E82FE295EF70F0E031A1282F2F70ED
:1022E00081E090E001C0880F2A95EAF7982F909539
:1022F000932391A392A1892B82A3789408950895A2
:102300000C947F110F931F93CF93DF93CEEAD1E00C
:1023100089918F3F11F00E94681181E0C23BD8077C
:10232000B9F7C9EAD1E00EEA11E089918F3F11F0C7
:102330000E9468110C171D07C1F7DF91CF911F9103
:102340000F910895CF92DF92EF92FF920F931F9318
:10235000CF93DF938C01C62FD0E0CE0182559E4FE4
:102360007C01FC0190819F3F09F44DC0D62EF8946A
:10237000E92FE295EF70F0E081A19F7021E030E05D
:1023800001C0220F9A95EAF7822B81A382A12095A2
:10239000282322A378940E945B11E9EAF1E020E06F
:1023A00030E0C12C51E041914F3FB1F0A42FA295F4
:1023B000AF70B0E090968C9190E04F7002C0959510
:1023C00087954A95E2F780FD07C0852F022E01C050
:1023D000880F0A94EAF701C080E0C82A2F5F3F4FB8
:1023E0002530310501F7F70180818F3F11F00E9400
:1023F000681161E0C11001C060E08D2D0E945D1187
:10240000C00FD11FC882DF91CF911F910F91FF9014
:10241000EF90DF90CF9008950E94261380910201E3
:1024200080910201811102C094E001C090E090937C
:10243000C00284E0891B8093BF020E948211EFEAF0
:10244000F2E0A7EBB2E011921D9282E0E73BF807C1
:10245000D1F784E00E94D5120E94D6020C9430136A
:102460001F93CF93DF9300D000D0CDB7DEB70E948B
:102470000C136091C002882371F119821A821B82A9
:102480001C82862F90E0BE016F5F7F4F89549D4F65
:102490000E943E13E091BF029E012B5F3F4FF0E090
:1024A000E954FD4FDE011196882361F010E08D9113
:1024B0009081981711F0808311E03196A217B3072D
:1024C000B1F706C011921D92A217B307D9F711E018
:1024D0000E94DC020DC070E069547D4F8091BF0204
:1024E00090E089549D4F0E94CE130E94801110E00D
:1024F000812F0F900F900F900F90DF91CF911F9130
:102500000895EF92FF920F931F93CF93DF93CDB770
:10251000DEB728970FB6F894DEBF0FBECDBF8E0191
:102520000F5F1F4F88E0F80111928A95E9F7F12CAF
:102530006F2DC8010E94A211F394F4E0FF12F8CFAE
:1025400048E050E0B8018FEA92E00E9457307C01E9
:1025500021E0892B09F420E0E114F10441F088E046
:10256000F801AFEAB2E001900D928A95E1F760912F
:10257000C00270E069547D4F44E08FEA92E00E940F
:10258000D612EF2819F40E94301202C081E090E0C8
:1025900028960FB6F894DEBF0FBECDBFDF91CF9166
:1025A0001F910F91FF90EF9008950895FF920F9360
:1025B0001F93CF93DF938C01F62ED72FC42F2223A6
:1025C00049F081E080935B020E943E2590935A027D
:1025D0008093590280915B028823C1F08091590257
:1025E00090915A020E945625059780F0EF2DFD2FFD
:1025F000D8014C2F50E0CD01801B910B841795071B
:102600001CF48D918193F7CF10925B02DF91CF91F3
:102610001F910F91FF90089580915E0281110DC06E
:102620000E94732C811102C082E001C081E080937E
:102630005E02823011F40E946E2C81E090915E0265
:10264000913009F080E008950C940C130E9424133B
:10265000809302010E940C1381110C94761308954B
:102660000E940C13811102C00C947813089581E02C
:1026700090915F029A3008F080E008950F931F93C5
:10268000CF93DF93EC018B0180915F028A3038F4A5
:10269000B801CE010E94CC1381111DC00AC08091E7
:1026A0005C0290915D020E945625843F914080F724
:1026B00015C080915F028F3F19F08F5F80935F029A
:1026C00080915F028A3060F00E943E2590935D0207
:1026D00080935C0203C010925F0202C080E001C0E0
:1026E00081E0DF91CF911F910F9108950C94F92112
:1026F0000C94FC21EF92FF920F931F93CF93DF93E3
:102700007901C82F880FDD0B41155105A9F08AE02A
:102710008C9FF0018D9FF00D1124ED5FFE4F8381A2
:102720009481805A9D4F228130E04217530708F46C
:102730009A01A9010E946430CE010E940623892BD0
:1027400009F50115110501F18AE08C9FF0018D9FBB
:10275000F00D1124ED5FFE4F458150E00417150781
:1027600008F4A8018AE08C9FF0018D9FF00D1124E0
:10277000ED5FFE4F66817781605A7D4FC7010E94F1
:10278000643002C080E001C081E0DF91CF911F91F1
:102790000F91FF90EF9008950C94EF140C940B158B
:1027A0000F931F93CF93DF9300D000D0CDB7DEB748
:1027B0006091750270917602809177029091780213
:1027C0000E946525643671058105910528F10E94F6
:1027D0008E24DC01CB010296A11DB11D89839A8351
:1027E000AB83BC8300E010E020E030E044E050E048
:1027F000BE016F5F7F4F82E00E947A13182F8823FB
:1028000061F00E944A25609375027093760280936E
:1028100077029093780201C011E0812F0F900F9002
:102820000F900F90DF91CF911F910F910895AF926C
:10283000BF92CF92DF92EF92FF920F931F93CF93AD
:10284000DF937C015B016A010E943713811103C091
:1028500001E010E002C00AE010E0C1E0D0E0F8942E
:10286000B501C701F60109957894811115C021962B
:102870000C171D0794F0CC9F9001CD9F300D300DAB
:10288000112480E090E045E34A95F1F700000196BD
:1028900082179307C1F7E3CF81E0DF91CF911F91BA
:1028A0000F91FF90EF90DF90CF90BF90AF90089581
:1028B000AF92BF92CF92DF92EF92FF920F931F934E
:1028C000CF93DF9300D000D01F92CDB7DEB75B016E
:1028D000E090B601F090B70101E010E09E012B5F9F
:1028E0003F4F40E050E060E070E080E00E947A13EB
:1028F000182F882309F43EC067018FEFC81AD80A41
:1029000060917102709172028091730290917402D1
:102910000E946525643671058105910518F104E072
:1029200010E09E012F5F3F4F40E050E060E070E01C
:1029300081E00E947A13182F64E070E0C6010E94C3
:102940005D1F91E02D81281390E0192351F10E9421
:102950004A25609371027093720280937302909380
:10296000740211C064E070E0C6010E945D1F9D8189
:102970008913D5CFF70181819281A381B4818983A5
:102980009A83AB83BC83112361F089819A81AB81E7
:10299000BC8180936D0290936E02A0936F02B093FE
:1029A000700280916D0290916E02A0916F02B091C1
:1029B0007002F50180839183A283B383812F0F90EE
:1029C0000F900F900F900F90DF91CF911F910F916B
:1029D000FF90EF90DF90CF90BF90AF9008950F934E
:1029E0001F93CF93DF93EC018B0148E554E10E94E4
:1029F0001714882351F040ED53E1B801CE01DF9167
:102A0000CF911F910F910C94171480E0DF91CF911B
:102A10001F910F9108950F931F93CF93DF93F89415
:102A2000C091B601D091B701CE01019624E0FB011F
:102A3000DC0101900D922A95E1F764E070E00E94BC
:102A40005D1F88837894F8946D817E818F8198854D
:102A50000091690210916A0220916B0230916C0220
:102A6000601771078207930751F0609369027093B2
:102A70006A0280936B0290936C020E947124789496
:102A8000DF91CF911F910F9108950E94B2240E946F
:102A900019270E9432270E9444270E94610EFBCF13
:102AA00080917F0280FF0BC06091260185E0689FC6
:102AB000B001112475956795759567952BC081FFB9
:102AC00009C06091260185E0689FB00111247595C9
:102AD000679520C082FF07C06091260185E0689F4E
:102AE000B001112417C090917E029923D1F060911A
:102AF0002501961788F72091260185E0289F9001EF
:102B00001124929FA001939F500D112470E0CA01DF
:102B10000E94DD2F6038710540F46115710519F4CC
:102B200006C065E070E0862F08958FE7089581E084
:102B3000089580917F0280FF08C06091220170E0BB
:102B4000759567957595679521C081FF06C0609161
:102B5000220170E07595679519C082FF04C06091ED
:102B6000220170E010C090917D02992399F060914C
:102B700021019617A0F780912201899FC00111249D
:102B800070E00E94DD2F6038710540F46115710519
:102B900019F406C061E070E0862F08958FE708956C
:102BA00081E008958D3E21F40E945015819504C066
:102BB0008E3E29F40E9450158093830208958F3E23
:102BC00021F40E945015819504C0803F29F40E9491
:102BD0005015809382020895893F19F40E94991537
:102BE00005C08A3F31F40E94991581958093840233
:102BF00008958B3F21F40E949915819504C08C3F64
:102C000029F40E9499158093850208959FE0980FFA
:102C1000983078F421E030E0A90102C0440F551F3C
:102C20009A95E2F7CA0190918102892B80938102E3
:102C300008958D3F21F480917F0281600BC08E3F0B
:102C400021F480917F02826005C08F3F29F480913A
:102C50007F02846080937F0208958D3E39F49091C5
:102C6000830297FF35C01092830259C08E3E29F42B
:102C7000909183021916BCF32BC0909182028F3E73
:102C800029F497FF25C01092820249C0803F19F4B1
:102C90001916CCF31DC090918402893F29F41916AE
:102CA000BCF4109284023BC08A3F19F497FF10C015
:102CB000F8CF8B3F39F49091850297FF09C01092AD
:102CC00085022DC08C3F21F4909185021916BCF32A
:102CD0009FE0980F983080F421E030E0A90102C015
:102CE000440F551F9A95E2F7CA0180959091810291
:102CF00089238093810213C08D3F21F480917F024C
:102D00008E7F0BC08E3F21F480917F028D7F05C0A6
:102D10008F3F29F480917F028B7F80937F02809187
:102D20008202811106C080918302811102C010923B
:102D30007E0280918402811106C0809185028111FA
:102D400002C010927D0208950E943E2520918202C9
:102D5000211104C020918302222321F090937C0250
:102D600080937B0220918402211104C0209185026E
:102D7000222321F090937A028093790280E892E0F6
:102D80000C94E123EF92FF920F931F93CF93DF9365
:102D900000D000D000D0CDB7DEB786E0E0E8F2E0AA
:102DA000DE01119601900D928A95E1F7E090820282
:102DB000F0908302009184021091850210928202A9
:102DC000109283021092840210928502E11003C0D7
:102DD000FF2009F45DC080917B0290917C020E94EB
:102DE0005625AC0190917E02992339F0209127015C
:102DF00030E02417350758F04BC0209128018AE0B5
:102E0000289F900111242417350718F041C09F3FD7
:102E100019F09F5F90937E02EE2061F00E945015A2
:102E20001E1414F09FEF01C091E0989F902D112483
:102E300090938202FF2061F00E9450151F1414F03D
:102E40009FEF01C091E0989F902D112490938302F1
:102E5000309182023323E1F0209183022223C1F0DA
:102E600045EB3403C0011124992319F09093820299
:102E700003C081E08093820235EB2303C00111245B
:102E8000992319F09093830203C081E08093830219
:102E9000011103C0112309F45DC080917902909162
:102EA0007A020E945625AC0190917D02992339F057
:102EB0002091230130E02417350758F04BC02091B2
:102EC00024018AE0289F900111242417350718F067
:102ED00041C09F3F19F09F5F90937D02002361F0F6
:102EE0000E949915101614F09FEF01C091E0989F71
:102EF000902D112490938402112361F00E94991562
:102F0000111614F09FEF01C091E0989F902D1124AD
:102F100090938502309184023323E1F02091850261
:102F20002223C1F045EB3403C0011124992319F089
:102F30009093840203C081E08093840235EB2303E5
:102F4000C0011124992319F09093850203C081E0F8
:102F5000809385028091820281110BC0809183024F
:102F6000811107C080918402811103C08091850284
:102F700081110E94A416EB82FC820D831E8386E0E1
:102F8000FE013196A0E8B2E001900D928A95E1F73A
:102F900026960FB6F894DEBF0FBECDBFDF91CF915E
:102FA0001F910F91FF90EF900895E0E8F2E086E026
:102FB000DF011D928A95E9F710927E0210927D0240
:102FC00010927F020895EF92FF920F931F93CF9379
:102FD000DF938B01682F11110AC0442329F0E82FD9
:102FE000F0E0EF5BFD4F6491762F862F75C0212FA7
:102FF00030E0E82FF0E0442321F0EF5BFD4FE49157
:10300000F0E046E0049FC0011124CFEFD0E0BE0104
:103010000E94C92F4BEA4603C001479F900D11241F
:10302000800F911D800F911D982F990F890FAE0170
:10303000421B530B4E9FD0014F9FB00D5E9FB00DB2
:1030400011249B2F189FA0011124452F55278E0175
:10305000041B150B0E9FA0010F9F500D1E9F500DBE
:1030600011247E01E81AF108E29E8001E39E100D12
:10307000F29E100D1124212F3327C21BD30BCE9F9C
:103080009001CF9F300DDE9F300D1124623071050D
:10309000A9F048F46115710569F061307105C9F452
:1030A0008B2F752F0DC06430710581F058F066309C
:1030B000710579F47E2F8B2F932F0DC0832F7B2FDB
:1030C0009E2F09C08E2F7B2F952F05C08E2F732F1B
:1030D00002C07E2F852F692FDF91CF911F910F9115
:1030E000FF90EF90089541E00E94E317089508953E
:1030F0000E9473180895CF93DF93762FE901682F0C
:10310000842F0E947818798368838A83DF91CF9116
:1031100008958091C202282F269530E021153105AF
:1031200019F48170826005C02532310524F0817068
:1031300088648093C202089588E090E00C94753012
:10314000CF92DF92EF92FF926B017C010E9489186F
:10315000B701A60188E090E0FF90EF90DF90CF905C
:103160000C949330E2ECF2E083E0808311828FEFE5
:1031700082838383148260817181828193810C9424
:10318000A0188091C20280FF02C08695089580E059
:1031900008959091C602933018F49F5F9093C602F1
:1031A000882351F06091C2027091C3028091C402E1
:1031B0009091C5020C94A018089581E00C94C91850
:1031C0009091C602992319F091509093C6028823DA
:1031D00051F06091C2027091C3028091C40290913B
:1031E000C5020C94A018089581E00C94E01870E0DA
:1031F0000C94311F60912D018091C20280FF0AC0A2
:1032000080912C0123E0829FC001112489539D4F9E
:103210000C94F71880912E0190912F01891780F757
:10322000E82FF0E09F01220F331FE20FF31FE95355
:10323000FD4F1182108212828F5FF0CF9091C202F7
:1032400090FF16C090912E0120912F01921770F4DB
:10325000E92FF0E0DF01AA0FBB1FEA0FFB1FE953C4
:10326000FD4F8183608342839F5FF0CF0C94FA18F7
:103270000895CF93DF9300D01F92CDB7DEB7909122
:10328000C20290FF0AC09E012F5F3F4F0E947B1831
:103290004B8169818A810E941E190F900F900F90B7
:1032A000DF91CF910895CF93DF93EC016C8170E0B3
:1032B00080E090E00E94CA2D20E030E04FE753E428
:1032C0000E94ED2C2BED3FE049E450E40E94F32EE8
:1032D0000E94602F0E94672D2BE43AE34EE25FE3E9
:1032E0000E94802C20EF3BEF48ED52E40E94F32E29
:1032F0000E94992D462FE2ECF2E0628181810E94CA
:1033000039198C818F5F8C83DF91CF910895CF9392
:10331000DF93EC01E2ECF2E0438162818C810E9458
:1033200039198C818F5F8C83DF91CF9108950F9332
:103330001F93CF93DF9300D01F92CDB7DEB78C01E0
:103340008091860281110AC09E012F5F3F4F4FEF8F
:103350006FEF0E947B188A8180938602F801848136
:10336000813051F028F0823061F4409186020AC029
:103370008091860240E007C06091860240E080E0D4
:1033800003C040E080E060E00E941E19F8018481E3
:1033900090E0019663E070E00E94DD2F84830F903F
:1033A0000F900F90DF91CF911F910F910895AF92E1
:1033B000BF92CF92DF92EF92FF920F931F93CF9322
:1033C000DF9300D01F92CDB7DEB7182FF62E042F53
:1033D000E22E9091C20290FF6DC0E92FE695AE2FCC
:1033E000B0E0A854BE4F8C91809392029E7F9230A1
:1033F00061F49E012F5F3F4F812F0E947B184B810C
:1034000069818A810E941E1943C0823019F400919B
:10341000C5023EC0863019F41091C30239C089300C
:10342000D9F38931A9F5E9518E2F8170D82EE6950F
:10343000F0E0E45CFD4FA590B490C12CBB246091FA
:103440003001C61618F52C2D30E0A29EC001A39EB7
:10345000900DB29E900D112470E00E94C92F812F13
:10346000D11002C0860F01C0861B90912E01290F3A
:10347000311DA901440F551F240F351F29533D4FFE
:10348000402F6F2D0E947B18C394D9CF0E94FA1849
:103490001093C302F092C4020093C502EE2051F0D3
:1034A0006091C2027091C3028091C4029091C502E2
:1034B0000E94A0180F900F900F90DF91CF911F9155
:1034C0000F91FF90EF90DF90CF90BF90AF90089555
:1034D000E2ECF2E09181282F4381628188E0890F3C
:1034E0000C94D71981E00C94681AE2ECF2E0918117
:1034F000282F4381628188EF890F0C94D71981E0CE
:103500000C94751AE2ECF2E0628128E0620F08F494
:103510006FEF282F438181810C94D71981E00C949F
:10352000821AE2ECF2E0628128E0621B08F460E0BB
:10353000282F438181810C94D71981E00C94911A32
:10354000E2ECF2E0438128E0420F08F44FEF282F2D
:10355000628181810C94D71981E00C94A01AE2EC6D
:10356000F2E0438128E0421B08F440E0282F62810A
:1035700081810C94D71981E00C94AF1A20E00C944F
:10358000D719FF920F931F93CF93DF93EC01F12C88
:103590000FEF10E060913001F616F0F480912E01EB
:1035A0002F2D30E0280F311DC901880F991F280FDA
:1035B000391F29533D4F70E0C8010E94DD2F962F1F
:1035C0008C814091C5026091C402F99E800D112446
:1035D0000E947B18F394DECF0E94FA189A818C81A6
:1035E00090FF02C08F5F01C081508C83DF91CF912B
:1035F0001F910F91FF900895BF92CF92DF92EF92AB
:10360000FF920F931F93CF93DF93FC01828180FF82
:1036100002C00FEF01C001E010E0809130011817E7
:1036200008F040C080912E01C12ED12CE601C80FB8
:10363000D11DCE01880F991FC80FD91FC953DD4F67
:10364000198218821A8234E0E32EF12CB12C809179
:1036500088028B0D813114F08F7005C087FF03C085
:1036600090913001890F082E000C990BC816D906CD
:1036700091F48091C5028E9DA0018F9D500D112463
:1036800055954795559547959E016091C402809147
:10369000C3020E947B18B00EF1E0EF1AF108B9F6F0
:1036A0001F5FBBCF0E94FA1880918802013031F46D
:1036B000811102C080913001815007C090E00196D5
:1036C0006091300170E00E94DD2F80938802DF91CD
:1036D000CF911F910F91FF90EF90DF90CF90BF900F
:1036E0000895CF9380912E0190912F01891770F446
:1036F000E82FF0E09F01220F331FE20FF31FE95381
:10370000FD4F1182108212828F5FF0CFC0E0609176
:103710003001C617C0F5EC2FF0E070E0CF010E9439
:10372000DD2F20912E01820F20918702022E000CA6
:10373000330B90E0E217F307CCF020912B01022E1F
:10374000000C330B2E173F078CF09C01220F331F08
:10375000820F931F9C0129533D4F4091C5026091F8
:10376000C4028091C3020E947B180BC0FC01EE0FC3
:10377000FF1F8E0F9F1FFC01E953FD4F1182108226
:103780001282CF5FC4CF0E94FA1820912A01809143
:103790008702820F8093870290912B01920F909362
:1037A0002B0119165CF4082E000C990B4091300186
:1037B00050E041505109841795071CF02195209342
:1037C0002A01CF9108958F929F92AF92BF92CF928C
:1037D000DF92EF92FF920F931F93CF93DF938C01B1
:1037E000FC014481C42FD0E09E01DE010E94213003
:1037F0009B01AC010E9437306B017C01E0E2F0E0FC
:10380000EC1BFD0BA5E5B0E09B01AC010E9437303D
:103810004B015C019F01DF010E9419309B01AC014B
:103820000E9442309B01AC012C0D3D1D4E1D5F1DC1
:10383000C501B4010E94F12FC22FD22F2A3228F4E1
:10384000F3E02F9F900111240DC025E530E02C1BE3
:103850003109C901880F991F280F391F37FF02C08E
:103860002F5F3F4F35952795C22FC095F12C85E5E9
:10387000E82EED1A80913001F816C8F4F1FC02C070
:103880008E2D01C08D2F90912E012F2D30E0290F0C
:10389000311DA901440F551F240F351F29533D4FDA
:1038A0004C2F6091C4020E947B18F394E3CF0E94D6
:1038B000FA18F8018481811102C091E003C08032BE
:1038C00019F49FEF9093290190912901890FF80134
:1038D0008483DF91CF911F910F91FF90EF90DF9044
:1038E000CF90BF90AF909F908F9008950F931F93AC
:1038F000CF93DF93EC0100E010E080913001282F9E
:1039000030E00217130724F590912E019801290F3A
:10391000311DA901440F551F240F351F29533D4F59
:10392000869590E04C81081719071CF4442331F068
:1039300002C0411103C04091C50201C040E0609146
:10394000C4028091C3020E947B180F5F1F4FD5CF26
:103950000E94FA188C8190E00196817099278C83DF
:10396000DF91CF911F910F910895E2ECF2E08081F9
:103970008E7F808360817181828193810E94A018F3
:10398000109293022FEF80E792E021508040904008
:10399000E1F700C000000C94FA18E2ECF2E080813C
:1039A0008E7F8083109293022FEF80E792E0215068
:1039B00080409040E1F700C000000C94FA1810928B
:1039C00093028091900281110AC081E0809390025D
:1039D0008091C202817080938F020C94CD1C089557
:1039E0006091C202669570E04BE050E081E391E0A7
:1039F0000E944A30892B19F481E0809393020E943F
:103A0000A92490938A028093890208959091C2021A
:103A100090FF35C09170811102C0926006C085325E
:103A200010F0986402C0880F982B9093C20266230E
:103A300051F06091C2027091C3028091C4029091D2
:103A4000C5020E94A0186091C202669570E04BE02A
:103A500050E081E391E00E944A30892B19F01092E6
:103A6000930202C00E94F01C81E080938C0240917E
:103A7000C5026091C4028091C3020C94BE1A0895DD
:103A8000682F9091C202969581E0890F853208F0E7
:103A900081E00C94061D81E00C94401D682F9091EC
:103AA000C20296958FEF890F09F484E20C94061DEB
:103AB00081E00C944E1D61E00C94061DE2ECF2E0F6
:103AC00080818160808386950C945B1D8091C20209
:103AD00080FD0C94B51C0C945E1D60E00C94061DDA
:103AE0008091910281112EC00E947F0D811104C02E
:103AF0000E94270E0E94B2180E949C186093C20276
:103B00007093C3028093C4029093C5026E7F61F4E8
:103B10000E94B2180E949C186093C2027093C30264
:103B20008093C4029093C5020E9489181092930258
:103B30008091C20280FF03C086950E946D1D81E0C6
:103B4000809391020895E2ECF2E0808181608083AD
:103B500086950C946D1D1092900280918F028111B8
:103B60000E94A31D0C94F01C0F931F93CF93DF931F
:103B700080919302882309F485C080919202E0919C
:103B8000C202E695E81BE0938B02823049F4F0E034
:103B9000E85CFD4FE491CE2FD0E003E519E149C088
:103BA000863049F4F0E0EB5CFD4FE491CE2FD0E09D
:103BB00007E819E13EC0893051F4E695F0E0EE5C8B
:103BC000FD4FE491CE2FD0E001EC1AE132C08F30EE
:103BD00051F4E695F0E0E15DFD4FE491CE2FD0E0A9
:103BE0000CEF1AE126C0853149F4F0E0E45DFD4FA9
:103BF000E491CE2FD0E001E71BE11BC0883181F0BA
:103C0000833239F4EAE2F2E0C591D49107E919E18F
:103C100010C0843251F4C4EFD1E006E71CE109C0C2
:103C2000C8E2D0E003EE1BE104C0C0EDD7E007E737
:103C300018E180918C02882361F010928C020E941E
:103C4000A92490938A028093890210928E02109286
:103C50008D020E94A924E0918902F0918A028E1BB4
:103C60009F0B8F3F9F4770F4EC0FFD1FF0938A026C
:103C7000E093890289E892E0F801DF91CF911F91EA
:103C80000F910994DF91CF911F910F91089588238F
:103C900011F0FA0101C0FB010994CF93DF93C82F03
:103CA000D62F0E94C1188C1740F00E94C1188D17A2
:103CB00020F4DF91CF910C944B1D8C2FDF91CF918D
:103CC0000C945B1D1F93CF93DF93FB0112811111A5
:103CD000C3C0EC010E94C70C8272CD3CFCE5DF073B
:103CE00009F49AC0A8F5C73CECE5DE0709F476C0F4
:103CF000A8F4C43C9CE5D90709F45FC028F4C33C90
:103D0000DC4509F457C054C0C53C9CE5D90709F40B
:103D100059C0C63CDC4509F45CC04AC0CA3CFCE55D
:103D2000DF0709F46AC050F4C83CECE5DE0709F48B
:103D30005AC0C93CDC4509F45BC03AC0CB3C9CE5A9
:103D4000D90709F45FC0CC3CDC4509F460C030C041
:103D5000C23DFCE5DF0709F46FC088F4CF3C9CE569
:103D6000D90709F460C008F45CC0C03DFCE5DF077A
:103D700009F45CC0C13DDC4509F45BC019C0C53D18
:103D80009CE5D90709F460C050F4C33DFCE5DF07AA
:103D900009F455C0C43DDC4509F454C009C0C63D12
:103DA0009CE5D90709F455C0CE35DD4509F454C06A
:103DB00011E052C00E94661D4FC048E55DE16BE412
:103DC0007DE104C04BE45DE168E57DE10E94471EB2
:103DD00043C04FE75AE162E77AE1F8CF42E75AE1A0
:103DE0006FE77AE1F3CF4DE95AE16EE87AE1EECF81
:103DF0004EE85AE16DE97AE1E9CF4BEB5AE16CEA22
:103E00007AE1E4CF4CEA5AE16BEB7AE1DFCF44EFA1
:103E100058E16DED78E1DACF4DED58E164EF78E1EE
:103E2000D5CF81E017C065E082E010C068E086E091
:103E30000DC06EE089E00AC064E18FE007C067E171
:103E400085E104C088E106C062E289E10E944D1E5E
:103E500003C083E20E945B1D812FDF91CF911F91F0
:103E60000895539A2BB1277F3BB138604FB7F89430
:103E7000FC01CB01880F991F680F791F6E0F7F1F00
:103E8000E617F70789F0819198E03BB9000000C080
:103E900087FF2BB9880F000000C000C000C02BB9FD
:103EA00000C09A9591F7ECCF4FBF8FE594E0019752
:103EB000F1F700C0000008950895FC01680F791F14
:103EC0008FEF91E3E617F70771F02191822728E041
:103ED00030E087FF03C0880F892701C0880F215079
:103EE0003109B9F7EFCF08950F931F93CF93DF9365
:103EF000C42FD22FFC0182818823C9F040939602FF
:103F00000E943E25909395028093940280E28C0F4C
:103F1000883008F057C0C77081E001C0880FCA958B
:103F2000EAF7DF91CF911F910F910C94DA04809101
:103F30009602481330C080919402909195020E949D
:103F40005625883C910538F510E21D0FCD17B9F0C4
:103F500080E28C0F883040F4C77081E001C0880F88
:103F6000CA95EAF70E94E104183028F581E09D2FF8
:103F7000977001C0880F9A95EAF70E94DA04802FA3
:103F80000E94D1041830F0F4D77081E001C0880F8E
:103F9000DA95EAF70AC080E28C0F883098F4C7708F
:103FA00081E001C0880FCA95EAF7DF91CF911F9198
:103FB0000F910C94E104802FDF91CF911F910F910D
:103FC0000C94D104DF91CF911F910F9108950F931D
:103FD0009C01CB01243F4CE5340731F188F4293DA5
:103FE000FCE53F07D9F02A3D4CE5340779F1283D3F
:103FF0003C45A9F506E221EE41EE68ED7CE52BC0DB
:10400000263FFCE53F07E1F0A8F0273F3C4539F5A6
:1040100007E225EE46EE67EF7CE51DC007E225EEE0
:1040200045EE69ED7CE517C006E221EE40EE64EF57
:104030007CE511C007E225EE44EE65EF7CE50BC0A0
:1040400006E221EE42EE66EF7CE505C008E221E0E3
:1040500045EE6AED7CE50E94741F80E008C0FC011B
:104060008281882319F01092960201C081E00F919D
:104070000895CF93DF93EC01FB018281882309F43B
:1040800026C1C430FDE5DF0760F4CB3F9CE5D907CE
:1040900068F49E0122503C452431310508F018C1D6
:1040A00005C0C236EDE5DE0709F012C10E94920D8F
:1040B0009093AE028093AD02C031FCE5DF0709F4B6
:1040C000CAC008F041C0C8309CE5D90709F4A4C0B3
:1040D000F0F4C430FCE5DF0709F48CC068F4C230AA
:1040E0009CE5D90709F482C0C330DC4509F0E5C07E
:1040F0008091AD028260DFC0C630FCE5DF0709F4C5
:1041000083C008F085C08091AD028860D4C0CC30F7
:104110009CE5D90709F490C068F4CA30FCE5DF07D4
:1041200009F47EC008F084C00E945E078091AD0251
:104130008068C1C0CE309CE5D90709F481C008F081
:1041400086C08091AD0294C0CD3FFCE5DF0709F445
:104150007BC038F5C4319CE5D90709F49AC058F4FE
:10416000C231FCE5DF0709F47AC008F07EC0809117
:10417000AD028F7BA0C0CB3F9CE5D907F1F108F0E1
:104180003FC0C531DC4509F098C08091AD0282FB8B
:10419000222720F991E0922790FB82F990FB83F986
:1041A0008AC0C1308DE5D80709F467C050F480910A
:1041B000AE02CF3FECE5DE07C1F108F05BC08D7FBA
:1041C00065C0C3308DE5D80709F471C008F46DC02F
:1041D000C236DD4509F071C08091AD0284FB222713
:1041E00020F991E0922790FB84F965C08091AD029F
:1041F000816061C08091AD0216C08091AE0216C090
:104200008091AE02826042C08091AD02806153C055
:104210008091AD0280624FC08091AD0280644BC03E
:104220008091AD028860846046C0826081602EC04B
:104230008091AD028E7F3FC08091AD028D7F3BC0EB
:104240008091AD02877F37C08091AE0214C080910B
:10425000AD028F7E30C08091AD028F7D2CC00E9458
:104260005E078091AD028F7726C08091AD02877F77
:104270008B7F21C08D7F8E7F09C08091AE02982FE9
:10428000909591708E7F892B90FB81F98093AE027F
:1042900014C00E945E078091AD0287FB222720F99F
:1042A00091E0922790FB87F906C081E001C080E091
:1042B0000E94290E02C08093AD028091AD029091C0
:1042C000AE020E94A30D0E945E0780E001C081E063
:1042D000DF91CF910895CF93DF9386319C4541F5CF
:1042E000EB010E94C70C982F8A8120910001309128
:1042F0000101882379F09A7A81E009F480E08093C3
:104300009702911102C069E201C065E3C9010E94F0
:104310005D240AC080919702811102C069E201C048
:1043200065E3C9010E945F240E940C0D80E001C07A
:1043300081E0DF91CF9108958EE14A9B02C08150C8
:10434000E1F74A9BFECF08955A9880E28A95F1F7EB
:104350005A9A0895FC012AE02A95F1F728E090E0A6
:1043600080E031E040E14A95F1F7880F4A9B02C0B6
:104370008160932700C0000040E14A95F1F7215089
:1043800089F720E12A95F1F729B100C0000030E15A
:104390003A95F1F722FB222720F992272081920FEC
:1043A00090830895EF92FF920F931F93CF93DF9323
:1043B0001F92CDB7DEB719828C017C01E60EF11C8D
:1043C0000E151F0551F00E949C21CE0101960E94FE
:1043D000AA21F80181938F01F3CF81E09981911196
:1043E00080E00F90DF91CF911F910F91FF90EF90A0
:1043F0000895529A5A9A089552985A9AEA9AE9E672
:10440000F0E080818F7C80830895615091E001C04D
:10441000990F6A95EAF720E031E0992361F0492F7E
:10442000482319F05A9A232701C05A9840E24A9526
:10443000F1F79695F2CF222311F05A9A01C05A98BB
:1044400080E28A95F1F75A980895FF920F931F938F
:10445000CF93DF93EC018C01060F111DC017D1071C
:1044600041F0F9900E94A42168E08F2D0E9405225E
:10447000F5CFDF91CF911F910F91FF9008951F927B
:104480000F920FB60F921124EF92FF920F931F938A
:104490002F933F934F935F936F937F938F939F934C
:1044A000AF93BF93EF93FF93CF93DF931F92CDB75B
:1044B000DEB719820E949C21CE0101960E94AA219A
:1044C000A82FA695A695A6959A2F969595702A2F12
:1044D0002570920F292F237096959695920F8770CD
:1044E00089137CC08981811179C0A43008F076C01D
:1044F00080E18A95F1F75A9A529AB2E0BA95F1F7AB
:1045000000C05A98EA2EF12CEAE0AE9FD0011124A7
:10451000AD5FBE4F1896ED91FC9119973097B1F0B1
:104520006091B6017091B70116962D913C91179745
:10453000260F371F13968D919C911497680F791F42
:1045400015964C91159712968C9109958AE08E9D3F
:10455000F0018F9DF00D1124ED5FFE4F6581662304
:1045600051F08091B6019091B70126813781820F79
:10457000931F0E9425220E94A421F0E1FA95F1F7F1
:104580005A9852985A9A80E18A95F1F78AE08E9D5E
:1045900080018F9D100D11240D5F1E4FD8011296C2
:1045A0006C911297662399F08091B6019091B701B2
:1045B00013962D913C911497820F931F0E94D22144
:1045C000D801ED91FC91811105C082E004C0D801B1
:1045D000ED91FC9188E080830E949C210F90DF91F7
:1045E000CF91FF91EF91BF91AF919F918F917F916B
:1045F0006F915F914F913F912F911F910F91FF907C
:10460000EF900F900FBE0F901F9018950F931F9370
:10461000CF93DF93843091050CF0A9C02AE0289F46
:10462000F001299FF00D1124ED5FFE4F20813181B3
:10463000232B09F49CC0EC01F894529A5A9885E017
:104640008A95F1F700008C2F869585709C2F9570C8
:10465000890F982F9370869586958E0123E0000F21
:10466000111F2A95E1F7890F082B0E94A421A4E0CD
:10467000AA95F1F700C068E0802F0E940522B0E102
:10468000BA95F1F752985A9A4A9902C000C0FCCFE5
:1046900087E090E04A9B17C0019799F4529A5A9A82
:1046A0008AE08C9FF0018D9FF00D1124ED5FFE4F8D
:1046B0000190F081E02D81E08083789481E090E0AA
:1046C00058C000C0E7CF8AE08C9F80018D9F100DFD
:1046D00011240D5F1E4FF80165816623B9F08091AA
:1046E000B6019091B70126813781820F931F0E94F6
:1046F000D22181110BC0529A5A9AD801ED91FC91A6
:1047000082E08083789482E090E033C00E949C2114
:10471000B0E2BA95F1F75A98529AE0E1EA95F1F7CA
:104720008AE08C9FF0018D9FF00D1124ED5FFE4F0C
:104730006281662351F08091B6019091B701238187
:104740003481820F931F0E9425220E94A4218AE0B7
:104750008C9FF0018D9FF00D1124ED5FFE4F0190B5
:10476000F081E02D1082789480E090E002C084E037
:1047700090E0DF91CF911F910F91089590939E0249
:1047800080939D0208950E940C13811103C08091B3
:1047900098020895E0919D02F0919E02309721F0D9
:1047A0000190F081E02D099480E00895E0919D0250
:1047B000F0919E02309721F00280F381E02D099460
:1047C0000895E0919D02F0919E02309739F022E029
:1047D000DC012C930480F581E02D0994089520914B
:1047E0009B0230919C022817390771F090939C022C
:1047F00080939B02E0919D02F0919E02309721F000
:104800000680F781E02D0994089520919902309156
:104810009A022817390771F090939A0280939902AF
:10482000E0919D02F0919E02309721F00084F18585
:10483000E02D09940895FC01329697E080E09150B4
:1048400029F021912223D9F38F5FF9CF08956623B0
:1048500049F0FC01329608962191621729F0E81779
:10486000F907D1F780E0089581E008959C01FC01EB
:1048700032969FEF80E04191461789F09F3F19F4EF
:10488000411101C0982F8F5F8630A9F79F3F39F003
:10489000F901E90FF11D97FDFA95628308950895D6
:1048A0009C012A5F3F4FFC014281461301C01282E6
:1048B000019682179307B9F708950C9436240C9447
:1048C0005024029626E0FC0111922A95E9F70895FA
:1048D0001092F7021092F8021092F9021092FA0266
:1048E0000895CF92DF92EF92FF926B017C010E94BC
:1048F0000C1381110EC00E944A25C61AD70AE80A75
:10490000F90AC092F702D092F802E092F902F0920E
:10491000FA02FF90EF90DF90CF9008950F931F93CE
:104920000E940C13882321F01F910F910C944A25AB
:104930000E944A250091F7021091F8022091F90295
:104940003091FA02600F711F821F931F1F910F9108
:1049500008950E940C1381110C943E250E948E2410
:10496000CB010895089508950C94B3240C94B324B6
:10497000CF930E94B6240E9481120E94B424C0E00A
:104980008C2F0E945011811104C0CF5FC830C1F735
:1049900001C081E0CF9108950C94B3240C94CC24F1
:1049A00080910303843059F10E94CE2480E00E945C
:1049B0004F030E94DF1C10929F0220E488E190E0E8
:1049C0000FB6F894A895809360000FBE2093600006
:1049D00083B7817F846083BF83B7816083BF78940E
:1049E000889583B78E7F83BF0FB6F894A895809182
:1049F0006000886180936000109260000FBE08958F
:104A00000C94B3240E945E070E94C3230E944F03AC
:104A10000E94AB1D0C9400251F920F920FB60F92AF
:104A200011248F939F93AF93BF9380919F02811125
:104A300013C08091FB029091FC02A091FD02B09105
:104A4000FE024196A11DB11D8093FB029093FC02D2
:104A5000A093FD02B093FE02BF91AF919F918F9101
:104A60000F900FBE0F901F90189582E084BD93E0C9
:104A700095BD9AEF97BD80936E0008952FB7F89477
:104A80008091FB029091FC02A091FD02B091FE0288
:104A90002FBF08952FB7F8946091FB027091FC022C
:104AA0008091FD029091FE022FBF08959C014FB7A7
:104AB000F8948091FB029091FC02A091FD02B091CC
:104AC000FE024FBF821B930B0895CF92DF92EF92AD
:104AD000FF922FB7F894C090FB02D090FC02E090B8
:104AE000FD02F090FE022FBFA7019601261B370B97
:104AF000480B590BCA01B901FF90EF90DF90CF909E
:104B0000089578941F920F920FB60F9211248F93ED
:104B10009F93AF93BF938091FB029091FC02A09171
:104B2000FD02B091FE020196A11DB11D8093FB0212
:104B30009093FC02A093FD02B093FE02BF91AF914F
:104B40009F918F910F900FBE0F901F90189587E740
:104B500097E790930108809300089AE088E10FB6E8
:104B6000F894A895809360000FBE90936000FFCFEB
:104B70009093DF018093DE0108958091AB02089548
:104B800090910303943031F58093A0027093A202B8
:104B90006093A10282E08093E9008FEF9091E8009A
:104BA000815095FD06C095ED9A95F1F700008111B1
:104BB000F5CF8091E80085FF0DC040E050E063E054
:104BC00070E080EA92E00E94D0278091E8008E7722
:104BD0008093E8000895BC0184E00C94C025BC01DA
:104BE00083E00C94C02522E02093E9002FEF309160
:104BF000E800215035FD06C035ED3A95F1F700008B
:104C00002111F5CF2091E80025FF0BC040E050E0D6
:104C100066E070E00E94D0278091E8008E77809354
:104C2000E8000895CF93DF9321E02093E9002FEF70
:104C30003091E800215035FD06C035ED3A95F1F789
:104C400000002111F5CF2091E80025FF14C0EC01F0
:104C500040E050E068E070E00E94D0278091E800DA
:104C60008E778093E80088E0FE01A3EAB2E001902D
:104C70000D928A95E1F7DF91CF910895809102031B
:104C8000811109C00E9461290E94BE298091E20021
:104C900084608093E20008951092020308950895BD
:104CA0000895089542E061EC81E00E94DA2842E232
:104CB00061EC82E00C94DA2880910503833009F4DA
:104CC00060C030F4813071F0823009F499C00895E9
:104CD0008A3009F485C08B3009F46BC0893009F043
:104CE000A7C020C080910403813A09F0A1C080913F
:104CF000E800877F8093E800809108039091090382
:104D0000892B21F468E083EA92E003C060E080E050
:104D100090E070E00E941B288091E8008B778093E0
:104D2000E800089580910403813209F081C08091E8
:104D3000080390910903029708F07AC08091E80077
:104D4000877F8093E8008091E80082FD05C0809114
:104D500003038111F8CF6CC02091F3008091F20021
:104D600090E0922B029729F48091F1008B7F8130A3
:104D700021F48091F1008093AB028091E8008B7761
:104D800053C080910403813A09F052C08091080316
:104D900090910903892B09F04BC08091E800877F2F
:104DA0008093E8008091E80080FFFCCF809146016D
:104DB00036C0809104038132D9F580910803909127
:104DC0000903892BA9F58091E800877F8093E8008B
:104DD0000E940F2980910603809346010C945E0780
:104DE00080910403813221F58091E800877F8093D0
:104DF000E8000E940F29809107038093AC02089578
:104E000080910403813AA1F48091E800877F809328
:104E1000E8008091E80080FFFCCF8091AC02809395
:104E2000F1008091E8008E778093E8000C940F29C0
:104E3000089584B7877F84BF0FB6F894A8958091B2
:104E40006000886180936000109260000FBE90E067
:104E500080E80FB6F89480936100909361000FBED4
:104E60000C94570E0E9461290E94BE29E2EEF0E0E8
:104E700080818460808378940E94532C0E94650E08
:104E80008CE391E00C94BE23809103038530A9F458
:104E900080910303853079F40E94D024809101032E
:104EA0008823B1F30E94B824882391F30E94BA2783
:104EB0000E945E07EDCF0E9402250C94710E0C94A7
:104EC0006127292F332723303105C9F060F42130C1
:104ED000310581F02230310509F044C08BE390E0C8
:104EE0002DE633E043C021323105E1F022323105B5
:104EF00049F138C082E190E028EA33E037C09927D1
:104F00008130910549F028F0029761F5E1E4F3E082
:104F100005C0E9E6F3E002C0E3E5F3E0849190E048
:104F20009F0124C06115710541F061307105D1F414
:104F300089E090E028E933E019C089E090E02FE7AC
:104F400033E014C06115710541F06130710551F411
:104F50008BE790E02AEB33E009C080E490E025E3A2
:104F600034E004C080E090E020E030E0FA013183DA
:104F70002083089580E189BD82E189BD09B400FEE6
:104F8000FDCF8091D8008F7D8093D8008091E00084
:104F900082608093E0008091E00081FDFCCF089565
:104FA000CF92DF92EF92FF920F931F93CF93DF93F5
:104FB000EC018B017A010E942E29811133C0E1148A
:104FC000F10439F0F70180819181081B190BC80F9A
:104FD000D91FC12CD12C0115110519F18091E800C0
:104FE00085FD16C08091E8008E778093E800E1147B
:104FF000F10449F0F70180819181C80ED91ED18258
:10500000C08285E00FC00E942E29882321F30AC0A8
:1050100089918093F10001501109FFEFCF1ADF0A47
:10502000DACF80E0DF91CF911F910F91FF90EF9049
:10503000DF90CF90089520910A0330910B0326173B
:10504000370748F06115710539F42091E8002E7793
:105050002093E80001C0B901FC0120E06115710551
:1050600079F1809103038823F1F18530F1F180918A
:10507000E80083FD3CC08091E80082FD2EC0809155
:10508000E80080FFEBCF2091F3008091F20090E0E8
:10509000922B6115710551F08830910538F42191FA
:1050A0002093F100615071090196F3CF21E0089738
:1050B00009F020E08091E8008E778093E800CECF61
:1050C0002111CFCF0AC080910303882361F085307E
:1050D00061F08091E80083FD0AC08091E80082FFC2
:1050E000F2CF80E0089582E0089583E0089581E0A2
:1050F000089520910A0330910B032617370748F0D3
:105100006115710539F42091E8002E772093E800AD
:1051100001C0B901FC0120E06115710591F1809198
:105120000303882309F440C0853009F43FC080910F
:10513000E80083FD3DC08091E80082FD2FC0809192
:10514000E80080FFE9CF2091F3008091F20090E029
:10515000922B6115710559F08830910540F4249126
:105160002093F1003196615071090196F2CF21E050
:10517000089709F020E08091E8008E778093E8009E
:10518000CBCF2111CCCF0AC080910303882361F0DB
:10519000853061F08091E80083FD0AC08091E800CD
:1051A00082FFF2CF80E0089582E0089583E00895C1
:1051B00081E00895982F973068F59093E90098174B
:1051C00039F07091EC002091ED005091F00003C097
:1051D000242F762F50E021FD02C09F5FECCF30914D
:1051E000EB003E7F3093EB003091ED003D7F30933C
:1051F000ED003091EB0031603093EB007093EC00E8
:105200002093ED005093F0002091EE0027FDE5CFB4
:1052100080E008958F708093E90081E00895809187
:10522000040387FF11C08091E80082FD05C08091D2
:1052300003038111F8CF11C08091E8008B770BC078
:1052400080910303882349F08091E80080FFF8CF24
:105250008091E8008E778093E80008952091E40023
:105260003091E50095E64091EC00842F817040FF7D
:1052700023C08091E80080FD1DC080910303882336
:1052800099F0853099F08091EB0085FD11C0409137
:10529000E4005091E5002417350729F3915011F0EF
:1052A0009A01E1CF84E0089582E0089583E00895B3
:1052B00081E0089580E008954091E80042FFDDCF4D
:1052C00008950E94CF290E94D729E0EEF0E0808166
:1052D00081608083E8EDF0E080818F77808319BC66
:1052E000A7EDB0E08C918E7F8C9380818F7E808340
:1052F0001092020308950F931F93CF93DF930E94A0
:10530000CF290E94D729C8EDD0E088818F77888384
:1053100088818068888388818F7D888319BC1092FA
:1053200003031092FF02109201031092000300EE9B
:1053300010E0F80180818B7F808388818160888381
:1053400042E060E080E00E94DA28E1EEF0E0808157
:105350008E7F8083E2EEF0E08081816080838081B7
:1053600088608083F80180818E7F8083888180615E
:105370008883DF91CF911F910F910895E8EDF0E0C0
:1053800080818F7E8083E7EDF0E080818160808383
:1053900084E082BF81E0809302030C947B29E8EDD6
:1053A000F0E080818E7F80831092E2000895109259
:1053B000DA001092E10008951F920F920FB60F923B
:1053C00011242F933F934F935F936F937F938F930A
:1053D0009F93AF93BF93EF93FF938091E10082FF80
:1053E0000BC08091E20082FF07C08091E1008B7FBB
:1053F0008093E1000E94522C8091DA0080FF1FC050
:105400008091D80080FF1BC08091DA008E7F80934E
:10541000DA008091D90080FF0DC080E189BD82E172
:1054200089BD09B400FEFDCF81E0809303030E9493
:105430003E2605C019BC109203030E944C268091A1
:10544000E10080FF19C08091E20080FF15C08091CB
:10545000E2008E7F8093E2008091E2008061809381
:10546000E2008091D80080628093D80019BC85E06A
:10547000809303030E9450268091E10084FF30C096
:105480008091E20084FF2CC080E189BD82E189BD6A
:1054900009B400FEFDCF8091D8008F7D8093D800A5
:1054A0008091E1008F7E8093E1008091E2008F7E09
:1054B0008093E2008091E20081608093E20080911D
:1054C000FF02882311F084E007C08091E30087FD8C
:1054D00002C081E001C083E0809303030E94512653
:1054E0008091E10083FF29C08091E20083FF25C005
:1054F0008091E100877F8093E10082E08093030345
:105500001092FF028091E1008E7F8093E1008091F4
:10551000E2008E7F8093E2008091E20080618093C0
:10552000E20042E060E080E00E94DA288091F00032
:1055300088608093F0000E944F26FF91EF91BF9109
:10554000AF919F918F917F916F915F914F913F911B
:105550002F910F900FBE0F901F9018951F920F92D2
:105560000FB60F9211242F933F934F935F936F9336
:105570007F938F939F93AF93BF93CF93DF93EF93DB
:10558000FF93C091E900CF708091EC00D82FD170CB
:1055900080FDD0E81092E9008091F000877F809331
:1055A000F00078940E94F22A1092E9008091F000B5
:1055B00088608093F000CD2BCF70C093E900FF91FD
:1055C000EF91DF91CF91BF91AF919F918F917F919B
:1055D0006F915F914F913F912F910F900FBE0F9060
:1055E0001F9018951F93CF93DF93CDB7DEB7AA977F
:1055F0000FB6F894DEBF0FBECDBFE4E0F3E08091BC
:10560000F100819323E0EC30F207C9F70E945C2699
:105610008091E80083FF2EC18091040390910503DF
:10562000492F50E04A30510508F024C1FA01E059F1
:10563000FF4F0C941330803821F0823809F01AC1E2
:1056400008C08091000390910103992389F0826042
:105650000FC0809108038F70873008F00BC18093D2
:10566000E9008091EB0085FB882780F91092E90022
:105670009091E800977F9093E8008093F10010925A
:10568000F100D1C0282F2D7F09F0F4C0882319F034
:10569000823061F0EFC080910603813009F0EAC0EA
:1056A000933009F080E0809301032EC080910603BF
:1056B00081112AC0809108038F702FEF280F2630A8
:1056C00008F0D8C08093E9002091EB0020FF1CC0B7
:1056D000933021F48091EB00806214C09091EB0034
:1056E00090619093EB0021E030E0A90102C0440FEB
:1056F000551F8A95E2F74093EA001092EA008091E4
:10570000EB0088608093EB001092E9008091E80044
:10571000877F8093E8000E940F29ACC08111AAC046
:10572000109106031F778091E3008078812B80938E
:10573000E3008091E800877F8093E8000E940F29B2
:105740008091E80080FFFCCF8091E3008068809327
:10575000E300111102C082E001C083E080930303E3
:1057600089C08058823008F085C0809106039091EE
:1057700007038C3D53E0950779F583E08A838AE23D
:1057800089834FB7F894DE01139620E03EE051E2A2
:10579000E32FF0E050935700E49120FF03C0E2951F
:1057A000EF703F5FEF708E2F90E0EA3010F0C796F9
:1057B00001C0C0968D939D932F5F243149F74FBF51
:1057C0008091E800877F8093E8006AE270E0CE0174
:1057D00001960E941B2816C060910803709109036E
:1057E000AE014F5F5F4F0E945F27BC01892B09F418
:1057F00041C09091E800977F9093E80089819A8159
:105800000E9479288091E8008B778093E80032C06D
:10581000803881F58091E800877F8093E80080914F
:10582000FF028093F1008091E8008E7772CF8111A2
:1058300021C0809106039091070399270297D4F421
:105840008091E800877F8093E80080910603809331
:10585000FF020E940F298091FF02811106C08091F2
:10586000E30087FD02C081E001C084E08093030370
:105870000E9452268091E80083FF0AC08091E800D0
:10588000877F8093E8008091EB0080628093EB003B
:10589000AA960FB6F894DEBF0FBECDBFDF91CF91B1
:1058A0001F9108950895CF93809103038823A1F059
:1058B000C091E900CF709091EC00892F817090FD2C
:1058C00080E8C82B1092E9008091E80083FD0E94D7
:1058D000F22ACF70C093E900CF9108950E94612908
:1058E000109203030895E8EDF0E0808180618083E9
:1058F0008AE18A95F1F700C08091D90081700895FE
:105900005058BB27AA270E94982C0C94432E0E9423
:10591000352E38F00E943C2E20F039F49F3F19F4C8
:1059200026F40C940B2E0EF4E095E7FB0C94052E58
:10593000E92F0E94542E58F3BA17620773078407A1
:10594000950720F079F4A6F50C94762E0EF4E095E8
:105950000B2EBA2FA02D0B01B90190010C01CA0129
:10596000A0011124FF27591B99F0593F50F4503ED4
:1059700068F11A16F040A22F232F342F4427585FC6
:10598000F3CF469537952795A795F0405395C9F7DE
:105990007EF41F16BA0B620B730B840BBAF0915096
:1059A000A1F0FF0FBB1F661F771F881FC2F70EC035
:1059B000BA0F621F731F841F48F487957795679508
:1059C000B795F7959E3F08F0B0CF9395880F08F0F4
:1059D0009927EE0F9795879508950E94012D0C94B5
:1059E000432E0E943C2E58F00E94352E40F029F4A0
:1059F0005F3F29F00C94052E51110C94772E0C94D6
:105A00000B2E0E94542E68F39923B1F3552391F382
:105A1000951B550BBB27AA2762177307840738F01D
:105A20009F5F5F4F220F331F441FAA1FA9F335D07A
:105A30000E2E3AF0E0E832D091505040E695001C2E
:105A4000CAF72BD0FE2F29D0660F771F881FBB1FE8
:105A5000261737074807AB07B0E809F0BB0B802DC6
:105A6000BF01FF2793585F4F3AF09E3F510578F0F2
:105A70000C94052E0C94772E5F3FE4F3983ED4F3FC
:105A8000869577956795B795F7959F5FC9F7880FC6
:105A9000911D9695879597F90895E1E0660F771F18
:105AA000881FBB1F621773078407BA0720F0621BA9
:105AB000730B840BBA0BEE1F88F7E095089529F459
:105AC00016F00C94052E0C94762E0C940B2E0E943E
:105AD0005C2EA8F39638A0F707F80F92E8942BE312
