:100000000C94C7020C940E030C940E030C946227FC
:100010000C940E030C940E030C940E030C940E031C
:100020000C940E030C940E030C94B32F0C94853097
:100030000C942F2A0C940E030C940E030C940E03B4
:100040000C940E030C940E030C940E030C940E03EC
:100050000C940E030C94A42A0C940E030C940E031F
:100060000C940E030C940E030C940E030C940E03CC
:100070000C940E030C940E030C940E030C940E03BC
:100080000C940E030C940E030C940E030C940E03AC
:100090000C940E030C940E030C940E030C940E039C
:1000A0000C940E030C940E030C940E03AB06AB06DB
:1000B000DD06DD062A0748072B082B085307BB0778
:1000C000CC07CC07CB08CB08DD08DD08D408DD0859
:1000D000DD08DD08CB08CB08D908DD08DD08D90824
:1000E000552258227822892291229C229F22A222E4
:1000F000A522EB22EB22A822AB22B022BD22CA22EB
:10010000CD22D122DE22F2301931113219311132D1
:10011000653188311132DF31EE3107634236B79BEA
:10012000D8A71A39685618AEBAAB558C1D3CB7CC57
:100130005763BD6DEDFD753EF6177231BF000000CF
:10014000803F05A84CCDB2D44EB93836A9020C5028
:10015000B9918688083CA6AAAA2ABE000000803F62
:1001600014001A000800150017000400160007000C
:1001700009000A001D001B00060019000500E00030
:10018000E300E2002C4100001C0018000C001200EB
:1001900013000B000D000E000F00280011001000CE
:1001A000364D370000002C422C622A41000000002E
:1001B0001E001F002000210022001E021F0220023C
:1001C0002102220257005600550054006700E0004B
:1001D000E300E2002C62000023002400250026003A
:1001E0002700230224022502260227023500890067
:1001F0002F12301200002C422D00000000000000E1
:100200003A003B003C003D003E001F02310033003D
:1002100033123400C25CC35CC55CC65CC75CCA5C9C
:10022000CB5CCC5C2D1200003F004000410042003E
:1002300043005000510052004F002D02C85CC95CC1
:100240002F0030000000D55C2C002A410000000087
:1002500000000000000000002A2B28000000000021
:100260000000000000000000000000290000000065
:100270002C1E3420212224342627252E362D3738D3
:10028000271E1F202122232425263333362E3738DC
:100290001F0405060708090A0B0C0D0E0F1011129A
:1002A000131415161718191A1B1C1D2F3130232D66
:1002B000350405060708090A0B0C0D0E0F10111264
:1002C000131415161718191A1B1C1D2F3130354C15
:1002D000000000000000000000000000000000001E
:1002E000000000000000000000000000000000000E
:1002F000000000007E0F00D4FFFFFFC70000007861
:1003000000047F3F1F643214643214783C1E1E14B4
:100310000A05FFAA7F554000010101010101010109
:1003200001020202020202020202030303030303A8
:100330000303040404040404040505050505060676
:100340000606060707070707080808080909090934
:100350000A0A0A0B0B0B0C0C0C0D0D0D0E0E0E0FDA
:100360000F0F10101111111212131314141515166A
:10037000161717181819191A1A1B1B1C1D1D1E1EDB
:100380001F2020212222232424252626272829292C
:100390002A2B2C2D2D2E2F30313232333435363757
:1003A00038393A3B3C3D3E3F404142434445464755
:1003B00048494A4C4D4E4F50515354555658595A2E
:1003C0005B5D5E5F616264656668696B6C6D6F70D2
:1003D00072737577787A7B7D7E8082838587888A41
:1003E0008C8E8F91939596989A9C9EA0A2A3A5A778
:1003F000A9ABADAFB1B3B5B7BABCBEC0C2C4C6C974
:10040000CBCDCFD1D4D6D8DBDDDFE2E4E7E9EBEE2C
:10041000F0F3F5F8FAFDFF100363006F006F006C56
:100420000039003300360000001403740065006CCE
:10043000007A006F0032003000300030000000040D
:1004400003090409025B00030100A0FA090400008B
:1004500001030101000921110100012240000705EB
:10046000810308000A0904010002030000000921B9
:100470001101000122220007058203200001070567
:100480000303200001090402000103000000092108
:1004900011010001227B000705840320000A1201DC
:1004A000000200000008434D36090100010200016E
:1004B0000660FF0961A1010962150026FF00952071
:1004C000750881020963150026FF009520750891C3
:1004D00002C005010902A10185020901A100050967
:1004E00019012908150025019508750181020501EA
:1004F000093009311581257F950275088106093873
:100500001581257F950175088106050C0A380215AD
:1005100081257F950175088106C0C005010980A16C
:1005200001850319012AB700150126B70095017549
:10053000108100C0050C0901A101850419012AA040
:1005400002150126A002950175108100C005010960
:1005500006A101050719E029E71500250195087591
:100560000181029501750881010507190029FF1510
:100570000026FF0095067508810005081901290568
:10058000950575019102950175039101C000112433
:100590001FBECFEFDAE0DEBFCDBF04B603FE27C03B
:1005A0008091240390912503A0912603B091270305
:1005B0008730904BA740B04BD1F410922403109297
:1005C0002503109226031092270314BE84B7877F59
:1005D00084BF0FB6F894A8958091600088618093DD
:1005E0006000109260000FBEE0E0F8E3099511E0B2
:1005F000A0E0B1E0EAE2FDE602C005900D92A63F60
:10060000B107D9F723E0A6EFB1E001C01D92A432F3
:10061000B207E1F70E9429160C9493360C9400005F
:1006200081E0089581E008950C94120308950C94DC
:1006300016031F93CF93DF9300D000D01F92CDB746
:10064000DEB749835A836B833091F80189819A819F
:10065000311114C0662359F0222349F00E94C309C6
:10066000182F682F89819A810E946A0903C00E940D
:100670009609182F69817A81812F04C00E94C309CD
:1006800069817A810F900F900F900F900F90DF91FA
:10069000CF911F910C94BD23FC01262F40815181E5
:1006A0006281738184810C94190381E00895CF9352
:1006B000DF93EC0160E00E944C03BE01DF91CF911B
:1006C0000C941703E1E0F0E0DF0102C0AA0FBB1FAA
:1006D0006A95E2F7BD01DF0102C0AA0FBB1F4A9570
:1006E000E2F7AD01462B01C0EE0F2A95EAF7942FF1
:1006F0009823491302C08E2B0895E0958E23089508
:10070000242F462F682F809108020E9462030C94C8
:1007100027090E94B2110E94DA040C94E2110C9491
:10072000DE1108950E94B9080E9491032FEF84E31F
:100730009CE0215080409040E1F700C000000C9404
:10074000CA2A0F931F93CF93DF938C0161E00E941D
:100750004C03EC01B8010E94AD21882309F44BC081
:10076000B801CE010E941403882309F444C0B801E3
:10077000CE010E940A258823F1F1B801CE010E9422
:100780005C258823C1F1B801CE010E948E26882302
:1007900091F1B801CE010E945620882361F1F80141
:1007A0008281882309F1CA358DE5D807C1F050F45C
:1007B000C115FCE5DF0781F0CE3DDC45A9F40E94C0
:1007C000BE0E19C0CB35EDE5DE0761F0CC35DD4559
:1007D00059F40E94500D08C00E9492030CC00E9460
:1007E000590D02C00E945C0DC801DF91CF911F918D
:1007F0000F910C94100380E0DF91CF911F910F9126
:100800000895DF92EF92FF920F931F93CF93DF93A0
:10081000E82FF0E0E05BFD4FD490282F2695269539
:10082000269530E0F901E051FD4F0491877010E00A
:10083000082E02C0159507950A94E2F7017011275A
:10084000F901E052FD4FE490F12C082E02C0F5941E
:10085000E7940A94E2F791E0E922FF24F901E053DA
:10086000FD4FC491D0E002C0D595C7958A95E2F7B7
:10087000C170DD270115110519F081EE0E943405C4
:10088000E114F10419F086EE0E9434058D2D0E94CA
:100890005D06EF2819F086EE0E94DE05012B19F0A7
:1008A00081EE0E94DE05CD2B51F08CE2DF91CF91DD
:1008B0001F910F91FF90EF90DF900C945D06DF91F8
:1008C000CF911F910F91FF90EF90DF900895EF92DD
:1008D000FF920F931F93CF93DF93EC01162F0AE043
:1008E0008881882309F455C0813009F043C089818B
:1008F000813041F47E0182E0E80EF11C8A810E9481
:100900005D0609C0823049F47E01E2E0EE0EF11C82
:100910008A810E943405E7012FC0833041F47E01B3
:10092000F2E0EF0EF11C8A810E94DE05F4CF8430E4
:1009300011F0219621C02A81229680E090E030E0DB
:10094000205331092A30310558F4089FA001099F2E
:10095000500D1124C901840F951F21962881EFCFD6
:10096000009751F0EFE9FFE03197F1F700C0000088
:100970000197F6CF0E9401042196812F882309F464
:10098000AFCFEFE9FFE03197F1F700C000008150F1
:10099000F5CFDF91CF911F910F91FF90EF900895C8
:1009A00060E00C94670408950C94D30481E00895EA
:1009B0000C94D6040895CF93C82F0E94D4048C2F92
:1009C0000E94D804CF910895CF93DF93CDB7DEB7BF
:1009D0002B970FB6F894DEBF0FBECDBF4F8358875D
:1009E00069877A878B8761110E947F0D9E012F5F37
:1009F0003F4F86E0F90111928A95E9F785E0FE0103
:100A00003796D90101900D928A95E1F789819A81F3
:100A10004C815D81452B31F09F3F31F491E08F3F58
:100A200019F403C091E001C090E090FF09C0498132
:100A30005A816B817C818D819E810E947F0C05C0D3
:100A4000C9010E9455038111F2CF2B960FB6F8947D
:100A5000DEBF0FBECDBFDF91CF910895FC01808135
:100A600091810E94F0090895CF93882309F4A4C0CE
:100A7000C82F8238C1F40E94E62881FD9DC069E339
:100A800080910001909101010E9480290E94A40D93
:100A90002FEF81EE94E0215080409040E1F700C0BC
:100AA000000069E319C0833801F50E94E62880FD43
:100AB00083C063E580910001909101010E9480292B
:100AC0000E94A40D2FEF81EE94E0215080409040D1
:100AD000E1F700C0000063E5809100019091010101
:100AE0000E948229CF910C94A40D8438C1F40E94F5
:100AF000E62882FD61C067E48091000190910101C8
:100B00000E9480290E94A40D2FEF81EE94E02150D5
:100B100080409040E1F700C0000067E4DDCF8CEF3B
:100B20008C0F813AD0F46C2F8091000190910101DB
:100B30000E944A29882349F06C2F809100019091EE
:100B400001010E9482290E94A40D6C2F8091000156
:100B5000909101010E948029C5CF80E28C0F8830DE
:100B600048F4C77081E001C0880FCA95EAF70E9477
:100B7000620DB8CFEBE5EC0FE33040F4F0E0E15864
:100B8000FE4F808190E0CF910C941229E8E5EC0FA4
:100B9000E73150F4F0E0EE0FFF1FEF5AFE4F808177
:100BA0009181CF910C942829C03F30F08C2F0E9466
:100BB000B616CF910C948817CF910895882309F425
:100BC00064C0823879F40E94E62881FF5EC069E340
:100BD00080910001909101010E9480290E94A40D42
:100BE00069E310C08338B1F40E94E62880FF4DC04D
:100BF00063E580910001909101010E9480290E948B
:100C0000A40D63E580910001909101010E94822969
:100C10000C94A40D843879F40E94E62882FF35C034
:100C200067E480910001909101010E9480290E9457
:100C3000A40D67E4E7CF9CEF980F913A10F4682F6A
:100C4000E1CF90E2980F983050F4877091E001C0A6
:100C5000990F8A95EAF7892F0E94680DD9CF9BE5F5
:100C6000980F933020F480E090E00C94122998E5DE
:100C7000980F973120F480E090E00C942829803F71
:100C800020F00E9411170C94881708951F93CF939A
:100C9000DF93182FEB010E943405209741F08FE974
:100CA0009FE00197F1F700C000002197F6CF812F58
:100CB000DF91CF911F910C94DE05893319F060E02C
:100CC00070E002C060E570E00C944606882321F0D5
:100CD0000E94620D0C94A40D0895882321F00E94B7
:100CE000680D0C94A40D0895CF92DF92EF92FF92BD
:100CF0000F931F93CF93DF937C01062FC72FFC0127
:100D0000D281158112951F700E94370D882399F0AA
:100D1000DD2389F08C2F807F803421F080E2800FEA
:100D2000883048F082E00E94F40D0E94370D91E077
:100D3000D82ED92601C0D12CCC2EC2948FE0C82247
:100D40008C2D90E08C30910508F085C1FC01EA5AA9
:100D5000FF4F0C94EA358C2F807FCF70882311F0E1
:100D6000C295C07FDD2399F0CC2309F460C180E2F5
:100D7000800F883010F0011104C08C2F0E94620D8A
:100D800003C08C2F0E94720D0E94A40D50C1802FB1
:100D90000E94DE05CC2309F45EC180E2800F88301A
:100DA00010F0011104C08C2F0E94680D03C08C2F1D
:100DB0000E94780D0E94A40D4EC18C2F807FCF70B1
:100DC000803211F0C295C07F002319F00130C9F0C4
:100DD00022C0DD2371F0112341F0113031F40E9463
:100DE000850D8C2B0E948D0D36C10E94850D8C2B9C
:100DF0001DC0112319F0113009F42DC10E949A0D64
:100E000025C0DD2321F0163008F025C10EC01530B5
:100E100008F021C11BC0DD2361F0112331F0F7017F
:100E2000858180FF04C18F7085838C2F0E946606A8
:100E300012C1112359F0093309F00AC1FFEF27EE5F
:100E400083E0F15020408040E1F700C18C2F0E94E8
:100E50006D0601C18C2F86958695837019F08130BF
:100E600061F0F9C0DD2321F0802F9C2F937002C028
:100E700080E090E00E941229F6C0DD2321F0802F4F
:100E80009C2F937002C080E090E00E942829EBC064
:100E9000802FDD2319F00E94B61602C00E941117A0
:100EA0000E948817E0C08C2F837079F5D111D7C0CC
:100EB000402F429546954770440F440F202F2F70C6
:100EC000042E01C0220F0A94EAF704FF08C08FE045
:100ED00090E001C0880F4A95EAF7809501C080E054
:100EE000C695C695C370822BC23049F058F4C13004
:100EF00019F00E941B09B3C00E941609B0C00E94DD
:100F00002009ADC00E941409AAC0DD2319F08C2F5E
:100F1000817001C08695882309F4A1C0402F4295B5
:100F200046954770440F440F202F2F70042E01C0A8
:100F3000220F0A94EAF704FF08C08FE090E001C096
:100F4000880F4A95EAF7809501C080E0C695C6955E
:100F5000C370822BC23049F058F4C13019F00E949E
:100F60005F097DC00E945A097AC00E94640977C057
:100F70000E94270974C0CF70DD2339F08C2F0E94A6
:100F80003809802F0E9466066AC0802F0E946D0675
:100F90008C2F0E94430963C0023F01F128F4003FF7
:100FA00041F0013FA1F03FC0033FF9F0043F39F1A8
:100FB0003AC0DD2341F0153008F04DC08C2F8F7101
:100FC0000E944F0948C0163008F045C0F7CFDD2316
:100FD00039F08C2F8F710E9438093DC0DD23C9F391
:100FE0008C2F8F710E94430936C0DD2329F08C2F8E
:100FF0008F710E9430092FC00E942D092CC0DD2363
:1010000049F0CF718C2F0E94380963E08C2F0E9429
:10101000D90D21C081E00E94F40D1230E0F082E091
:101020000E94F40D18C0DD2331F0112391F2802FBE
:101030000E94340510C0112399F2093349F49FEF3F
:10104000E7EEF3E09150E040F040E1F700C000002F
:10105000802F0E94DE0588EF8C0D843020F40E94E2
:10106000E6280E94DB04DD20C9F00E94330D80FDDC
:1010700015C0F70112820E942D0D0E943809C70188
:101080000E946F080E942D0DDF91CF911F910F914B
:10109000FF90EF90DF90CF900C944309DF91CF91B8
:1010A0001F910F91FF90EF90DF90CF9008950F93D5
:1010B0001F93CF93DF93EC01688179818A810E942D
:1010C000FB098C010E9469090E940809B801CE0140
:1010D0000E947406DF91CF911F910F910895CF93D5
:1010E000DF93EC01988189812B813C81232B31F0A6
:1010F0008F3F31F481E09F3F19F403C081E001C0CC
:1011000080E080FD19C0CE010E94A10381110CC0B6
:101110000E94370D882381F08A81882369F082E05C
:10112000DF91CF910C94F40DCE010E945708CE01AF
:10113000DF91CF910C945703DF91CF91089580E018
:1011400090E00E94122980E090E00E9428290E94ED
:101150007F0D0E94820D0E94A40D0E94B9180C946C
:10116000881780910001909101010E9484290C94BC
:101170009F080E946F0D0C94B108E92FE295EF7063
:101180004E2F50E0FA013297EE30F105B0F4EE59EF
:10119000FF4F0C94EA35803F91F018F4883E68F4D4
:1011A0000EC0843F51F40BC0883E48F0813F29F4C3
:1011B00006C093FB882780F9089580E0089581E0B8
:1011C0000895FC01808191810E94F0090E94BD0870
:1011D0000895CF93DF9300D000D01F92CDB7DEB734
:1011E0000F900F900F900F900F90DF91CF91089577
:1011F000CF93DF9300D000D000D0CDB7DEB72696D6
:101200000FB6F894DEBF0FBECDBFDF91CF9108952A
:10121000089508950C9409090C940A090E940C0978
:10122000809309020C949F080C940E099091090276
:10123000892B0C940E099091090289230C940E09B4
:101240009091090289270C940E090C9409090E94B7
:101250002509809308020C949F0880E00C942709CC
:1012600091E001C0990F8A95EAF7892F0C9427091C
:1012700021E030E001C0220F8A95EAF78091080250
:10128000822B0C94270921E030E001C0220F8A95BF
:10129000EAF720958091080282230C94270921E027
:1012A00030E001C0220F8A95EAF780910802822778
:1012B0000C94270990910802892B0C94270990918E
:1012C000080289230C9427099091080289270C941D
:1012D0002709089524E0929F900D1124890FE82F8B
:1012E000E695E695E695877051E001C0550F8A9521
:1012F000EAF783E0E89FF0011124E750FE4F20E079
:1013000030E070E04081CB01022E02C096958795B7
:101310000A94E2F78170819584278523842781933D
:101320002F5F3F4F2330310569F7089524E0929FE6
:10133000900D1124890F682F669566956695982FF4
:10134000977083E0689FB001112440E050E080E096
:10135000FB01E40FF51FE750FE4F208130E0092E1E
:1013600002C0369527950A94E2F721703327042EA0
:1013700001C0220F0A94EAF7822B4F5F5F4F433080
:10138000510531F70895CF92DF92FF920F931F938B
:10139000CF93DF936C010091080280910902082B22
:1013A000C7E0D0E010E0C8010C2E02C095958795EB
:1013B0000A94E2F780FD04C02197A8F7F12C07C03A
:1013C000FC2EB6018C2F0E94BC100197A9F38F2D23
:1013D000DF91CF911F910F91FF90DF90CF900895F3
:1013E000CF93DF93EC010E94C309BE010E94BC10A1
:1013F000DF91CF9108951F93CF93DF93EB019091ED
:10140000F801992321F0CB010E94F00913C0882331
:1014100049F0CB010E94C309182F682FCE010E940A
:101420006A0904C0CB010E949609182FBE01812FC2
:101430000E94BC10DF91CF911F9108951F93CF930D
:10144000DF93C0910A0216E080910B02C81799F051
:10145000D0E01C9FF0011D9FF00D1124E45FFD4FB3
:101460004081518162817381848195810E94F80855
:101470002196C770E9CFDF91CF911F9108954091D8
:101480003C0250913D0260913E0270913F0280917A
:101490004002909141020C94F8080F931F93CF9350
:1014A000DF938091410282958F7009F05DC0809139
:1014B0003E02882309F458C080910A0210910B0261
:1014C00060913C0270913D02C0913F02D091400278
:1014D00091E06F3F09F090E0292F06E0811709F4B1
:1014E00043C0209721F07F3F21F030E003C031E07E
:1014F00001C0322F90E030FD34C0089FF001099FF9
:10150000F00D1124DF01A45FBD4F11963C9111979E
:10151000371327C03C91361324C012963C91129782
:1015200031111FC013964D915C9114974C1B5D0BAC
:10153000483C5105B0F4809141028F7080618093E6
:101540004102EF5EFD4F80818F70806180838CE36C
:1015500092E00E946F08DF91CF911F910F910C9440
:101560001E0A01968770BACFDF91CF911F910F911C
:1015700008959F92AF92BF92CF92DF92EF92FF9227
:101580000F931F93CF93DF93CDB7DEB761970FB65D
:10159000F894DEBF0FBECDBF8C0185E0F801DE01FF
:1015A0001D9601900D928A95E1F7F801E2809091E5
:1015B0003C0260913D0220913F0230914002211592
:1015C000310531F06F3F31F481E09F3F19F403C0E2
:1015D00081E001C080E0F82FF1709F2E80FD3FC1B7
:1015E000F80140815181A380B4808CE3C82E82E051
:1015F000D82EF0903E02F501E21BF30BFF2009F418
:10160000D9C080914102E83CF10508F095C0282F2F
:10161000207F09F052C0561313C0491311C0FE2C8D
:10162000E1100EC08F708061809341020E943F0ADA
:10163000C6010E946F0880914102F80185834CC168
:10164000AB2831F05F3F31F481E04F3F19F403C024
:1016500081E001C080E080FD03C081E08E2502C0F2
:1016600080E090E0F82FF170FF2E80FF1CC0809189
:101670000A0220910B0236E0821709F40BC190E0B8
:10168000389FF001399FF00D1124E45FFD4F618117
:10169000561306C06081461303C06281E61203C080
:1016A00001968770E9CFFE2CEE2009F415C18091D8
:1016B000410281608093410254C0561306C0491311
:1016C00004C0E11002C0F80199C0C8010E94E108FD
:1016D000882361F1EE2051F120914102822F829501
:1016E0008F7090E0029774F080913C0290913D02DF
:1016F00098878F831986BB86AA862C87CE0107968A
:101700000E946F0886E0F801ACE3B2E001900D9210
:101710008A95E1F70E944D0A0E943F0A0AC05617B7
:1017200011F1C8010E94E10881112CC0C8010E947A
:101730006F08FF24F394D0C0282F207F81F77A2DE3
:10174000B98AA88A6E2D89890E94E9088CE392E003
:101750000E946F0886E0F60111928A95E9F70E94CF
:101760003F0AF12CB9C04913DCCFE110DACFF80100
:101770008583C8010E946F0886E0F60111928A9560
:10178000E9F7AAC0EE2091F220914102822F8295C2
:101790008F7090E002970CF4B5CF80913C0290914D
:1017A0003D029A8389831B82BD82AC822E83CE0147
:1017B0000196A6CFE83CF10508F044C0FE2CEE20CF
:1017C00009F4B4CF561330C049132EC02091410202
:1017D00020FD21C0822F82958F70482F50E0411547
:1017E0005105C9F0F80125834F30510541F08F5F55
:1017F000982F9295907F822F8F70892B8583C801B7
:101800000E946F0886E0F801ACE3B2E001900D920F
:101810008A95E1F73CC086E0F801ACE3B2E00190C4
:101820000D928A95E1F758C0C8010E94E108811124
:1018300069CF80914102816080934102C8010E947A
:101840006F084AC07A2DB98AA88A6E2D89890E94AC
:10185000E90886E0F60111928A95E9F718C0EE20B2
:1018600009F464CFC8010E94E108F82E882309F426
:101870005DCF86E0F801ACE3B2E001900D928A956D
:10188000E1F78CE392E00E942E050E944D0A0E942F
:101890003F0A22C04D875E878D859E850E94F00994
:1018A000292F22952F70223028F49F7039F0811152
:1018B00005C00BC0243028F49F7049F4805E883046
:1018C00020F0C8010E946F089F2CF92C05C0F80178
:1018D0009581907F99F7F9CF8F2D61960FB6F89487
:1018E000DEBF0FBECDBFDF91CF911F910F91FF9053
:1018F000EF90DF90CF90BF90AF909F9008951F938F
:10190000CF93DF93CDB7DEB72C970FB6F894DEBF39
:101910000FBECDBF4F83588769877A878B879C8797
:10192000CE0107960E94B90A8823D1F09F8188854D
:101930002A853B85232B31F08F3F31F481E09F3F97
:1019400019F403C081E001C080E080FD47C04F81F1
:10195000588569857A858B859C850E94F8083EC0EC
:1019600086E0FE013796DE01119601900D928A9570
:10197000E1F7FF81E8856A857B856115710531F0A6
:10198000EF3F31F481E0FF3F19F403C081E001C073
:1019900080E080FD23C020910B0230E0C901019658
:1019A0008770992740910A0250E084179507F1F15A
:1019B000F983EA837D836C8396E0929FD001939FA5
:1019C000B00D1124A45FBD4FFE01319601900D9220
:1019D0009A95E1F780930B020E941E0A16E080910F
:1019E0000A0290910B02891771F1189FC00111240E
:1019F000845F9D4F0E94B90A882329F1E0910A0271
:101A00001E9FF0011124E45FFD4F408151816281EE
:101A10007381848195810E94F80880910A0290E088
:101A200001968770992780930A02D9CF0E94B9083E
:101A300010920B0210920A02ECE3F2E086E0DF0162
:101A40001D928A95E9F72C960FB6F894DEBF0FBE6B
:101A5000CDBFDF91CF911F9108958091420285956E
:101A6000859585950895809142028770089590919B
:101A70004202977081E009F480E008959091C602D7
:101A800092FB222720F9281751F080FB92F99093BE
:101A9000C6028091C5029091C6020C943B0E089537
:101AA0008091C60282FB882780F991E089270C94F7
:101AB0003E0D81E00C943E0D80E00C943E0D809133
:101AC0004E02089590914E02892B80934E02089504
:101AD000809590914E02892380934E020895109232
:101AE0004E02089590914D02892B80934D020895E6
:101AF000809590914D02892380934D020895109214
:101B00004D02089510924C02089580914302089569
:101B100008950C94880D0C94890D9091C60292FD45
:101B200008C090914302981721F0809343020C94CF
:101B30008B0D089580914302882329F0109243026F
:101B400080E00C948B0D0895E0910001F09101016B
:101B500080914E028083E0910001F091010190811B
:101B600080914D02892B8083E0910001F091010169
:101B7000908180914C02892B80838091430288233D
:101B800081F0E0910001F09101019081892B808327
:101B900080910001909101010E943E2981110E94D3
:101BA0009A0D80910001909101010C94F9280C94F8
:101BB000880D9091C60292FD10C098E0899F900117
:101BC0001124262B209342020E9438098091420260
:101BD0008595859585950C94D70D0C9438091092B0
:101BE000420280E00C94D70D20914202809582231E
:101BF00080934202982F977041F430E0482F082ECE
:101C0000000C550B2417350721F49091C60292FF62
:101C100007C08595859585950E9443090C94EF0D25
:101C200008956FEF7FEF80E090E00C947D3680E0C8
:101C300090E00E945936893E9E4F11F40C94502139
:101C400080E0089582E090E00C944B3683E090E0D1
:101C50000C944B36CF9384E090E00E944B36C82F13
:101C600082E290E00E944B362C2F30E0A901582BE5
:101C7000CA01CF910895CF93C92F682F84E090E0D7
:101C80000E945F366C2F82E290E0CF910C945F3619
:101C9000AB01BC018FE090E00C947136AB01BC014C
:101CA00083E190E00C94713660E070E0CB010C941D
:101CB0004E0E60E070E0CB010E94480E0C94540E72
:101CC00069EE7EEF80E090E00E947D3660E082E089
:101CD00090E00E945F3660E083E090E00E945F3613
:101CE0001092090260E084E090E00E945F3660E0BC
:101CF00082E290E00E945F3660E085E090E00E9422
:101D00005F3660E086E090E00E945F366FEF87E02C
:101D100090E00E945F3640E050E0BA0188E090E039
:101D20000E94713660E08DE090E00E945F3640E0F6
:101D300050E0BA0188E190E00E94713660E087E1EE
:101D400090E00E945F3640E050E0BA018CE190E004
:101D50000E94713660E070E080E290E00E947D3683
:101D600040E050E0BA0188E190E00E94713680E0E6
:101D70000E9469210E9495210C94590E0C94600ECA
:101D8000682F8EE090E00C945F360E946D2A60937D
:101D90005C0270935D0280935E0290935F02609399
:101DA00058027093590280935A0290935B020895EF
:101DB00085B7806885BF85B7806885BF08950C9416
:101DC000881308950C94E10E0C94E10E0C94E40E2B
:101DD0000C94E10E0C94E80E0C94E10E0E94D80EC7
:101DE00088E991E10E94DB2A0E94EC0E0C94EA0E35
:101DF0000E94E20E0C94E10E0E94582A0E948B2948
:101E00000E94A4210E9488120E947F240E94461FE3
:101E10000C94E60E9F92AF92BF92CF92DF92EF9218
:101E2000FF920F931F93CF93DF93CDB7DEB72A971F
:101E30000FB6F894DEBF0FBECDBF0E94FD12811118
:101E40000E94C50E80E5A82E82E0B82E00E010E0CA
:101E5000902E802F0E94CC11D82EF501C1905F01E9
:101E6000C826B1F40F5F1F4F0830110589F78FEFB7
:101E700089838A831B820E94612A8160782F9D83D7
:101E80008C8349815A816B818D810E94E4042FC02B
:101E90008091600281FD0E94D211E12CFF24F39415
:101EA0008C2D8F21F1F00E94DF0E882399F0EE82B5
:101EB0009F82DF2081E009F480E088870E94612A08
:101EC0008160782F9A8789874E815F8168858A85AE
:101ED0000E94E404F801E05BFD4F8081F826F08267
:101EE00006C0E394FF0CF5E0EF12DACFBBCF0E94FF
:101EF0007E1F0E94A6170E94E62890914F02891724
:101F0000B9F00E94E62880934F022A960FB6F89403
:101F1000DEBF0FBECDBFDF91CF911F910F91FF901C
:101F2000EF90DF90CF90BF90AF909F900C94DB0428
:101F30002A960FB6F894DEBF0FBECDBFDF91CF91CA
:101F40001F910F91FF90EF90DF90CF90BF90AF90D7
:101F50009F900895CF93DF930E94C110EC018115EB
:101F600021E5920708F045C0811530E5930708F098
:101F700094C0883E910528F5803E910508F0F8C090
:101F8000883A910570F4853A910508F07CC081305B
:101F9000910509F475C008F4E8C0049708F0E8C09A
:101FA000E4C08F3B910508F0E0C0C85AD0E0CC0FE8
:101FB000DD1FCE57DE4F0990D881C02DCE0194642D
:101FC000D8C0811540E2940758F4811551E0950777
:101FD00008F0CEC0803F910508F4C7C09065C9C025
:101FE000C11580E4D80708F4C0C0DF70CE01906A44
:101FF000C0C0811525E59207A8F4811534E5930743
:1020000008F095C0811543E5940708F07BC0811561
:1020100052E5950708F061C0D82FCC27CE01816F1B
:10202000906AA7C0C11589E5D807A0F4C11528E5B5
:10203000D20708F082C0C11536E5D30708F095C075
:102040008C2F0E9455118F7190E0D82FCC27CE0194
:1020500090628FC0C1154AE5D40708F474C0CE0160
:1020600090568115904208F080C08D2F8F710E948C
:102070005511DD27D0628F71AE01582BCA0179C08E
:1020800081E090E076C0C55AD0E0C055DE4F88812F
:10209000C82FD0E0CE0190646CC074E0969587950F
:1020A0007A95E1F7282F23703C2F337081E090E080
:1020B00002C0880F991F3A95E2F79C68AC01522B39
:1020C0009A019C2F9F709695969550E2959FE001FE
:1020D0001124C9018C2B9D2B4CC08370992721E0C2
:1020E00030E002C0220F331F8A95E2F79C2F9695AD
:1020F000969580E2989FE0011124C22BD32BCE014C
:102100009C6837C08370992721E030E002C0220F1D
:10211000331F8A95E2F79C2F9695969540E2949FFF
:10212000E0011124C22BD32BCE019A6822C0D82FF4
:10213000CC27CE01846F906A1CC0DC2FCC27CE0147
:10214000806F906A16C08C2F8F700E94551194E09A
:10215000D695C7959A95E1F7CF70D0E0DC2FCC27C4
:10216000D0699E01282BC90104C080E090E001C025
:10217000CE01DF91CF9108950E94BD230E94AA0F46
:1021800008958238910569F1B0F48133910509F41D
:102190006DC048F48932910509F463C08A32910513
:1021A00009F469C008958533910509F455C0893350
:1021B0009105B9F00895833E910569F138F4803EA8
:1021C0009105B1F0823E910509F10895863E910591
:1021D000A9F1873E9105B9F1843E910509F064C0EB
:1021E00023C02091C50220FD4FC021FD4DC00895A0
:1021F0008091C50280FD44C08091C60280FF44C02A
:102200008091C50284FD42C083EE4DC08091C5021D
:1022100082FF38C0F5CF8091C50282FD33C0809126
:10222000C60280FD31C0ECCF8091C60281FF32C072
:102230008091C50284FD2AC087EE35C08091C50219
:1022400083FF26C0F5CF8091C50283FD21C0809118
:10225000C60281FD1FC0ECCF8091C50285FD1CC068
:102260001DC08091C50285FD19C016C08091C502B0
:1022700086FD16C017C08091C50286FD13C010C030
:1022800089E311C082EE0FC080EE0DC080E00BC06C
:1022900086EE09C084EE07C089E205C085E303C06D
:1022A0008AE201C081E390E008959091C50292FF17
:1022B0000DC0282F2871283019F4877F846006C04C
:1022C000282F2471243011F48B7F886093FF0DC078
:1022D000282F2871283119F4877E846106C0282FA1
:1022E0002471243111F48B7E88612091C60220FF75
:1022F0000DC0382F3871383019F4877F816006C0DF
:10230000382F3171313011F48E7F886021FF0DC07C
:10231000282F2871283119F4877E816106C0282F63
:102320002171213111F48E7E886194FD877E08959C
:1023300080E008950C94110E0E94FD128FE39CE939
:102340000197F1F700C000000E94FD1280E00E949A
:10235000CC1180FF04C00E949A110C94CA2A0895DF
:102360000C949C110E94170E811102C00E94BE0E97
:102370000E94220E809360020E942A0E9093C60251
:102380008093C5020E94B0110E94260E0E9414097B
:10239000809108020C942509E82FF0E0E153FD4FED
:1023A00080810895089580EA8A95F1F7089500C024
:1023B00008950C94D31108950C94DB110C94DC1146
:1023C0000C94DB110C94E011F894E82FE295EF7077
:1023D000F0E031A1282F2F7081E090E001C0880F3C
:1023E0002A95EAF7982F9095932391A392A1892B90
:1023F00082A37894089508950C94FB110F931F9372
:10240000CF93DF93C8EBD1E089918F3F11F00E9409
:10241000E41181E0CC3BD807B9F7C3EBD1E008EB7E
:1024200011E089918F3F11F00E94E4110C171D07F4
:10243000C1F7DF91CF911F910F910895CF92DF9255
:10244000EF92FF920F931F93CF93DF938C01C62FD0
:10245000D0E0CE0188549E4F7C01FC0190819F3FCB
:1024600009F44DC0D62EF894E92FE295EF70F0E014
:1024700081A19F7021E030E001C0220F9A95EAF718
:10248000822B81A382A12095282322A378940E94E5
:10249000D711E3EBF1E020E030E0C12C51E04191B5
:1024A0004F3FB1F0A42FA295AF70B0E090968C9101
:1024B00090E04F7002C0959587954A95E2F780FDB0
:1024C00007C0852F022E01C0880F0A94EAF701C0C9
:1024D00080E0C82A2F5F3F4F2530310501F7F70113
:1024E00080818F3F11F00E94E41161E0C11001C0B2
:1024F00060E08D2D0E94D911C00FD11FC882DF91DD
:10250000CF911F910F91FF90EF90DF90CF900895A2
:102510000E94A2138091020180910201811102C0E8
:1025200094E001C090E09093D80284E0891B8093EE
:10253000D7020E94FE11E7ECF2E0AFECB2E011929C
:102540001D9282E0EF3CF807D1F784E00E9451131E
:102550000E9489030C94B6131F93CF93DF9300D08E
:1025600000D0CDB7DEB70E9488136091D8028823CF
:1025700071F119821A821B821C82862F90E0BE01A3
:102580006F5F7F4F81539D4F0E94C413E091D7022C
:102590009E012B5F3F4FF0E0E153FD4FDE011196AE
:1025A000882361F010E08D919081981711F080835D
:1025B00011E03196A217B307B1F706C011921D9230
:1025C000A217B307D9F711E00E948F030DC070E086
:1025D00061537D4F8091D70290E081539D4F0E94BF
:1025E00054140E94FC1110E0812F0F900F900F9057
:1025F0000F90DF91CF911F910895EF92FF920F936B
:102600001F93CF93DF93CDB7DEB728970FB6F8941B
:10261000DEBF0FBECDBF8E010F5F1F4F88E0F801F8
:1026200011928A95E9F7F12C6F2DC8010E941E12B4
:10263000F394F4E0FF12F8CF48E050E0B80187ECE3
:1026400092E00E9435367C0121E0892B09F420E0DC
:10265000E114F10441F088E0F801A7ECB2E0019048
:102660000D928A95E1F76091D80270E061537D4F39
:1026700044E087EC92E00E945213EF2819F40E9484
:10268000AC1202C081E090E028960FB6F894DEBF4D
:102690000FBECDBFDF91CF911F910F91FF90EF90B3
:1026A00008950895FF920F931F93CF93DF938C01AA
:1026B000F62ED72FC42F222349F081E080936302A6
:1026C0000E94612A9093620280936102809163026A
:1026D0008823C1F080916102909162020E94792A60
:1026E000059780F0EF2DFD2FD8014C2F50E0CD0144
:1026F000801B910B841795071CF48D918193F7CF64
:1027000010926302DF91CF911F910F91FF90089576
:102710008091660281110DC00E944A32811102C06F
:1027200082E001C081E080936602823011F40E9451
:10273000453281E090916602913009F080E0089581
:102740000C9488130E94A0138093020180910201CF
:1027500066E0882311F080E001C086E00E945C19E9
:102760000E94881381110C94FC1308950E94881311
:10277000811102C00C94FE13089581E090916702CC
:102780009A3008F080E008950F931F93CF93DF9362
:10279000EC018B01809167028A3038F4B801CE01D8
:1027A0000E94521481111DC00AC080916402909150
:1027B00065020E94792A843F914080F715C080917C
:1027C00067028F3F19F08F5F8093670280916702E5
:1027D0008A3060F00E94612A9093650280936402BF
:1027E00003C01092670202C080E001C081E0DF9167
:1027F000CF911F910F9108950C941C270C941F27C3
:10280000EF92FF920F931F93CF93DF937901C82F1D
:10281000880FDD0B41155105A9F08AE08C9FF0016E
:102820008D9FF00D1124ED5FFE4F838194818859B7
:102830009D4F228130E04217530708F49A01A90105
:102840000E944236CE010E942928892B09F50115E4
:10285000110501F18AE08C9FF0018D9FF00D11248C
:10286000ED5FFE4F458150E00417150708F4A801FD
:102870008AE08C9FF0018D9FF00D1124ED5FFE4FDB
:102880006681778168597D4FC7010E94423602C038
:1028900080E001C081E0DF91CF911F910F91FF9007
:1028A000EF9008950C94C0150C94E4150F931F93AA
:1028B000CF93DF9300D000D0CDB7DEB76091850213
:1028C0007091860280918702909188020E94882AE6
:1028D000643671058105910528F10E94B129DC015A
:1028E000CB010296A11DB11D89839A83AB83BC8362
:1028F00000E010E020E030E044E050E0BE016F5F17
:102900007F4F82E00E940014182F882361F00E94FC
:102910006D2A60938502709386028093870290935C
:10292000880201C011E0812F0F900F900F900F903F
:10293000DF91CF911F910F910895AF92BF92CF92E7
:10294000DF92EF92FF920F931F93CF93DF937C015F
:102950005B016A010E94BD13811103C001E010E018
:1029600002C00AE010E0C1E0D0E0F894B501C70170
:10297000F60109957894811115C021960C171D0751
:1029800094F0CC9F9001CD9F300D300D112480E04C
:1029900090E045E34A95F1F700000196821793070E
:1029A000C1F7E3CF81E0DF91CF911F910F91FF90AD
:1029B000EF90DF90CF90BF90AF9008950F931F934B
:1029C000CF93DF93CDB7DEB728970FB6F894DEBF6D
:1029D0000FBECDBFCE0101960E94171E18856091D3
:1029E000890270918A0280918B0290918C020E94E0
:1029F000882A643671058105910510F41123D9F0F8
:102A000000E010E020E030E048E050E0BE016F5F01
:102A10007F4F83E00E940014882359F00E946D2AA2
:102A20006093890270938A0280938B0290938C0248
:102A300002C080E003C00E94141E81E028960FB6F9
:102A4000F894DEBF0FBECDBFDF91CF911F910F91E4
:102A50000895AF92BF92CF92DF92EF92FF920F93C1
:102A60001F93CF93DF9300D000D01F92CDB7DEB776
:102A70005B01E090C001F090C10101E010E09E0117
:102A80002B5F3F4F40E050E060E070E080E00E944C
:102A90000014182F882309F43EC067018FEFC81A6D
:102AA000D80A609181027091820280918302909194
:102AB00084020E94882A643671058105910518F107
:102AC00004E010E09E012F5F3F4F40E050E060E0E7
:102AD00070E081E00E940014182F64E070E0C601ED
:102AE0000E94802491E02D81281390E0192351F158
:102AF0000E946D2A60938102709382028093830208
:102B00009093840211C064E070E0C6010E948024AA
:102B10009D818913D5CFF70181819281A381B481F1
:102B200089839A83AB83BC83112361F089819A8165
:102B3000AB81BC8180937D0290937E02A0937F0243
:102B4000B093800280917D0290917E02A0917F02DD
:102B5000B0918002F50180839183A283B383812F9A
:102B60000F900F900F900F900F90DF91CF911F91CA
:102B70000F91FF90EF90DF90CF90BF90AF900895AE
:102B80000F931F93CF93DF93EC018B0149E255E143
:102B90000E949D14882391F046E554E1B801CE01CE
:102BA0000E949D14882351F04EED54E1B801CE01EE
:102BB000DF91CF911F910F910C949D1480E0DF91D4
:102BC000CF911F910F9108950F931F93CF93DF9390
:102BD000F894C091C001D091C101CE01019624E0CA
:102BE000FB01DC0101900D922A95E1F764E070E0B1
:102BF0000E94802488837894F8946D817E818F81EF
:102C000098850091790210917A0220917B0230918F
:102C10007C02601771078207930751F06093790275
:102C200070937A0280937B0290937C020E94942995
:102C30007894F8948889882331F060E0CE01099671
:102C40000E94111F188A7894DF91CF911F910F91E4
:102C500008950E94D5290E946F2C0E94882C0E9402
:102C60009A2C0E94F80EFBCF8091930280FF0BC03C
:102C70006091300185E0689FB001112475956795DA
:102C8000759567952BC081FF09C06091300185E083
:102C9000689FB00111247595679520C082FF07C019
:102CA0006091300185E0689FB001112417C09091B8
:102CB00092029923D1F060912F01961788F7209105
:102CC000300185E0289F90011124929FA001939FDD
:102CD000500D112470E0CA010E94B43560387105AE
:102CE00040F46115710519F406C065E070E0862FA7
:102CF00008958FE7089581E008958091930280FF01
:102D000008C060912C0170E0759567957595679581
:102D100021C081FF06C060912C0170E07595679518
:102D200019C082FF04C060912C0170E010C0909126
:102D30009102992399F060912B019617A0F7809149
:102D40002C01899FC001112470E00E94B4356038C5
:102D5000710540F46115710519F406C061E070E079
:102D6000862F08958FE7089581E00895803F21F42C
:102D70000E943416819504C0813F29F40E943416C4
:102D8000809397020895823F21F40E943416819522
:102D900004C0833F29F40E9434168093960208955C
:102DA000893F19F40E947D1605C08A3F31F40E94C4
:102DB0007D1681958093980208958B3F21F40E949F
:102DC0007D16819504C08C3F29F40E947D16809366
:102DD000990208959CE0980F953078F421E030E056
:102DE000A90102C0440F551F9A95E2F7CA019091BC
:102DF0009502892B8093950208958D3F21F480914F
:102E0000930281600BC08E3F21F480919302826017
:102E100005C08F3F29F480919302846080939302D0
:102E20000895803F39F49091970297FF35C0109232
:102E3000970259C0813F29F4909197021916BCF36B
:102E40002BC090919602823F29F497FF25C01092E3
:102E5000960249C0833F19F41916CCF31DC0909116
:102E60009802893F29F41916BCF4109298023BC0CD
:102E70008A3F19F497FF10C0F8CF8B3F39F4909137
:102E8000990297FF09C0109299022DC08C3F21F43E
:102E9000909199021916BCF39CE0980F953080F43C
:102EA00021E030E0A90102C0440F551F9A95E2F7D6
:102EB000CA0180959091950289238093950213C051
:102EC0008D3F21F4809193028E7F0BC08E3F21F4C1
:102ED000809193028D7F05C08F3F29F480919302EA
:102EE0008B7F8093930280919602811106C080911E
:102EF0009702811102C01092920280919802811172
:102F000006C080919902811102C010929102089529
:102F10000E94612A20919602211104C020919702FB
:102F2000222321F09093900280938F0220919802A7
:102F3000211104C020919902222321F090938E0246
:102F400080938D0284E992E00C940429EF92FF9221
:102F50000F931F93CF93DF9300D000D000D0CDB755
:102F6000DEB786E0E4E9F2E0DE01119601900D9211
:102F70008A95E1F7E0909602F0909702009198020E
:102F80001091990210929602109297021092980254
:102F900010929902E11003C0FF2009F45DC08091F6
:102FA0008F02909190020E94792AAC019091920236
:102FB000992339F02091310130E02417350758F07A
:102FC0004BC0209132018AE0289F900111242417E0
:102FD000350718F041C09F3F19F09F5F9093920210
:102FE000EE2061F00E9434161E1414F09FEF01C011
:102FF00091E0989F902D112490939602FF2061F00C
:103000000E9434161F1414F09FEF01C091E0989FA6
:10301000902D112490939702309196023323E1F082
:10302000209197022223C1F045EB3403C001112403
:10303000992319F09093960203C081E08093960241
:1030400035EB2303C0011124992319F090939702C3
:1030500003C081E080939702011103C0112309F49A
:103060005DC080918D0290918E020E94792AAC0100
:1030700090919102992339F020912D0130E024178D
:10308000350758F04BC020912E018AE0289F90010F
:1030900011242417350718F041C09F3F19F09F5F96
:1030A00090939102002361F00E947D16101614F097
:1030B0009FEF01C091E0989F902D1124909398026A
:1030C000112361F00E947D16111614F09FEF01C0CC
:1030D00091E0989F902D112490939902309198023D
:1030E0003323E1F0209199022223C1F045EB340310
:1030F000C0011124992319F09093980203C081E034
:103100008093980235EB2303C0011124992319F011
:103110009093990203C081E0809399028091960276
:1031200081110BC080919702811107C08091980294
:10313000811103C08091990281110E948817EB824E
:10314000FC820D831E8386E0FE013196A4E9B2E085
:1031500001900D928A95E1F726960FB6F894DEBF9E
:103160000FBECDBFDF91CF911F910F91FF90EF90D8
:103170000895E4E9F2E086E0DF011D928A95E9F71F
:103180001092920210929102109293020895EF927F
:10319000FF920F931F93CF93DF938B01682F111131
:1031A0000AC0442329F0E82FF0E0E95EFC4F649167
:1031B000762F862F75C0212F30E0E82FF0E04423D2
:1031C00021F0E95EFC4FE491F0E046E0049FC0018D
:1031D0001124CFEFD0E0BE010E94A0354BEA460398
:1031E000C001479F900D1124800F911D800F911DEC
:1031F000982F990F890FAE01421B530B4E9FD001A0
:103200004F9FB00D5E9FB00D11249B2F189FA00102
:103210001124452F55278E01041B150B0E9FA0016D
:103220000F9F500D1E9F500D11247E01E81AF108CA
:10323000E29E8001E39E100DF29E100D1124212FBD
:103240003327C21BD30BCE9F9001CF9F300DDE9F43
:10325000300D112462307105A9F048F46115710533
:1032600069F061307105C9F48B2F752F0DC0643082
:10327000710581F058F06630710579F47E2F8B2F3F
:10328000932F0DC0832F7B2F9E2F09C08E2F7B2F56
:10329000952F05C08E2F732F02C07E2F852F692F8B
:1032A000DF91CF911F910F91FF90EF90089541E032
:1032B0000E94C71808950895E6E3F1E080836183D2
:1032C00008950E9457190895CF93DF93762FE9014F
:1032D000682F842F0E946119798368838A83DF9124
:1032E000CF9108958091DA02282F269530E021159C
:1032F000310519F48170826005C02532310524F052
:10330000817088648093DA02089588E090E00C94DC
:103310005336CF92DF92EF92FF926B017C010E94B5
:103320007219B701A60188E090E0FF90EF90DF905E
:10333000CF900C9471366091DA027091DB0280912B
:10334000DC029091DD020C948919EAEDF2E083E051
:10335000808311828FEF828383831482A9EAB2E093
:1033600012968C911297836012968C936081718172
:10337000828193810C9489198091DA0280FF02C0C6
:103380008695089580E008959091DE02933018F4B8
:103390009F5F9093DE02882351F06091DA02709172
:1033A000DB028091DC029091DD020C948919089572
:1033B00081E00C94C4199091DE02992319F0915088
:1033C0009093DE02882351F06091DA027091DB0263
:1033D0008091DC029091DD020C948919089581E0BE
:1033E0000C94DB198091DE0208958093DE0266233F
:1033F00051F06091DA027091DB028091DC029091D1
:10340000DD020C948919089560E00C94F5198091FF
:10341000DB0208958091DC0208958091DD02089519
:1034200070E00C942521609137018091DA0280FFD1
:103430000AC08091360123E0829FC001112481528D
:103440009D4F0C94101A8091380190913901891781
:1034500080F7E82FF0E09F01220F331FE20FF31FE8
:10346000E152FD4F1182108212828F5FF0CF909156
:10347000DA0290FF16C0909138012091390192171D
:1034800070F4E92FF0E0DF01AA0FBB1FEA0FFB1F6A
:10349000E152FD4F8183608342839F5FF0CF0C94A4
:1034A000131A0895CF93DF9300D01F92CDB7DEB7E4
:1034B0009091DA0290FF0AC09E012F5F3F4F0E9459
:1034C00064194B8169818A810E94371A0F900F908D
:1034D0000F90DF91CF910895CF93DF93EC016C8132
:1034E00070E080E090E00E94A13320E030E04FE700
:1034F00053E40E94C4322BED3FE049E450E40E94C3
:10350000CA340E9437350E943E332BE43AE34EE240
:103510005FE30E94573220EF3BEF48ED52E40E94F8
:10352000CA340E947033462FEAEDF2E06281818155
:103530000E94521A8C818F5F8C83DF91CF91089506
:10354000CF93DF93EC01EAEDF2E0438162818C815D
:103550000E94521A8C818F5F8C83DF91CF910895E6
:103560000F931F93CF93DF9300D01F92CDB7DEB799
:103570008C0180919A0281110AC09E012F5F3F4FFA
:103580004FEF6FEF0E9464198A8180939A02F801CD
:103590008481813051F028F0823061F440919A02A8
:1035A0000AC080919A0240E007C060919A0240E010
:1035B00080E003C040E080E060E00E94371AF8013C
:1035C000848190E0019663E070E00E94B4358483CA
:1035D0000F900F900F90DF91CF911F910F91089551
:1035E000AF92BF92CF92DF92EF92FF920F931F9311
:1035F000CF93DF9300D01F92CDB7DEB7182FF62EF2
:10360000042FE22E9091DA0290FF7EC0E92FE6951A
:10361000AE2FB0E0AE53BE4F8C918093A9029E7F37
:10362000923061F49E012F5F3F4F812F0E946419F9
:103630004B8169818A810E94371A43C0823019F414
:103640000091DD023EC0863019F41091DB0239C0D2
:103650008930D9F38931A9F5E9518E2F8170D82E9F
:10366000E695F0E0EE5EFC4FA590B490C12CBB2433
:1036700060913A01C61618F52C2D30E0A29EC001CB
:10368000A39E900DB29E900D112470E00E94A03573
:10369000812FD11002C0860F01C0861B9091380186
:1036A000290F311DA901440F551F240F351F215229
:1036B0003D4F402F6F2D0E946419C394D9CF0E94B3
:1036C000131A8091DB02181308C08091DC02F812F3
:1036D00004C08091DD02081729F08091AB0282605E
:1036E0008093AB021093DB02F092DC020093DD02C8
:1036F000EE2051F06091DA027091DB028091DC02E1
:103700009091DD020E9489190F900F900F90DF9128
:10371000CF911F910F91FF90EF90DF90CF90BF90CE
:10372000AF900895EAEDF2E09181282F4381628104
:1037300080E1890F0C94F01A81E00C94921BEAED61
:10374000F2E09181282F4381628180EF890F0C94F0
:10375000F01A81E00C949F1BEAEDF2E0628120E117
:10376000620F08F46FEF282F438181810C94F01AC7
:1037700081E00C94AC1BEAEDF2E0628120E1621B77
:1037800008F460E0282F438181810C94F01A81E0D5
:103790000C94BB1BEAEDF2E0438120E1420F08F4F8
:1037A0004FEF282F628181810C94F01A81E00C94F4
:1037B000CA1BEAEDF2E0438120E1421B08F440E03D
:1037C000282F628181810C94F01A81E00C94D91B1E
:1037D00020E00C94F01AFF920F931F93CF93DF9386
:1037E000EC01F12C0FEF10E060913A01F616F0F4C5
:1037F000809138012F2D30E0280F311DC901880F2D
:10380000991F280F391F21523D4F70E0C8010E94B7
:10381000B435962F8C814091DD026091DC02F99ED7
:10382000800D11240E946419F394DECF0E94131AB4
:103830009A818C8190FF02C08F5F01C081508C8380
:10384000DF91CF911F910F91FF9008959F92AF92BA
:10385000BF92CF92DF92EF92FF920F931F93CF937D
:10386000DF93EC018A8180FF03C0BB24BA9402C0BD
:10387000BB24B3948C8181110DC081E0B81206C0C5
:1038800080913A01815080939C0202C010929C0268
:1038900081E08C83A12C80913A01A81608F041C0E8
:1038A00080913801CA2CD12C8601080F111DC80146
:1038B000880F991F080F191F01521D4FF80111821F
:1038C0001082128234E0E32EF12C912C80919C0224
:1038D000890D813114F08F7005C087FF03C090916E
:1038E0003A01890F082E000C990BC816D90691F4DD
:1038F0008091DD028E9DA0018F9D500D1124559564
:1039000047955595479598016091DC028091DB02BF
:103910000E9464199B0CF1E0EF1AF108B9F6A39428
:10392000BACF0E94131A80919C0291E0B9120EC086
:10393000811107C080913A01815080939C021C82C2
:103940000FC0815080939C02BC820AC090E0019617
:1039500060913A0170E00E94B43580939C028C83A0
:10396000DF91CF911F910F91FF90EF90DF90CF905B
:10397000BF90AF909F9008951F93CF93DF93EC017A
:103980008C81811109C081E08C8310929B0292E0AE
:1039900090933501809334018091380190913901E1
:1039A000891770F4E82FF0E09F01220F331FE20F18
:1039B000F31FE152FD4F1182108212828F5FF0CF10
:1039C00010E060913A011617C0F5E12FF0E070E0C9
:1039D000CF010E94B43520913801820F20919B02C3
:1039E000022E000C330B90E0E217F307CCF020918D
:1039F0003501022E000C330B2E173F078CF09C0173
:103A0000220F331F820F931F9C0121523D4F409183
:103A1000DD026091DC028091DB020E9464190BC020
:103A2000FC01EE0FFF1F8E0F9F1FFC01E152FD4FA7
:103A30001182108212821F5FC4CF0E94131A8091DC
:103A4000340120919B02280F20939B029091350115
:103A5000980F9093350119165CF4022E000C330B6D
:103A600040913A0150E0415051092417350734F094
:103A7000819580933401813009F41C82DF91CF91CC
:103A80001F9108958F929F92AF92BF92CF92DF9233
:103A9000EF92FF920F931F93CF93DF938C01FC0162
:103AA0004481C42FD0E09E01DE010E94FF359B01BE
:103AB000AC010E9415366B017C01E0E2F0E0EC1BEA
:103AC000FD0BA5E5B0E09B01AC010E9415364B0152
:103AD0005C019F01DF010E94F7359B01AC010E9450
:103AE00020369B01AC012C0D3D1D4E1D5F1DC501F7
:103AF000B4010E94C835C22FD22F2A3228F4F3E035
:103B00002F9F900111240DC025E530E02C1B3109B9
:103B1000C901880F991F280F391F37FF02C02F5F77
:103B20003F4F35952795C22FC095F12C85E5E82E9E
:103B3000ED1A80913A01F816C8F4F1FC02C08E2DFE
:103B400001C08D2F909138012F2D30E0290F311DAC
:103B5000A901440F551F240F351F21523D4F4C2FF3
:103B60006091DC020E946419F394E3CF0E94131A5F
:103B7000F8018481811102C091E003C0803219F400
:103B80009FEF9093330190913301890FF801848363
:103B9000DF91CF911F910F91FF90EF90DF90CF9029
:103BA000BF90AF909F908F9008950F931F93CF93E6
:103BB000DF93EC0100E010E080913A01282F30E023
:103BC0000217130724F5909138019801290F311D30
:103BD000A901440F551F240F351F21523D4F8695D3
:103BE00090E04C81081719071CF4442331F002C0FF
:103BF000411103C04091DD0201C040E06091DC0250
:103C00008091DB020E9464190F5F1F4FD5CF0E9485
:103C1000131A8C8190E00196817099278C83DF9133
:103C2000CF911F910F9108951092AB02089525E056
:103C3000EAEDF2E0DC0101900D922A95E1F7209186
:103C4000A9023091AA024091AB02FC012583368380
:103C5000478308956091DA02669570E04BE050E08A
:103C60008BE391E00E942836892B19F481E0809340
:103C7000AA020E94CC299093A1028093A002809175
:103C8000AB0284608093AB020895E9EAF2E011820E
:103C900082818460828308959091DA0290FF3AC015
:103CA0009170811102C0926006C0853210F0986454
:103CB00002C0880F982B9093DA028091AB0281604A
:103CC0008093AB02662351F06091DA027091DB02BF
:103CD0008091DC029091DD020E9489196091DA02E4
:103CE000669570E04BE050E08BE391E00E9428364F
:103CF000892B19F00E94451E02C00E942A1E81E0F5
:103D00008093A3024091DD026091DC028091DB028E
:103D10000C94E81B0895682F9091DA02969581E043
:103D2000890F853208F081E00C944C1E81E00C94E0
:103D30008B1E682F9091DA0296958FEF890F09F408
:103D400084E20C944C1E81E00C94991E61E00C946A
:103D50004C1EEAEDF2E080818160808386950C94B0
:103D6000A61E60E00C944C1EEAEDF2E080818160BA
:103D7000808386950C94B11E1092A7028091A602B2
:103D800081110E94B41E0C942A1EEAEDF2E080819B
:103D90008E7F808360817181828193810E948919E5
:103DA0000E94451EE9EAF2E08281816082832FEF62
:103DB00080E792E0215080409040E1F700C0000091
:103DC0000C94131A8091DA0280FD0C94C51E0C9499
:103DD000A91EEAEDF2E080818E7F80830E94451E5D
:103DE000E9EAF2E08281816082832FEF80E792E04E
:103DF000215080409040E1F700C000000C94131A5D
:103E00000E94451E8091A70281110AC081E0809323
:103E1000A7028091DA0281708093A6020C94E91EB9
:103E200008951F93CF93DF93EC01162F8F8180FFAE
:103E30000FC0888180FF0AC08091DA028160809380
:103E4000DA02888186950E944C1E02C00E94E91EFB
:103E50008F8181FF06C0212F4B816A8189810E9459
:103E6000F01A8F8182FF08C08E81882319F00E948A
:103E70002A1E02C00E94451E8F8183FF03C081E07D
:103E80008093A302DF91CF911F9108958091A802A2
:103E9000811133C00E94170E811104C00E94BE0E12
:103EA0000E94A5190E9485196093DA027093DB02C3
:103EB0008093DC029093DD028091AB02836080935B
:103EC000AB026E7F61F40E94A5190E948519609370
:103ED000DA027093DB028093DC029093DD020E9491
:103EE00072190E94451E8091DA0280FF03C08695F8
:103EF0000E94B11E81E08093A8020895EF92FF9284
:103F00000F931F93CF93DF938091AA02882309F424
:103F1000ABC08091A902E091DA02E695E81BE0933C
:103F2000A202823049F4F0E0E25FFC4FE491CE2F30
:103F3000D0E00CE61AE149C0863049F4F0E0E55FD4
:103F4000FC4FE491CE2FD0E000EA1AE13EC0893068
:103F500051F4E695F0E0E85FFC4FE491CE2FD0E01D
:103F60000BEE1BE132C08F3051F4E695F0E0EB5FD1
:103F7000FC4FE491CE2FD0E006E21CE126C0853153
:103F800049F4F0E0EE5FFC4FE491CE2FD0E00CEB73
:103F90001CE11BC0883181F0833239F4E0E0F3E0AA
:103FA000C591D49100EB1AE110C0843251F4C4EFF2
:103FB000D1E005ED1DE109C0C8E2D0E002E41DE159
:103FC00004C0C0EDD7E00BE519E18091A30288237E
:103FD00061F01092A3020E94CC299093A1028093D9
:103FE000A0021092A5021092A4020E94CC29E09196
:103FF000A002F091A1029C012E1B3F0B2F3F3F47D7
:1040000098F520919F022223B1F010929F022091F7
:104010009D0230919E02821B930B8F3F9F4758F465
:10402000205D3A4830939E0220939D028091AB021E
:1040300088608093AB02E090A402F090A502EC0FA0
:10404000FD1FF093A102E093A00280EA92E0F80144
:1040500009958091A4029091A502892B29F4EF285B
:1040600019F081E080939F02DF91CF911F910F9112
:10407000FF90EF900895882311F0FA0101C0FB0131
:104080000994CF93DF93C82FD62F0E94BC198C17A9
:1040900040F00E94BC198D1720F4DF91CF910C9451
:1040A000961E8C2FDF91CF910C94A61E1F93CF9359
:1040B000DF93FB0112811111C3C0EC010E945F0D5F
:1040C0008272CC3CFCE5DF0709F49AC0A8F5C63C37
:1040D000ECE5DE0709F476C0A8F4C33C9CE5D907FB
:1040E00009F45FC028F4C23CDC4509F457C054C051
:1040F000C43C9CE5D90709F459C0C53CDC4509F42A
:104100005CC04AC0C93CFCE5DF0709F46AC050F452
:10411000C73CECE5DE0709F45AC0C83CDC4509F4AD
:104120005BC03AC0CA3C9CE5D90709F45FC0CB3CF0
:10413000DC4509F460C030C0C13DFCE5DF0709F48F
:104140006FC088F4CE3C9CE5D90709F460C008F440
:104150005CC0CF3CFCE5DF0709F45CC0C03DDC453A
:1041600009F45BC019C0C43D9CE5D90709F460C0DF
:1041700050F4C23DFCE5DF0709F455C0C33DDC4502
:1041800009F454C009C0C53D9CE5D90709F455C0E0
:10419000CD35DD4509F454C011E052C00E94E21E45
:1041A0004FC043EA5EE166E97EE104C046E95EE1B4
:1041B00063EA7EE10E943B2043C049EA5BE16CE98F
:1041C0007BE1F8CF4CE95BE169EA7BE1F3CF47ECB7
:1041D0005BE168EB7BE1EECF48EB5BE167EC7BE119
:1041E000E9CF45EE5BE166ED7BE1E4CF46ED5BE1D7
:1041F00065EE7BE1DFCF4FEE59E168ED79E1DACF93
:1042000048ED59E16FEE79E1D5CF81E017C065E067
:1042100082E010C068E086E00DC06EE089E00AC070
:1042200064E18FE007C067E185E104C088E106C072
:1042300062E289E10E94412003C083E20E94A61E3F
:10424000812FDF91CF911F910895539A2BB1277F32
:104250003BB138604FB7F894FC01CB01880F991F30
:10426000680F791F6E0F7F1FE617F70789F081919E
:1042700098E03BB9000000C087FF2BB9880F000011
:1042800000C000C000C02BB900C09A9591F7ECCFD8
:104290004FBF8FE594E00197F1F700C0000008954B
:1042A00083E290E00E944B36823281F484E290E017
:1042B0000E944B36893051F485E290E00E944B36E3
:1042C00091E0843109F090E0892F01C080E0817095
:1042D0000895CF93C82F811102C06FEF01C062E231
:1042E00083E290E00E945F36C11102C06FEF01C00F
:1042F00069E084E290E00E945F36C11102C06FEF76
:1043000001C064E185E290E0CF910C945F3608959E
:1043100086E290E00E944B36682F70E080E090E0EB
:10432000089586E290E00C945F3680E00E94692157
:1043300060E070E0CB010E9491210E9438230E942E
:10434000172481E00C9469210E9487210E9450214A
:10435000811102C00C9495210895CF93FB01C28175
:10436000CC23E9F09C0122513F452031310520F456
:1043700082510E9427240CC08031FFE59F0751F431
:1043800081E00E94380943E062E081E00E948003FE
:10439000C0E018C081319F45A9F482E0F2CF80319E
:1043A000EFE59E0711F481E004C081319F4549F497
:1043B00082E00E94430943E062E081E00E948003C2
:1043C00001C0C1E08C2FCF9108952FEFFC01208315
:1043D0000895CF93DF93EC018881813889F028F428
:1043E0008038A1F40E940D1A10C0823861F0833821
:1043F00069F40E94071A89830E940A1A8A8306C0F8
:104400000E94BC1902C00E94F2198983DF91CF91EA
:104410000895CF93DF93EC0188818138B1F058F48F
:10442000803851F5D9810E940A1AC82F0E94071AB4
:104430004D2F6C2F1DC08238B1F08338E9F40E94F3
:104440000D1A482F6A81898113C089810E94B11E8B
:104450008981811104C0DF91CF910C94E91EDF9115
:10446000CF910C94B41E8981DF91CF910C94041AE2
:10447000DF91CF910C94E81BDF91CF910895EF92DB
:10448000FF920F931F93CF93DF93EC01062F0196BA
:10449000E8814E2F50E0FA013197E331F10508F041
:1044A0009AC0E059FF4F0C94EA35198289E056C052
:1044B0008981823039F0833061F0813029F50E94A2
:1044C0006D2A02C00E9488219A838B837C836D832E
:1044D00084C07E0182E0E80EF11C10E0812F0E9472
:1044E000CC11F70181937F011F5F1830B9F775C0B8
:1044F0008981823049F46A817B818C819D810E940F
:10450000F0350E94912169C0602FCE010E94E52103
:1045100064C04B816A8189810E940A239C838D83B8
:104520005CC02C813D813227232732274B816A8151
:1045300089810E94232351C00E9438234EC00E94CB
:1045400009224BC00E94E92148C00E949B1945C026
:104550000E94CA2324C00E94CC2399838A833DC031
:104560006B8170E089819A81AE014C5F5F4F982723
:10457000892798270E94CF2330C06B8170E0898102
:104580009A81AE014C5F5F4F9827892798270E9438
:10459000F42323C00E94172420C00E94F72289839D
:1045A0001CC06B8170E089819A81AE014C5F5F4FC6
:1045B0009827892798270E9477230FC06B8170E086
:1045C00089819A81AE014C5F5F4F98278927982790
:1045D0000E949B2302C08FEF8883602FCE01DF9162
:1045E000CF911F910F91FF90EF900C94602B84E07E
:1045F000089550E0440F551F2AE0629F400D511D61
:1046000011249A0160E5869F200D311D1124C901F6
:10461000879608950F931F93CF93DF930E94F922FB
:104620008C010E944B36C82FD0E0DC2FCC27C8016C
:1046300001960E944B369E01282BC901DF91CF9134
:104640001F910F9108950F931F93CF93DF93122F14
:10465000032F0E94F922EC01602F0E945F36612F28
:10466000CE010196DF91CF911F910F910C945F368F
:10467000AF92BF92CF92DF92EF92FF920F931F9370
:10468000CF93DF93A12CE12CF12CB12C00E010E0B2
:10469000C0E0D0E06701C00ED11EFE01EE0FFF1F8B
:1046A000EC0DFD1DE05AFE4F259134914C2F6B2DE2
:1046B0008A2D0E9423232196C530D10571F7065F0C
:1046C0001F4FB39488E0B812E3CF80E5E80EF11CE9
:1046D000A39484E0A812D9CFDF91CF911F910F91BD
:1046E000FF90EF90DF90CF90BF90AF900895EF9242
:1046F000FF920F931F93CF93DF93EA017A01E60EA7
:10470000F71E8C01C8018796CE15DF0569F00034CD
:1047100021E0120720F40E944B36888301C01882E2
:1047200021960F5F1F4FEECFDF91CF911F910F9119
:10473000FF90EF900895EF92FF920F931F93CF9306
:10474000DF93EA017A01E60EF71E8C01C801879615
:10475000CE15DF0559F0003421E0120718F4688106
:104760000E945F3621960F5F1F4FF0CFDF91CF91F0
:104770001F910F91FF90EF900895462F843038F4E9
:10478000783028F4653018F4672F0C940A2380E001
:1047900090E0089580E1089581EB92E00895EF9212
:1047A000FF920F931F93CF93DF93EA017A01E60EF6
:1047B000F71E8C01C80189599E4FCE15DF0569F09F
:1047C000013B22E0120720F40E944B36888301C08F
:1047D000188221960F5F1F4FEDCFDF91CF911F9170
:1047E0000F91FF90EF900895EF92FF920F931F9318
:1047F000CF93DF93EA017A01E60EF71E8C01C80120
:1048000089599E4FCE15DF0559F0013B22E0120772
:1048100018F468810E945F3621960F5F1F4FEFCF1B
:10482000DF91CF911F910F91FF90EF900895CF935B
:10483000DF93C7E6D1E060E0CE010E945F362196AB
:10484000C83184E0D807B9F7DF91CF910895DF929E
:10485000EF92FF920F931F93CF93DF9300D000D07E
:10486000CDB7DEB7F82E8FE08F15E8F187E194E041
:104870000E944B36811137C007E611E0FF2069F036
:10488000083184E0180779F1C8010E944B36811184
:1048900001C0FA940F5F1F4FF1CF19821A821B8259
:1048A0001C82DD24D39478018FEFE81AF80AC8013E
:1048B0000E944B3689831A828823A9F09FEF980FB4
:1048C000933058F48A83D9820E5F1F4FC7010E942C
:1048D0004B368B83882339F07801CE0101960E94F4
:1048E000D0048701E0CF0F900F900F900F90DF91D1
:1048F000CF911F910F91FF90EF90DF900895089551
:10490000FC01680F791F8FEF91E3E617F70771F04D
:104910002191822728E030E087FF03C0880F892794
:1049200001C0880F21503109B9F7EFCF08950F93D7
:104930001F93CF93DF93C42FD22FFC018281882352
:10494000C9F04093AE020E94612A9093AD02809319
:10495000AC0280E28C0F883008F057C0C77081E04D
:1049600001C0880FCA95EAF7DF91CF911F910F918F
:104970000C9466068091AE02481330C08091AC0260
:104980009091AD020E94792A883C910538F510E299
:104990001D0FCD17B9F080E28C0F883040F4C7703E
:1049A00081E001C0880FCA95EAF70E946D061830B1
:1049B00028F581E09D2F977001C0880F9A95EAF73E
:1049C0000E946606802F0E945D061830F0F4D770B2
:1049D00081E001C0880FDA95EAF70AC080E28C0F07
:1049E000883098F4C77081E001C0880FCA95EAF753
:1049F000DF91CF911F910F910C946D06802FDF9165
:104A0000CF911F910F910C945D06DF91CF911F9173
:104A10000F9108950F939C01CB01233F4CE5340780
:104A200031F188F4283DFCE53F07D9F0293D4CE5FC
:104A3000340779F1273D3C45A9F506E221EE41EE28
:104A400067ED7CE52BC0253FFCE53F07E1F0A8F0D2
:104A5000263F3C4539F507E225EE46EE66EF7CE55C
:104A60001DC007E225EE45EE68ED7CE517C006E2C5
:104A700021EE40EE63EF7CE511C007E225EE44EE47
:104A800064EF7CE50BC006E221EE42EE65EF7CE5CB
:104A900005C008E221E045EE69ED7CE50E9497241F
:104AA00080E008C0FC018281882319F01092AE02D8
:104AB00001C081E00F910895CF93DF93EC01FB01DA
:104AC0008281882309F426C1C330FDE5DF0760F445
:104AD000CA3F9CE5D90768F49E0122503C45243129
:104AE000310508F018C105C0C136EDE5DE0709F053
:104AF00012C10E942A0E9093C6028093C502C03153
:104B0000FCE5DF0709F4CAC008F041C0C8309CE5E5
:104B1000D90709F4A4C0F0F4C430FCE5DF0709F4B8
:104B20008CC068F4C2309CE5D90709F482C0C33058
:104B3000DC4509F0E5C08091C5028260DFC0C63067
:104B4000FCE5DF0709F483C008F085C08091C50249
:104B50008860D4C0CC309CE5D90709F490C068F4D3
:104B6000CA30FCE5DF0709F47EC008F084C00E946B
:104B7000B9088091C5028068C1C0CE309CE5D907D4
:104B800009F481C008F086C08091C50294C0CC3F72
:104B9000FCE5DF0709F47BC038F5C4319CE5D90793
:104BA00009F49AC058F4C231FCE5DF0709F47AC071
:104BB00008F07EC08091C5028F7BA0C0CA3F9CE5F3
:104BC000D907F1F108F03FC0C531DC4509F098C0C4
:104BD0008091C50282FB222720F991E0922790FB69
:104BE00082F990FB83F98AC0C1158DE5D80709F4D5
:104BF00067C050F48091C602CE3FECE5DE07C1F1FC
:104C000008F05BC08D7F65C0C2308DE5D80709F420
:104C100071C008F46DC0C136DD4509F071C08091E6
:104C2000C50284FB222720F991E0922790FB84F9AA
:104C300065C08091C502816061C08091C50216C0C7
:104C40008091C60216C08091C602826042C08091E7
:104C5000C502806153C08091C50280624FC08091BF
:104C6000C50280644BC08091C5028860846046C0E4
:104C7000826081602EC08091C5028E7F3FC080918E
:104C8000C5028D7F3BC08091C502877F37C0809170
:104C9000C60214C08091C5028F7E30C08091C502CB
:104CA0008F7D2CC00E94B9088091C5028F7726C0E5
:104CB0008091C502877F8B7F21C08D7F8E7F09C049
:104CC0008091C602982F909591708E7F892B90FBD2
:104CD00081F98093C60214C00E94B9088091C50270
:104CE00087FB222720F991E0922790FB87F906C0E5
:104CF00081E001C080E00E94C00E02C08093C50226
:104D00008091C5029091C6020E943B0E0E94B90894
:104D100080E001C081E0DF91CF910895CF93DF93D0
:104D200086319C4541F5EB010E945F0D982F8A81E9
:104D30002091000130910101882379F09A7A81E075
:104D400009F480E08093AF02911102C069E201C0D2
:104D500065E3C9010E9480290AC08091AF028111D8
:104D600002C069E201C065E3C9010E9482290E9474
:104D7000A40D80E001C081E0DF91CF9108958EE124
:104D80004A9B02C08150E1F74A9BFECF08955A9892
:104D900080E28A95F1F75A9A0895FC012AE02A9553
:104DA000F1F728E090E080E031E040E14A95F1F74A
:104DB000880F4A9B02C08160932700C0000040E139
:104DC0004A95F1F7215089F720E12A95F1F729B1A9
:104DD00000C0000030E13A95F1F722FB222720F9CC
:104DE00092272081920F90830895EF92FF920F9364
:104DF0001F93CF93DF931F92CDB7DEB719828C013B
:104E00007C01E60EF11C0E151F0551F00E94BF2615
:104E1000CE0101960E94CD26F80181938F01F3CF38
:104E200081E09981911180E00F90DF91CF911F91E6
:104E30000F91FF90EF900895529A5A9A08955298C0
:104E40005A9AEA9AE9E6F0E080818F7C808308959F
:104E5000615091E001C0990F6A95EAF720E031E0D6
:104E6000992361F0492F482319F05A9A232701C04A
:104E70005A9840E24A95F1F79695F2CF222311F025
:104E80005A9A01C05A9880E28A95F1F75A98089583
:104E9000FF920F931F93CF93DF93EC018C01060FCA
:104EA000111DC017D10741F0F9900E94C72668E094
:104EB0008F2D0E942827F5CFDF91CF911F910F9161
:104EC000FF9008951F920F920FB60F921124EF9248
:104ED000FF920F931F932F933F934F935F936F9383
:104EE0007F938F939F93AF93BF93EF93FF93CF9352
:104EF000DF931F92CDB7DEB719820E94BF26CE0185
:104F000001960E94CD26A82FA695A695A6959A2F24
:104F1000969595702A2F2570920F292F23709695BC
:104F20009695920F877089137CC08981811179C011
:104F3000A53008F076C080E18A95F1F75A9A529A26
:104F4000B2E0BA95F1F700C05A98EA2EF12CEAE0E7
:104F5000AE9FD0011124AD5FBE4F1896ED91FC912C
:104F600019973097B1F06091C0017091C101169608
:104F70002D913C911797260F371F13968D919C9179
:104F80001497680F791F15964C91159712968C916E
:104F900009958AE08E9DF0018F9DF00D1124ED5F43
:104FA000FE4F6581662351F08091C0019091C1014F
:104FB00026813781820F931F0E9448270E94C726AF
:104FC000F0E1FA95F1F75A9852985A9A80E18A9549
:104FD000F1F78AE08E9D80018F9D100D11240D5FE9
:104FE0001E4FD80112966C911297662399F080910A
:104FF000C0019091C10113962D913C911497820F9D
:10500000931F0E94F526D801ED91FC91811105C0F6
:1050100082E004C0D801ED91FC9188E080830E9479
:10502000BF260F90DF91CF91FF91EF91BF91AF918C
:105030009F918F917F916F915F914F913F912F91B0
:105040001F910F91FF90EF900F900FBE0F901F9048
:1050500018950F931F93CF93DF93853091050CF034
:10506000A9C02AE0289FF001299FF00D1124ED5FCF
:10507000FE4F20813181232B09F49CC0EC01F89470
:10508000529A5A9885E08A95F1F700008C2F869500
:1050900085709C2F9570890F982F937086958695B3
:1050A0008E0123E0000F111F2A95E1F7890F082BCD
:1050B0000E94C726A4E0AA95F1F700C068E0802FFF
:1050C0000E942827B0E1BA95F1F752985A9A4A9966
:1050D00002C000C0FCCF87E090E04A9B17C0019758
:1050E00099F4529A5A9A8AE08C9FF0018D9FF00DA4
:1050F0001124ED5FFE4F0190F081E02D81E080836F
:10510000789481E090E058C000C0E7CF8AE08C9F9F
:1051100080018D9F100D11240D5F1E4FF8016581D8
:105120006623B9F08091C0019091C1012681378139
:10513000820F931F0E94F52681110BC0529A5A9A32
:10514000D801ED91FC9182E08083789482E090E038
:1051500033C00E94BF26B0E2BA95F1F75A98529A2E
:10516000E0E1EA95F1F78AE08C9FF0018D9FF00D68
:105170001124ED5FFE4F6281662351F08091C001E2
:105180009091C10123813481820F931F0E9448278F
:105190000E94C7268AE08C9FF0018D9FF00D11249C
:1051A000ED5FFE4F0190F081E02D1082789480E059
:1051B00090E002C084E090E0DF91CF911F910F91C9
:1051C00008959093B6028093B50208950E948813C3
:1051D000811103C08091B0020895E091B502F09171
:1051E000B602309721F00190F081E02D099480E023
:1051F0000895E091B502F091B602309721F0028057
:10520000F381E02D09940895E091B502F091B60282
:10521000309739F022E0DC012C930480F581E02DF9
:10522000099408952091B3023091B40228173907E8
:1052300071F09093B4028093B302E091B502F091C3
:10524000B602309721F00680F781E02D0994089589
:105250002091B1023091B2022817390771F0909372
:10526000B2028093B102E091B502F091B60230979C
:1052700021F00084F185E02D09940895FC01329617
:1052800097E080E0915029F021912223D9F38F5F9C
:10529000F9CF0895662349F0FC01329608962191D2
:1052A000621729F0E817F907D1F780E0089581E047
:1052B00008959C01FC0132969FEF80E041914617D2
:1052C00089F09F3F19F4411101C0982F8F5F8630FC
:1052D000A9F79F3F39F0F901E90FF11D97FDFA9504
:1052E0006283089508959C012A5F3F4FFC0142812B
:1052F000461301C01282019682179307B9F70895E9
:105300000C9459290C947329029626E0FC01119201
:105310002A95E9F7089510920F0310921003109246
:105320001103109212030895CF92DF92EF92FF9231
:105330006B017C010E94881381110EC00E946D2AAE
:10534000C61AD70AE80AF90AC0920F03D0921003CE
:10535000E0921103F0921203FF90EF90DF90CF9054
:1053600008950F931F930E948813882321F01F91A3
:105370000F910C946D2A0E946D2A00910F031091D9
:1053800010032091110330911203600F711F821FCF
:10539000931F1F910F9108950E94881381110C94FF
:1053A000612A0E94B129CB010895089508950C94B3
:1053B000D6290C94D629CF930E94D9290E94FD1298
:1053C0000E94D729C0E08C2F0E94CC11811104C00B
:1053D000CF5FC830C1F701C081E0CF9108950C9430
:1053E000D6290C94EF2980911B03843059F10E9437
:1053F000F12980E00E94DB040E94001F1092B70296
:1054000020E488E190E00FB6F894A89580936000BE
:105410000FBE2093600083B7817F846083BF83B712
:10542000816083BF7894889583B78E7F83BF0FB6E2
:10543000F894A89580916000886180936000109234
:1054400060000FBE08950C94D6290E94B9080E94EE
:10545000E6280E94DB040E94BC1E0C94232A1F92A3
:105460000F920FB60F9211248F939F93AF93BF9318
:105470008091B702811113C080911303909114039E
:10548000A0911503B09116034196A11DB11D809303
:10549000130390931403A0931503B0931603BF91C5
:1054A000AF919F918F910F900FBE0F901F90189505
:1054B00082E084BD93E095BD9AEF97BD80936E0026
:1054C00008952FB7F8948091130390911403A0913D
:1054D0001503B09116032FBF08952FB7F89460916C
:1054E00013037091140380911503909116032FBF3D
:1054F00008959C014FB7F894809113039091140381
:10550000A0911503B09116034FBF821B930B089512
:10551000CF92DF92EF92FF922FB7F894C0901303CF
:10552000D0901403E0901503F09016032FBFA7014D
:105530009601261B370B480B590BCA01B901FF9086
:10554000EF90DF90CF90089578941F920F920FB64E
:105550000F9211248F939F93AF93BF938091130366
:1055600090911403A0911503B09116030196A11D0B
:10557000B11D8093130390931403A0931503B0936C
:105580001603BF91AF919F918F910F900FBE0F9017
:105590001F90189587E797E790930108809300087C
:1055A0009AE088E10FB6F894A895809360000FBE4A
:1055B00090936000FFCF9093F7018093F6010895D8
:1055C0008091C302089590911B03943029F5809334
:1055D000B8027093BA026093B9029093E9008FEF1A
:1055E0009091E800815095FD06C095ED9A95F1F7F0
:1055F00000008111F5CF8091E80085FF0DC040E0EB
:1056000050E063E070E088EB92E00E945C2D8091B6
:10561000E8008E778093E8000895BC0184E00C9444
:10562000E32ABC0183E00C94E32A24E02093E90000
:105630002FEF3091E800215035FD06C035ED3A9549
:10564000F1F700002111F5CF2091E80025FF0BC0F4
:1056500040E050E066E070E00E945C2D8091E80040
:105660008E778093E8000895CF93DF9321E0209315
:10567000E9002FEF3091E800215035FD06C035EDEF
:105680003A95F1F700002111F5CF2091E80025FFB0
:1056900014C0EC0140E050E068E070E00E945C2D36
:1056A0008091E8008E778093E80088E0FE01ABEB04
:1056B000B2E001900D928A95E1F7DF91CF910895C4
:1056C000CF93603219F520911B032430F9F4C09177
:1056D000E900CF703091EC00232F217030FD20E8DD
:1056E000C22B22E02093E9002091E80020FF0BC0AC
:1056F00040E050E060E270E00E945C2D8091E800A4
:105700008E778093E800CF70C093E900CF91089521
:1057100080911A03811109C00E94382F0E94952F91
:105720008091E20084608093E200089510921A0351
:10573000089508950895089542E061EC81E00E9483
:10574000B12E42E261EC84E00E94B12E42E261ECB3
:1057500082E00E94B12E42E260EC83E00C94B12E14
:1057600080911D03833009F462C030F4813071F000
:10577000823009F49BC008958A3009F487C08B30C9
:1057800009F46DC0893009F0A9C020C080911C03C4
:10579000813A09F0A3C08091E800877F8093E800F8
:1057A0008091200390912103892B21F468E08BEBF9
:1057B00092E003C060E080E090E070E00E94F22D93
:1057C0008091E8008B778093E800089580911C0316
:1057D000813209F083C080912003909121030097CA
:1057E00019F0029709F07AC08091E800877F8093D2
:1057F000E8008091E80082FD05C080911B038111C3
:10580000F8CF6CC02091F3008091F20090E0922BD1
:10581000029729F48091F1008B7F813021F48091EF
:10582000F1008093C3028091E8008B7753C0809190
:105830001C03813A09F052C080912003909121030A
:10584000892B09F04BC08091E800877F8093E800A6
:105850008091E80080FFFCCF8091500136C080919C
:105860001C038132D9F58091200390912103892B6B
:10587000A9F58091E800877F8093E8000E94E62EDA
:1058800080911E03809350010C94B90880911C03F1
:10589000813221F58091E800877F8093E8000E94A3
:1058A000E62E80911F038093C402089580911C030B
:1058B000813AA1F48091E800877F8093E80080918D
:1058C000E80080FFFCCF8091C4028093F1008091BA
:1058D000E8008E778093E8000C94E62E089584B754
:1058E000877F84BF0FB6F894A89580916000886187
:1058F00080936000109260000FBE90E080E80FB6C9
:10590000F89480936100909361000FBE0C94EE0EAA
:105910000E94382F0E94952FE2EEF0E08081846093
:10592000808378940E942A320E94FC0E86E491E0E3
:105930000C94E128CF93DF93CDB7DEB7A0970FB6D5
:10594000F894DEBF0FBECDBF80911B038530A9F454
:1059500080911B03853079F40E94F329809119030B
:105960008823B1F30E94DB29882391F30E94462DFE
:105970000E94B908EDCF0E94252A0E940A0F80914B
:105980001B03843011F583E08093E9008091E800E7
:1059900082FF1BC08091E80085FF0AC040E050E014
:1059A00060E270E0CE0101960E94A72D91E001C057
:1059B00090E08091E8008B778093E800992329F0AC
:1059C00060E2CE0101960E943F22A0960FB6F894A5
:1059D000DEBF0FBECDBFDF91CF9108950C94F02CA8
:1059E000292F332723303105C9F060F421303105E8
:1059F00081F02230310509F041C08BE590E023E4CD
:105A000034E040C021323105E1F02232310531F17C
:105A100035C082E190E02EE934E034C0992781302E
:105A2000910549F028F0029749F5E7E1F4E005C057
:105A3000EFE3F4E002C0E9E2F4E0849190E09F013A
:105A400021C063307105D0F4660F771FFB01E05170
:105A5000FE4F2081318189E090E014C063307105F0
:105A600068F4FB01EE0FFF1FE651FE4F20813181EC
:105A7000FB01E951FE4F808190E004C080E090E09E
:105A800020E030E0FA0131832083089580E189BD70
:105A900082E189BD09B400FEFDCF8091D8008F7DE1
:105AA0008093D8008091E00082608093E000809134
:105AB000E00081FDFCCF0895CF92DF92EF92FF923C
:105AC0000F931F93CF93DF93EC018B017A010E9418
:105AD000052F811133C0E114F10439F0F701808101
